{
	"contracts/proposalContract.sol": {
		"ProposalContract": {
			"abi": [
				{
					"inputs": [],
					"stateMutability": "nonpayable",
					"type": "constructor"
				},
				{
					"inputs": [
						{
							"internalType": "string",
							"name": "_title",
							"type": "string"
						},
						{
							"internalType": "string",
							"name": "_description",
							"type": "string"
						},
						{
							"internalType": "uint256",
							"name": "_total_vote_to_end",
							"type": "uint256"
						}
					],
					"name": "create",
					"outputs": [],
					"stateMutability": "nonpayable",
					"type": "function"
				},
				{
					"inputs": [],
					"name": "getCurrentProposal",
					"outputs": [
						{
							"components": [
								{
									"internalType": "string",
									"name": "title",
									"type": "string"
								},
								{
									"internalType": "string",
									"name": "description",
									"type": "string"
								},
								{
									"internalType": "uint256",
									"name": "approve",
									"type": "uint256"
								},
								{
									"internalType": "uint256",
									"name": "reject",
									"type": "uint256"
								},
								{
									"internalType": "uint256",
									"name": "pass",
									"type": "uint256"
								},
								{
									"internalType": "uint256",
									"name": "total_vote_to_end",
									"type": "uint256"
								},
								{
									"internalType": "bool",
									"name": "current_state",
									"type": "bool"
								},
								{
									"internalType": "bool",
									"name": "is_active",
									"type": "bool"
								}
							],
							"internalType": "struct ProposalContract.Proposal",
							"name": "",
							"type": "tuple"
						}
					],
					"stateMutability": "view",
					"type": "function"
				},
				{
					"inputs": [
						{
							"internalType": "uint256",
							"name": "number",
							"type": "uint256"
						}
					],
					"name": "getProposal",
					"outputs": [
						{
							"components": [
								{
									"internalType": "string",
									"name": "title",
									"type": "string"
								},
								{
									"internalType": "string",
									"name": "description",
									"type": "string"
								},
								{
									"internalType": "uint256",
									"name": "approve",
									"type": "uint256"
								},
								{
									"internalType": "uint256",
									"name": "reject",
									"type": "uint256"
								},
								{
									"internalType": "uint256",
									"name": "pass",
									"type": "uint256"
								},
								{
									"internalType": "uint256",
									"name": "total_vote_to_end",
									"type": "uint256"
								},
								{
									"internalType": "bool",
									"name": "current_state",
									"type": "bool"
								},
								{
									"internalType": "bool",
									"name": "is_active",
									"type": "bool"
								}
							],
							"internalType": "struct ProposalContract.Proposal",
							"name": "",
							"type": "tuple"
						}
					],
					"stateMutability": "view",
					"type": "function"
				},
				{
					"inputs": [
						{
							"internalType": "address",
							"name": "_address",
							"type": "address"
						}
					],
					"name": "isVoted",
					"outputs": [
						{
							"internalType": "bool",
							"name": "",
							"type": "bool"
						}
					],
					"stateMutability": "view",
					"type": "function"
				},
				{
					"inputs": [
						{
							"internalType": "address",
							"name": "new_owner",
							"type": "address"
						}
					],
					"name": "setOwner",
					"outputs": [],
					"stateMutability": "nonpayable",
					"type": "function"
				},
				{
					"inputs": [],
					"name": "terminateProposal",
					"outputs": [],
					"stateMutability": "nonpayable",
					"type": "function"
				},
				{
					"inputs": [
						{
							"internalType": "uint8",
							"name": "choice",
							"type": "uint8"
						}
					],
					"name": "vote",
					"outputs": [],
					"stateMutability": "nonpayable",
					"type": "function"
				}
			],
			"devdoc": {
				"kind": "dev",
				"methods": {},
				"version": 1
			},
			"evm": {
				"assembly": "    /* \"contracts/proposalContract.sol\":58:3822  contract ProposalContract {... */\n  mstore(0x40, 0x80)\n    /* \"contracts/proposalContract.sol\":907:998  constructor() {... */\n  callvalue\n  dup1\n  iszero\n  tag_1\n  jumpi\n  0x00\n  dup1\n  revert\ntag_1:\n  pop\n    /* \"contracts/proposalContract.sol\":939:949  msg.sender */\n  caller\n    /* \"contracts/proposalContract.sol\":931:936  owner */\n  0x00\n  dup1\n    /* \"contracts/proposalContract.sol\":931:949  owner = msg.sender */\n  0x0100\n  exp\n  dup2\n  sload\n  dup2\n  0xffffffffffffffffffffffffffffffffffffffff\n  mul\n  not\n  and\n  swap1\n  dup4\n  0xffffffffffffffffffffffffffffffffffffffff\n  and\n  mul\n  or\n  swap1\n  sstore\n  pop\n    /* \"contracts/proposalContract.sol\":959:974  voted_addresses */\n  0x03\n    /* \"contracts/proposalContract.sol\":980:990  msg.sender */\n  caller\n    /* \"contracts/proposalContract.sol\":959:991  voted_addresses.push(msg.sender) */\n  swap1\n  dup1\n  0x01\n  dup2\n  sload\n  add\n  dup1\n  dup3\n  sstore\n  dup1\n  swap2\n  pop\n  pop\n  0x01\n  swap1\n  sub\n  swap1\n  0x00\n  mstore\n  keccak256(0x00, 0x20)\n  add\n  0x00\n  swap1\n  swap2\n  swap1\n  swap2\n  swap1\n  swap2\n  0x0100\n  exp\n  dup2\n  sload\n  dup2\n  0xffffffffffffffffffffffffffffffffffffffff\n  mul\n  not\n  and\n  swap1\n  dup4\n  0xffffffffffffffffffffffffffffffffffffffff\n  and\n  mul\n  or\n  swap1\n  sstore\n  pop\n    /* \"contracts/proposalContract.sol\":58:3822  contract ProposalContract {... */\n  dataSize(sub_0)\n  dup1\n  dataOffset(sub_0)\n  0x00\n  codecopy\n  0x00\n  return\nstop\n\nsub_0: assembly {\n        /* \"contracts/proposalContract.sol\":58:3822  contract ProposalContract {... */\n      mstore(0x40, 0x80)\n      callvalue\n      dup1\n      iszero\n      tag_1\n      jumpi\n      0x00\n      dup1\n      revert\n    tag_1:\n      pop\n      jumpi(tag_2, lt(calldatasize, 0x04))\n      shr(0xe0, calldataload(0x00))\n      dup1\n      0xb3f98adc\n      gt\n      tag_10\n      jumpi\n      dup1\n      0xb3f98adc\n      eq\n      tag_6\n      jumpi\n      dup1\n      0xc7f758a8\n      eq\n      tag_7\n      jumpi\n      dup1\n      0xcbff75cb\n      eq\n      tag_8\n      jumpi\n      dup1\n      0xdbddc7aa\n      eq\n      tag_9\n      jumpi\n      jump(tag_2)\n    tag_10:\n      dup1\n      0x13af4035\n      eq\n      tag_3\n      jumpi\n      dup1\n      0x3ca6d100\n      eq\n      tag_4\n      jumpi\n      dup1\n      0x41ec6870\n      eq\n      tag_5\n      jumpi\n    tag_2:\n      0x00\n      dup1\n      revert\n        /* \"contracts/proposalContract.sol\":1387:1477  function setOwner(address new_owner) external onlyOwner {... */\n    tag_3:\n      tag_11\n      0x04\n      dup1\n      calldatasize\n      sub\n      dup2\n      add\n      swap1\n      tag_12\n      swap2\n      swap1\n      tag_13\n      jump\t// in\n    tag_12:\n      tag_14\n      jump\t// in\n    tag_11:\n      stop\n        /* \"contracts/proposalContract.sol\":1483:1737  function create(string memory _title, string calldata _description, uint256 _total_vote_to_end) external onlyOwner {... */\n    tag_4:\n      tag_15\n      0x04\n      dup1\n      calldatasize\n      sub\n      dup2\n      add\n      swap1\n      tag_16\n      swap2\n      swap1\n      tag_17\n      jump\t// in\n    tag_16:\n      tag_18\n      jump\t// in\n    tag_15:\n      stop\n        /* \"contracts/proposalContract.sol\":3572:3690  function getCurrentProposal() external view returns(Proposal memory) {... */\n    tag_5:\n      tag_19\n      tag_20\n      jump\t// in\n    tag_19:\n      mload(0x40)\n      tag_21\n      swap2\n      swap1\n      tag_22\n      jump\t// in\n    tag_21:\n      mload(0x40)\n      dup1\n      swap2\n      sub\n      swap1\n      return\n        /* \"contracts/proposalContract.sol\":1748:2598  function vote(uint8 choice) external active newVoter(msg.sender){... */\n    tag_6:\n      tag_23\n      0x04\n      dup1\n      calldatasize\n      sub\n      dup2\n      add\n      swap1\n      tag_24\n      swap2\n      swap1\n      tag_25\n      jump\t// in\n    tag_24:\n      tag_26\n      jump\t// in\n    tag_23:\n      stop\n        /* \"contracts/proposalContract.sol\":3696:3820  function getProposal(uint256 number) external view returns(Proposal memory) {... */\n    tag_7:\n      tag_27\n      0x04\n      dup1\n      calldatasize\n      sub\n      dup2\n      add\n      swap1\n      tag_28\n      swap2\n      swap1\n      tag_29\n      jump\t// in\n    tag_28:\n      tag_30\n      jump\t// in\n    tag_27:\n      mload(0x40)\n      tag_31\n      swap2\n      swap1\n      tag_22\n      jump\t// in\n    tag_31:\n      mload(0x40)\n      dup1\n      swap2\n      sub\n      swap1\n      return\n        /* \"contracts/proposalContract.sol\":3311:3565  function isVoted(address _address) public view returns (bool) {... */\n    tag_8:\n      tag_32\n      0x04\n      dup1\n      calldatasize\n      sub\n      dup2\n      add\n      swap1\n      tag_33\n      swap2\n      swap1\n      tag_13\n      jump\t// in\n    tag_33:\n      tag_34\n      jump\t// in\n    tag_32:\n      mload(0x40)\n      tag_35\n      swap2\n      swap1\n      tag_36\n      jump\t// in\n    tag_35:\n      mload(0x40)\n      dup1\n      swap2\n      sub\n      swap1\n      return\n        /* \"contracts/proposalContract.sol\":2604:2719  function terminateProposal() external onlyOwner active {... */\n    tag_9:\n      tag_37\n      tag_38\n      jump\t// in\n    tag_37:\n      stop\n        /* \"contracts/proposalContract.sol\":1387:1477  function setOwner(address new_owner) external onlyOwner {... */\n    tag_14:\n        /* \"contracts/proposalContract.sol\":1057:1062  owner */\n      0x00\n      dup1\n      sload\n      swap1\n      0x0100\n      exp\n      swap1\n      div\n      0xffffffffffffffffffffffffffffffffffffffff\n      and\n        /* \"contracts/proposalContract.sol\":1043:1062  msg.sender == owner */\n      0xffffffffffffffffffffffffffffffffffffffff\n      and\n        /* \"contracts/proposalContract.sol\":1043:1053  msg.sender */\n      caller\n        /* \"contracts/proposalContract.sol\":1043:1062  msg.sender == owner */\n      0xffffffffffffffffffffffffffffffffffffffff\n      and\n      eq\n        /* \"contracts/proposalContract.sol\":1035:1063  require(msg.sender == owner) */\n      tag_40\n      jumpi\n      0x00\n      dup1\n      revert\n    tag_40:\n        /* \"contracts/proposalContract.sol\":1461:1470  new_owner */\n      dup1\n        /* \"contracts/proposalContract.sol\":1453:1458  owner */\n      0x00\n      dup1\n        /* \"contracts/proposalContract.sol\":1453:1470  owner = new_owner */\n      0x0100\n      exp\n      dup2\n      sload\n      dup2\n      0xffffffffffffffffffffffffffffffffffffffff\n      mul\n      not\n      and\n      swap1\n      dup4\n      0xffffffffffffffffffffffffffffffffffffffff\n      and\n      mul\n      or\n      swap1\n      sstore\n      pop\n        /* \"contracts/proposalContract.sol\":1387:1477  function setOwner(address new_owner) external onlyOwner {... */\n      pop\n      jump\t// out\n        /* \"contracts/proposalContract.sol\":1483:1737  function create(string memory _title, string calldata _description, uint256 _total_vote_to_end) external onlyOwner {... */\n    tag_18:\n        /* \"contracts/proposalContract.sol\":1057:1062  owner */\n      0x00\n      dup1\n      sload\n      swap1\n      0x0100\n      exp\n      swap1\n      div\n      0xffffffffffffffffffffffffffffffffffffffff\n      and\n        /* \"contracts/proposalContract.sol\":1043:1062  msg.sender == owner */\n      0xffffffffffffffffffffffffffffffffffffffff\n      and\n        /* \"contracts/proposalContract.sol\":1043:1053  msg.sender */\n      caller\n        /* \"contracts/proposalContract.sol\":1043:1062  msg.sender == owner */\n      0xffffffffffffffffffffffffffffffffffffffff\n      and\n      eq\n        /* \"contracts/proposalContract.sol\":1035:1063  require(msg.sender == owner) */\n      tag_43\n      jumpi\n      0x00\n      dup1\n      revert\n    tag_43:\n        /* \"contracts/proposalContract.sol\":1619:1620  1 */\n      0x01\n        /* \"contracts/proposalContract.sol\":1608:1615  counter */\n      dup1\n      0x00\n        /* \"contracts/proposalContract.sol\":1608:1620  counter += 1 */\n      dup3\n      dup3\n      sload\n      tag_45\n      swap2\n      swap1\n      tag_46\n      jump\t// in\n    tag_45:\n      swap3\n      pop\n      pop\n      dup2\n      swap1\n      sstore\n      pop\n        /* \"contracts/proposalContract.sol\":1658:1730  Proposal(_title, _description, 0, 0, 0, _total_vote_to_end, false, true) */\n      mload(0x40)\n      dup1\n      0x0100\n      add\n      0x40\n      mstore\n      dup1\n        /* \"contracts/proposalContract.sol\":1667:1673  _title */\n      dup6\n        /* \"contracts/proposalContract.sol\":1658:1730  Proposal(_title, _description, 0, 0, 0, _total_vote_to_end, false, true) */\n      dup2\n      mstore\n      0x20\n      add\n        /* \"contracts/proposalContract.sol\":1675:1687  _description */\n      dup5\n      dup5\n        /* \"contracts/proposalContract.sol\":1658:1730  Proposal(_title, _description, 0, 0, 0, _total_vote_to_end, false, true) */\n      dup1\n      dup1\n      0x1f\n      add\n      0x20\n      dup1\n      swap2\n      div\n      mul\n      0x20\n      add\n      mload(0x40)\n      swap1\n      dup2\n      add\n      0x40\n      mstore\n      dup1\n      swap4\n      swap3\n      swap2\n      swap1\n      dup2\n      dup2\n      mstore\n      0x20\n      add\n      dup4\n      dup4\n      dup1\n      dup3\n      dup5\n      calldatacopy\n      0x00\n      dup2\n      dup5\n      add\n      mstore\n      not(0x1f)\n      0x1f\n      dup3\n      add\n      and\n      swap1\n      pop\n      dup1\n      dup4\n      add\n      swap3\n      pop\n      pop\n      pop\n      pop\n      pop\n      pop\n      pop\n      dup2\n      mstore\n      0x20\n      add\n        /* \"contracts/proposalContract.sol\":1689:1690  0 */\n      0x00\n        /* \"contracts/proposalContract.sol\":1658:1730  Proposal(_title, _description, 0, 0, 0, _total_vote_to_end, false, true) */\n      dup2\n      mstore\n      0x20\n      add\n        /* \"contracts/proposalContract.sol\":1692:1693  0 */\n      0x00\n        /* \"contracts/proposalContract.sol\":1658:1730  Proposal(_title, _description, 0, 0, 0, _total_vote_to_end, false, true) */\n      dup2\n      mstore\n      0x20\n      add\n        /* \"contracts/proposalContract.sol\":1695:1696  0 */\n      0x00\n        /* \"contracts/proposalContract.sol\":1658:1730  Proposal(_title, _description, 0, 0, 0, _total_vote_to_end, false, true) */\n      dup2\n      mstore\n      0x20\n      add\n        /* \"contracts/proposalContract.sol\":1698:1716  _total_vote_to_end */\n      dup3\n        /* \"contracts/proposalContract.sol\":1658:1730  Proposal(_title, _description, 0, 0, 0, _total_vote_to_end, false, true) */\n      dup2\n      mstore\n      0x20\n      add\n        /* \"contracts/proposalContract.sol\":1718:1723  false */\n      0x00\n        /* \"contracts/proposalContract.sol\":1658:1730  Proposal(_title, _description, 0, 0, 0, _total_vote_to_end, false, true) */\n      iszero\n      iszero\n      dup2\n      mstore\n      0x20\n      add\n        /* \"contracts/proposalContract.sol\":1725:1729  true */\n      0x01\n        /* \"contracts/proposalContract.sol\":1658:1730  Proposal(_title, _description, 0, 0, 0, _total_vote_to_end, false, true) */\n      iszero\n      iszero\n      dup2\n      mstore\n      pop\n        /* \"contracts/proposalContract.sol\":1630:1646  proposal_history */\n      0x02\n        /* \"contracts/proposalContract.sol\":1630:1655  proposal_history[counter] */\n      0x00\n        /* \"contracts/proposalContract.sol\":1647:1654  counter */\n      sload(0x01)\n        /* \"contracts/proposalContract.sol\":1630:1655  proposal_history[counter] */\n      dup2\n      mstore\n      0x20\n      add\n      swap1\n      dup2\n      mstore\n      0x20\n      add\n      0x00\n      keccak256\n        /* \"contracts/proposalContract.sol\":1630:1730  proposal_history[counter] = Proposal(_title, _description, 0, 0, 0, _total_vote_to_end, false, true) */\n      0x00\n      dup3\n      add\n      mload\n      dup2\n      0x00\n      add\n      swap1\n      dup2\n      tag_47\n      swap2\n      swap1\n      tag_48\n      jump\t// in\n    tag_47:\n      pop\n      0x20\n      dup3\n      add\n      mload\n      dup2\n      0x01\n      add\n      swap1\n      dup2\n      tag_49\n      swap2\n      swap1\n      tag_48\n      jump\t// in\n    tag_49:\n      pop\n      0x40\n      dup3\n      add\n      mload\n      dup2\n      0x02\n      add\n      sstore\n      0x60\n      dup3\n      add\n      mload\n      dup2\n      0x03\n      add\n      sstore\n      0x80\n      dup3\n      add\n      mload\n      dup2\n      0x04\n      add\n      sstore\n      0xa0\n      dup3\n      add\n      mload\n      dup2\n      0x05\n      add\n      sstore\n      0xc0\n      dup3\n      add\n      mload\n      dup2\n      0x06\n      add\n      exp(0x0100, 0x00)\n      dup2\n      sload\n      dup2\n      0xff\n      mul\n      not\n      and\n      swap1\n      dup4\n      iszero\n      iszero\n      mul\n      or\n      swap1\n      sstore\n      pop\n      0xe0\n      dup3\n      add\n      mload\n      dup2\n      0x06\n      add\n      exp(0x0100, 0x01)\n      dup2\n      sload\n      dup2\n      0xff\n      mul\n      not\n      and\n      swap1\n      dup4\n      iszero\n      iszero\n      mul\n      or\n      swap1\n      sstore\n      pop\n      swap1\n      pop\n      pop\n        /* \"contracts/proposalContract.sol\":1483:1737  function create(string memory _title, string calldata _description, uint256 _total_vote_to_end) external onlyOwner {... */\n      pop\n      pop\n      pop\n      pop\n      jump\t// out\n        /* \"contracts/proposalContract.sol\":3572:3690  function getCurrentProposal() external view returns(Proposal memory) {... */\n    tag_20:\n        /* \"contracts/proposalContract.sol\":3624:3639  Proposal memory */\n      tag_50\n      tag_51\n      jump\t// in\n    tag_50:\n        /* \"contracts/proposalContract.sol\":3658:3674  proposal_history */\n      0x02\n        /* \"contracts/proposalContract.sol\":3658:3683  proposal_history[counter] */\n      0x00\n        /* \"contracts/proposalContract.sol\":3675:3682  counter */\n      sload(0x01)\n        /* \"contracts/proposalContract.sol\":3658:3683  proposal_history[counter] */\n      dup2\n      mstore\n      0x20\n      add\n      swap1\n      dup2\n      mstore\n      0x20\n      add\n      0x00\n      keccak256\n        /* \"contracts/proposalContract.sol\":3651:3683  return proposal_history[counter] */\n      mload(0x40)\n      dup1\n      0x0100\n      add\n      0x40\n      mstore\n      swap1\n      dup2\n      0x00\n      dup3\n      add\n      dup1\n      sload\n      tag_53\n      swap1\n      tag_54\n      jump\t// in\n    tag_53:\n      dup1\n      0x1f\n      add\n      0x20\n      dup1\n      swap2\n      div\n      mul\n      0x20\n      add\n      mload(0x40)\n      swap1\n      dup2\n      add\n      0x40\n      mstore\n      dup1\n      swap3\n      swap2\n      swap1\n      dup2\n      dup2\n      mstore\n      0x20\n      add\n      dup3\n      dup1\n      sload\n      tag_55\n      swap1\n      tag_54\n      jump\t// in\n    tag_55:\n      dup1\n      iszero\n      tag_56\n      jumpi\n      dup1\n      0x1f\n      lt\n      tag_57\n      jumpi\n      0x0100\n      dup1\n      dup4\n      sload\n      div\n      mul\n      dup4\n      mstore\n      swap2\n      0x20\n      add\n      swap2\n      jump(tag_56)\n    tag_57:\n      dup3\n      add\n      swap2\n      swap1\n      0x00\n      mstore\n      keccak256(0x00, 0x20)\n      swap1\n    tag_58:\n      dup2\n      sload\n      dup2\n      mstore\n      swap1\n      0x01\n      add\n      swap1\n      0x20\n      add\n      dup1\n      dup4\n      gt\n      tag_58\n      jumpi\n      dup3\n      swap1\n      sub\n      0x1f\n      and\n      dup3\n      add\n      swap2\n    tag_56:\n      pop\n      pop\n      pop\n      pop\n      pop\n      dup2\n      mstore\n      0x20\n      add\n      0x01\n      dup3\n      add\n      dup1\n      sload\n      tag_59\n      swap1\n      tag_54\n      jump\t// in\n    tag_59:\n      dup1\n      0x1f\n      add\n      0x20\n      dup1\n      swap2\n      div\n      mul\n      0x20\n      add\n      mload(0x40)\n      swap1\n      dup2\n      add\n      0x40\n      mstore\n      dup1\n      swap3\n      swap2\n      swap1\n      dup2\n      dup2\n      mstore\n      0x20\n      add\n      dup3\n      dup1\n      sload\n      tag_60\n      swap1\n      tag_54\n      jump\t// in\n    tag_60:\n      dup1\n      iszero\n      tag_61\n      jumpi\n      dup1\n      0x1f\n      lt\n      tag_62\n      jumpi\n      0x0100\n      dup1\n      dup4\n      sload\n      div\n      mul\n      dup4\n      mstore\n      swap2\n      0x20\n      add\n      swap2\n      jump(tag_61)\n    tag_62:\n      dup3\n      add\n      swap2\n      swap1\n      0x00\n      mstore\n      keccak256(0x00, 0x20)\n      swap1\n    tag_63:\n      dup2\n      sload\n      dup2\n      mstore\n      swap1\n      0x01\n      add\n      swap1\n      0x20\n      add\n      dup1\n      dup4\n      gt\n      tag_63\n      jumpi\n      dup3\n      swap1\n      sub\n      0x1f\n      and\n      dup3\n      add\n      swap2\n    tag_61:\n      pop\n      pop\n      pop\n      pop\n      pop\n      dup2\n      mstore\n      0x20\n      add\n      0x02\n      dup3\n      add\n      sload\n      dup2\n      mstore\n      0x20\n      add\n      0x03\n      dup3\n      add\n      sload\n      dup2\n      mstore\n      0x20\n      add\n      0x04\n      dup3\n      add\n      sload\n      dup2\n      mstore\n      0x20\n      add\n      0x05\n      dup3\n      add\n      sload\n      dup2\n      mstore\n      0x20\n      add\n      0x06\n      dup3\n      add\n      0x00\n      swap1\n      sload\n      swap1\n      0x0100\n      exp\n      swap1\n      div\n      0xff\n      and\n      iszero\n      iszero\n      iszero\n      iszero\n      dup2\n      mstore\n      0x20\n      add\n      0x06\n      dup3\n      add\n      0x01\n      swap1\n      sload\n      swap1\n      0x0100\n      exp\n      swap1\n      div\n      0xff\n      and\n      iszero\n      iszero\n      iszero\n      iszero\n      dup2\n      mstore\n      pop\n      pop\n      swap1\n      pop\n        /* \"contracts/proposalContract.sol\":3572:3690  function getCurrentProposal() external view returns(Proposal memory) {... */\n      swap1\n      jump\t// out\n        /* \"contracts/proposalContract.sol\":1748:2598  function vote(uint8 choice) external active newVoter(msg.sender){... */\n    tag_26:\n        /* \"contracts/proposalContract.sol\":1162:1166  true */\n      0x01\n        /* \"contracts/proposalContract.sol\":1123:1166  proposal_history[counter].is_active == true */\n      iszero\n      iszero\n        /* \"contracts/proposalContract.sol\":1123:1139  proposal_history */\n      0x02\n        /* \"contracts/proposalContract.sol\":1123:1148  proposal_history[counter] */\n      0x00\n        /* \"contracts/proposalContract.sol\":1140:1147  counter */\n      sload(0x01)\n        /* \"contracts/proposalContract.sol\":1123:1148  proposal_history[counter] */\n      dup2\n      mstore\n      0x20\n      add\n      swap1\n      dup2\n      mstore\n      0x20\n      add\n      0x00\n      keccak256\n        /* \"contracts/proposalContract.sol\":1123:1158  proposal_history[counter].is_active */\n      0x06\n      add\n      0x01\n      swap1\n      sload\n      swap1\n      0x0100\n      exp\n      swap1\n      div\n      0xff\n      and\n        /* \"contracts/proposalContract.sol\":1123:1166  proposal_history[counter].is_active == true */\n      iszero\n      iszero\n      eq\n        /* \"contracts/proposalContract.sol\":1115:1167  require(proposal_history[counter].is_active == true) */\n      tag_65\n      jumpi\n      0x00\n      dup1\n      revert\n    tag_65:\n        /* \"contracts/proposalContract.sol\":1801:1811  msg.sender */\n      caller\n        /* \"contracts/proposalContract.sol\":1246:1263  isVoted(_address) */\n      tag_67\n        /* \"contracts/proposalContract.sol\":1254:1262  _address */\n      dup2\n        /* \"contracts/proposalContract.sol\":1246:1253  isVoted */\n      tag_34\n        /* \"contracts/proposalContract.sol\":1246:1263  isVoted(_address) */\n      jump\t// in\n    tag_67:\n        /* \"contracts/proposalContract.sol\":1245:1263  !isVoted(_address) */\n      iszero\n        /* \"contracts/proposalContract.sol\":1237:1293  require(!isVoted(_address), \"Address has not voted yet\") */\n      tag_68\n      jumpi\n      mload(0x40)\n      0x08c379a000000000000000000000000000000000000000000000000000000000\n      dup2\n      mstore\n      0x04\n      add\n      tag_69\n      swap1\n      tag_70\n      jump\t// in\n    tag_69:\n      mload(0x40)\n      dup1\n      swap2\n      sub\n      swap1\n      revert\n    tag_68:\n        /* \"contracts/proposalContract.sol\":1822:1847  Proposal storage proposal */\n      0x00\n        /* \"contracts/proposalContract.sol\":1850:1866  proposal_history */\n      0x02\n        /* \"contracts/proposalContract.sol\":1850:1875  proposal_history[counter] */\n      0x00\n        /* \"contracts/proposalContract.sol\":1867:1874  counter */\n      sload(0x01)\n        /* \"contracts/proposalContract.sol\":1850:1875  proposal_history[counter] */\n      dup2\n      mstore\n      0x20\n      add\n      swap1\n      dup2\n      mstore\n      0x20\n      add\n      0x00\n      keccak256\n        /* \"contracts/proposalContract.sol\":1822:1875  Proposal storage proposal = proposal_history[counter] */\n      swap1\n      pop\n        /* \"contracts/proposalContract.sol\":1885:1903  uint256 total_vote */\n      0x00\n        /* \"contracts/proposalContract.sol\":1943:1951  proposal */\n      dup2\n        /* \"contracts/proposalContract.sol\":1943:1956  proposal.pass */\n      0x04\n      add\n      sload\n        /* \"contracts/proposalContract.sol\":1925:1933  proposal */\n      dup3\n        /* \"contracts/proposalContract.sol\":1925:1940  proposal.reject */\n      0x03\n      add\n      sload\n        /* \"contracts/proposalContract.sol\":1906:1914  proposal */\n      dup4\n        /* \"contracts/proposalContract.sol\":1906:1922  proposal.approve */\n      0x02\n      add\n      sload\n        /* \"contracts/proposalContract.sol\":1906:1940  proposal.approve + proposal.reject */\n      tag_72\n      swap2\n      swap1\n      tag_46\n      jump\t// in\n    tag_72:\n        /* \"contracts/proposalContract.sol\":1906:1956  proposal.approve + proposal.reject + proposal.pass */\n      tag_73\n      swap2\n      swap1\n      tag_46\n      jump\t// in\n    tag_73:\n        /* \"contracts/proposalContract.sol\":1885:1956  uint256 total_vote = proposal.approve + proposal.reject + proposal.pass */\n      swap1\n      pop\n        /* \"contracts/proposalContract.sol\":1967:1982  voted_addresses */\n      0x03\n        /* \"contracts/proposalContract.sol\":1988:1998  msg.sender */\n      caller\n        /* \"contracts/proposalContract.sol\":1967:1999  voted_addresses.push(msg.sender) */\n      swap1\n      dup1\n      0x01\n      dup2\n      sload\n      add\n      dup1\n      dup3\n      sstore\n      dup1\n      swap2\n      pop\n      pop\n      0x01\n      swap1\n      sub\n      swap1\n      0x00\n      mstore\n      keccak256(0x00, 0x20)\n      add\n      0x00\n      swap1\n      swap2\n      swap1\n      swap2\n      swap1\n      swap2\n      0x0100\n      exp\n      dup2\n      sload\n      dup2\n      0xffffffffffffffffffffffffffffffffffffffff\n      mul\n      not\n      and\n      swap1\n      dup4\n      0xffffffffffffffffffffffffffffffffffffffff\n      and\n      mul\n      or\n      swap1\n      sstore\n      pop\n        /* \"contracts/proposalContract.sol\":2024:2025  1 */\n      0x01\n        /* \"contracts/proposalContract.sol\":2014:2020  choice */\n      dup5\n        /* \"contracts/proposalContract.sol\":2014:2025  choice == 1 */\n      0xff\n      and\n      sub\n        /* \"contracts/proposalContract.sol\":2010:2393  if (choice == 1) {... */\n      tag_75\n      jumpi\n        /* \"contracts/proposalContract.sol\":2061:2062  1 */\n      0x01\n        /* \"contracts/proposalContract.sol\":2041:2049  proposal */\n      dup3\n        /* \"contracts/proposalContract.sol\":2041:2057  proposal.approve */\n      0x02\n      add\n      0x00\n        /* \"contracts/proposalContract.sol\":2041:2062  proposal.approve += 1 */\n      dup3\n      dup3\n      sload\n      tag_76\n      swap2\n      swap1\n      tag_46\n      jump\t// in\n    tag_76:\n      swap3\n      pop\n      pop\n      dup2\n      swap1\n      sstore\n      pop\n        /* \"contracts/proposalContract.sol\":2101:2124  calculateCurrentState() */\n      tag_77\n        /* \"contracts/proposalContract.sol\":2101:2122  calculateCurrentState */\n      tag_78\n        /* \"contracts/proposalContract.sol\":2101:2124  calculateCurrentState() */\n      jump\t// in\n    tag_77:\n        /* \"contracts/proposalContract.sol\":2076:2084  proposal */\n      dup3\n        /* \"contracts/proposalContract.sol\":2076:2098  proposal.current_state */\n      0x06\n      add\n      0x00\n        /* \"contracts/proposalContract.sol\":2076:2124  proposal.current_state = calculateCurrentState() */\n      0x0100\n      exp\n      dup2\n      sload\n      dup2\n      0xff\n      mul\n      not\n      and\n      swap1\n      dup4\n      iszero\n      iszero\n      mul\n      or\n      swap1\n      sstore\n      pop\n        /* \"contracts/proposalContract.sol\":2010:2393  if (choice == 1) {... */\n      jump(tag_79)\n    tag_75:\n        /* \"contracts/proposalContract.sol\":2155:2156  2 */\n      0x02\n        /* \"contracts/proposalContract.sol\":2145:2151  choice */\n      dup5\n        /* \"contracts/proposalContract.sol\":2145:2156  choice == 2 */\n      0xff\n      and\n      sub\n        /* \"contracts/proposalContract.sol\":2141:2393  if (choice == 2) {... */\n      tag_80\n      jumpi\n        /* \"contracts/proposalContract.sol\":2191:2192  1 */\n      0x01\n        /* \"contracts/proposalContract.sol\":2172:2180  proposal */\n      dup3\n        /* \"contracts/proposalContract.sol\":2172:2187  proposal.reject */\n      0x03\n      add\n      0x00\n        /* \"contracts/proposalContract.sol\":2172:2192  proposal.reject += 1 */\n      dup3\n      dup3\n      sload\n      tag_81\n      swap2\n      swap1\n      tag_46\n      jump\t// in\n    tag_81:\n      swap3\n      pop\n      pop\n      dup2\n      swap1\n      sstore\n      pop\n        /* \"contracts/proposalContract.sol\":2231:2254  calculateCurrentState() */\n      tag_82\n        /* \"contracts/proposalContract.sol\":2231:2252  calculateCurrentState */\n      tag_78\n        /* \"contracts/proposalContract.sol\":2231:2254  calculateCurrentState() */\n      jump\t// in\n    tag_82:\n        /* \"contracts/proposalContract.sol\":2206:2214  proposal */\n      dup3\n        /* \"contracts/proposalContract.sol\":2206:2228  proposal.current_state */\n      0x06\n      add\n      0x00\n        /* \"contracts/proposalContract.sol\":2206:2254  proposal.current_state = calculateCurrentState() */\n      0x0100\n      exp\n      dup2\n      sload\n      dup2\n      0xff\n      mul\n      not\n      and\n      swap1\n      dup4\n      iszero\n      iszero\n      mul\n      or\n      swap1\n      sstore\n      pop\n        /* \"contracts/proposalContract.sol\":2141:2393  if (choice == 2) {... */\n      jump(tag_83)\n    tag_80:\n        /* \"contracts/proposalContract.sol\":2285:2286  0 */\n      0x00\n        /* \"contracts/proposalContract.sol\":2275:2281  choice */\n      dup5\n        /* \"contracts/proposalContract.sol\":2275:2286  choice == 0 */\n      0xff\n      and\n      sub\n        /* \"contracts/proposalContract.sol\":2271:2393  if (choice == 0) {... */\n      tag_84\n      jumpi\n        /* \"contracts/proposalContract.sol\":2319:2320  1 */\n      0x01\n        /* \"contracts/proposalContract.sol\":2302:2310  proposal */\n      dup3\n        /* \"contracts/proposalContract.sol\":2302:2315  proposal.pass */\n      0x04\n      add\n      0x00\n        /* \"contracts/proposalContract.sol\":2302:2320  proposal.pass += 1 */\n      dup3\n      dup3\n      sload\n      tag_85\n      swap2\n      swap1\n      tag_46\n      jump\t// in\n    tag_85:\n      swap3\n      pop\n      pop\n      dup2\n      swap1\n      sstore\n      pop\n        /* \"contracts/proposalContract.sol\":2359:2382  calculateCurrentState() */\n      tag_86\n        /* \"contracts/proposalContract.sol\":2359:2380  calculateCurrentState */\n      tag_78\n        /* \"contracts/proposalContract.sol\":2359:2382  calculateCurrentState() */\n      jump\t// in\n    tag_86:\n        /* \"contracts/proposalContract.sol\":2334:2342  proposal */\n      dup3\n        /* \"contracts/proposalContract.sol\":2334:2356  proposal.current_state */\n      0x06\n      add\n      0x00\n        /* \"contracts/proposalContract.sol\":2334:2382  proposal.current_state = calculateCurrentState() */\n      0x0100\n      exp\n      dup2\n      sload\n      dup2\n      0xff\n      mul\n      not\n      and\n      swap1\n      dup4\n      iszero\n      iszero\n      mul\n      or\n      swap1\n      sstore\n      pop\n        /* \"contracts/proposalContract.sol\":2271:2393  if (choice == 0) {... */\n    tag_84:\n        /* \"contracts/proposalContract.sol\":2141:2393  if (choice == 2) {... */\n    tag_83:\n        /* \"contracts/proposalContract.sol\":2010:2393  if (choice == 1) {... */\n    tag_79:\n        /* \"contracts/proposalContract.sol\":2451:2452  1 */\n      0x01\n        /* \"contracts/proposalContract.sol\":2437:2447  total_vote */\n      dup2\n        /* \"contracts/proposalContract.sol\":2408:2416  proposal */\n      dup4\n        /* \"contracts/proposalContract.sol\":2408:2434  proposal.total_vote_to_end */\n      0x05\n      add\n      sload\n        /* \"contracts/proposalContract.sol\":2408:2447  proposal.total_vote_to_end - total_vote */\n      tag_87\n      swap2\n      swap1\n      tag_88\n      jump\t// in\n    tag_87:\n        /* \"contracts/proposalContract.sol\":2408:2452  proposal.total_vote_to_end - total_vote == 1 */\n      eq\n        /* \"contracts/proposalContract.sol\":2407:2500  (proposal.total_vote_to_end - total_vote == 1) && (choice == 1 || choice == 2 || choice == 0) */\n      dup1\n      iszero\n      tag_89\n      jumpi\n      pop\n        /* \"contracts/proposalContract.sol\":2468:2469  1 */\n      0x01\n        /* \"contracts/proposalContract.sol\":2458:2464  choice */\n      dup5\n        /* \"contracts/proposalContract.sol\":2458:2469  choice == 1 */\n      0xff\n      and\n      eq\n        /* \"contracts/proposalContract.sol\":2458:2484  choice == 1 || choice == 2 */\n      dup1\n      tag_90\n      jumpi\n      pop\n        /* \"contracts/proposalContract.sol\":2483:2484  2 */\n      0x02\n        /* \"contracts/proposalContract.sol\":2473:2479  choice */\n      dup5\n        /* \"contracts/proposalContract.sol\":2473:2484  choice == 2 */\n      0xff\n      and\n      eq\n        /* \"contracts/proposalContract.sol\":2458:2484  choice == 1 || choice == 2 */\n    tag_90:\n        /* \"contracts/proposalContract.sol\":2458:2499  choice == 1 || choice == 2 || choice == 0 */\n      dup1\n      tag_91\n      jumpi\n      pop\n        /* \"contracts/proposalContract.sol\":2498:2499  0 */\n      0x00\n        /* \"contracts/proposalContract.sol\":2488:2494  choice */\n      dup5\n        /* \"contracts/proposalContract.sol\":2488:2499  choice == 0 */\n      0xff\n      and\n      eq\n        /* \"contracts/proposalContract.sol\":2458:2499  choice == 1 || choice == 2 || choice == 0 */\n    tag_91:\n        /* \"contracts/proposalContract.sol\":2407:2500  (proposal.total_vote_to_end - total_vote == 1) && (choice == 1 || choice == 2 || choice == 0) */\n    tag_89:\n        /* \"contracts/proposalContract.sol\":2403:2592  if ((proposal.total_vote_to_end - total_vote == 1) && (choice == 1 || choice == 2 || choice == 0)) {... */\n      iszero\n      tag_92\n      jumpi\n        /* \"contracts/proposalContract.sol\":2537:2542  false */\n      0x00\n        /* \"contracts/proposalContract.sol\":2516:2524  proposal */\n      dup3\n        /* \"contracts/proposalContract.sol\":2516:2534  proposal.is_active */\n      0x06\n      add\n      0x01\n        /* \"contracts/proposalContract.sol\":2516:2542  proposal.is_active = false */\n      0x0100\n      exp\n      dup2\n      sload\n      dup2\n      0xff\n      mul\n      not\n      and\n      swap1\n      dup4\n      iszero\n      iszero\n      mul\n      or\n      swap1\n      sstore\n      pop\n        /* \"contracts/proposalContract.sol\":2556:2581  voted_addresses = [owner] */\n      mload(0x40)\n      dup1\n      0x20\n      add\n      0x40\n      mstore\n      dup1\n        /* \"contracts/proposalContract.sol\":2575:2580  owner */\n      0x00\n      dup1\n      sload\n      swap1\n      0x0100\n      exp\n      swap1\n      div\n      0xffffffffffffffffffffffffffffffffffffffff\n      and\n        /* \"contracts/proposalContract.sol\":2556:2581  voted_addresses = [owner] */\n      0xffffffffffffffffffffffffffffffffffffffff\n      and\n      0xffffffffffffffffffffffffffffffffffffffff\n      and\n      dup2\n      mstore\n      pop\n        /* \"contracts/proposalContract.sol\":2556:2571  voted_addresses */\n      0x03\n        /* \"contracts/proposalContract.sol\":2556:2581  voted_addresses = [owner] */\n      swap1\n      0x01\n      tag_93\n      swap3\n      swap2\n      swap1\n      tag_94\n      jump\t// in\n    tag_93:\n      pop\n        /* \"contracts/proposalContract.sol\":2403:2592  if ((proposal.total_vote_to_end - total_vote == 1) && (choice == 1 || choice == 2 || choice == 0)) {... */\n    tag_92:\n        /* \"contracts/proposalContract.sol\":1812:2598  {... */\n      pop\n      pop\n        /* \"contracts/proposalContract.sol\":1177:1178  _ */\n      pop\n        /* \"contracts/proposalContract.sol\":1748:2598  function vote(uint8 choice) external active newVoter(msg.sender){... */\n      pop\n      jump\t// out\n        /* \"contracts/proposalContract.sol\":3696:3820  function getProposal(uint256 number) external view returns(Proposal memory) {... */\n    tag_30:\n        /* \"contracts/proposalContract.sol\":3755:3770  Proposal memory */\n      tag_95\n      tag_51\n      jump\t// in\n    tag_95:\n        /* \"contracts/proposalContract.sol\":3789:3805  proposal_history */\n      0x02\n        /* \"contracts/proposalContract.sol\":3789:3813  proposal_history[number] */\n      0x00\n        /* \"contracts/proposalContract.sol\":3806:3812  number */\n      dup4\n        /* \"contracts/proposalContract.sol\":3789:3813  proposal_history[number] */\n      dup2\n      mstore\n      0x20\n      add\n      swap1\n      dup2\n      mstore\n      0x20\n      add\n      0x00\n      keccak256\n        /* \"contracts/proposalContract.sol\":3782:3813  return proposal_history[number] */\n      mload(0x40)\n      dup1\n      0x0100\n      add\n      0x40\n      mstore\n      swap1\n      dup2\n      0x00\n      dup3\n      add\n      dup1\n      sload\n      tag_97\n      swap1\n      tag_54\n      jump\t// in\n    tag_97:\n      dup1\n      0x1f\n      add\n      0x20\n      dup1\n      swap2\n      div\n      mul\n      0x20\n      add\n      mload(0x40)\n      swap1\n      dup2\n      add\n      0x40\n      mstore\n      dup1\n      swap3\n      swap2\n      swap1\n      dup2\n      dup2\n      mstore\n      0x20\n      add\n      dup3\n      dup1\n      sload\n      tag_98\n      swap1\n      tag_54\n      jump\t// in\n    tag_98:\n      dup1\n      iszero\n      tag_99\n      jumpi\n      dup1\n      0x1f\n      lt\n      tag_100\n      jumpi\n      0x0100\n      dup1\n      dup4\n      sload\n      div\n      mul\n      dup4\n      mstore\n      swap2\n      0x20\n      add\n      swap2\n      jump(tag_99)\n    tag_100:\n      dup3\n      add\n      swap2\n      swap1\n      0x00\n      mstore\n      keccak256(0x00, 0x20)\n      swap1\n    tag_101:\n      dup2\n      sload\n      dup2\n      mstore\n      swap1\n      0x01\n      add\n      swap1\n      0x20\n      add\n      dup1\n      dup4\n      gt\n      tag_101\n      jumpi\n      dup3\n      swap1\n      sub\n      0x1f\n      and\n      dup3\n      add\n      swap2\n    tag_99:\n      pop\n      pop\n      pop\n      pop\n      pop\n      dup2\n      mstore\n      0x20\n      add\n      0x01\n      dup3\n      add\n      dup1\n      sload\n      tag_102\n      swap1\n      tag_54\n      jump\t// in\n    tag_102:\n      dup1\n      0x1f\n      add\n      0x20\n      dup1\n      swap2\n      div\n      mul\n      0x20\n      add\n      mload(0x40)\n      swap1\n      dup2\n      add\n      0x40\n      mstore\n      dup1\n      swap3\n      swap2\n      swap1\n      dup2\n      dup2\n      mstore\n      0x20\n      add\n      dup3\n      dup1\n      sload\n      tag_103\n      swap1\n      tag_54\n      jump\t// in\n    tag_103:\n      dup1\n      iszero\n      tag_104\n      jumpi\n      dup1\n      0x1f\n      lt\n      tag_105\n      jumpi\n      0x0100\n      dup1\n      dup4\n      sload\n      div\n      mul\n      dup4\n      mstore\n      swap2\n      0x20\n      add\n      swap2\n      jump(tag_104)\n    tag_105:\n      dup3\n      add\n      swap2\n      swap1\n      0x00\n      mstore\n      keccak256(0x00, 0x20)\n      swap1\n    tag_106:\n      dup2\n      sload\n      dup2\n      mstore\n      swap1\n      0x01\n      add\n      swap1\n      0x20\n      add\n      dup1\n      dup4\n      gt\n      tag_106\n      jumpi\n      dup3\n      swap1\n      sub\n      0x1f\n      and\n      dup3\n      add\n      swap2\n    tag_104:\n      pop\n      pop\n      pop\n      pop\n      pop\n      dup2\n      mstore\n      0x20\n      add\n      0x02\n      dup3\n      add\n      sload\n      dup2\n      mstore\n      0x20\n      add\n      0x03\n      dup3\n      add\n      sload\n      dup2\n      mstore\n      0x20\n      add\n      0x04\n      dup3\n      add\n      sload\n      dup2\n      mstore\n      0x20\n      add\n      0x05\n      dup3\n      add\n      sload\n      dup2\n      mstore\n      0x20\n      add\n      0x06\n      dup3\n      add\n      0x00\n      swap1\n      sload\n      swap1\n      0x0100\n      exp\n      swap1\n      div\n      0xff\n      and\n      iszero\n      iszero\n      iszero\n      iszero\n      dup2\n      mstore\n      0x20\n      add\n      0x06\n      dup3\n      add\n      0x01\n      swap1\n      sload\n      swap1\n      0x0100\n      exp\n      swap1\n      div\n      0xff\n      and\n      iszero\n      iszero\n      iszero\n      iszero\n      dup2\n      mstore\n      pop\n      pop\n      swap1\n      pop\n        /* \"contracts/proposalContract.sol\":3696:3820  function getProposal(uint256 number) external view returns(Proposal memory) {... */\n      swap2\n      swap1\n      pop\n      jump\t// out\n        /* \"contracts/proposalContract.sol\":3311:3565  function isVoted(address _address) public view returns (bool) {... */\n    tag_34:\n        /* \"contracts/proposalContract.sol\":3367:3371  bool */\n      0x00\n        /* \"contracts/proposalContract.sol\":3388:3394  uint i */\n      dup1\n        /* \"contracts/proposalContract.sol\":3397:3398  0 */\n      0x00\n        /* \"contracts/proposalContract.sol\":3388:3398  uint i = 0 */\n      swap1\n      pop\n        /* \"contracts/proposalContract.sol\":3383:3537  for (uint i = 0; i < voted_addresses.length; i++) {... */\n    tag_108:\n        /* \"contracts/proposalContract.sol\":3404:3419  voted_addresses */\n      0x03\n        /* \"contracts/proposalContract.sol\":3404:3426  voted_addresses.length */\n      dup1\n      sload\n      swap1\n      pop\n        /* \"contracts/proposalContract.sol\":3400:3401  i */\n      dup2\n        /* \"contracts/proposalContract.sol\":3400:3426  i < voted_addresses.length */\n      lt\n        /* \"contracts/proposalContract.sol\":3383:3537  for (uint i = 0; i < voted_addresses.length; i++) {... */\n      iszero\n      tag_109\n      jumpi\n        /* \"contracts/proposalContract.sol\":3473:3481  _address */\n      dup3\n        /* \"contracts/proposalContract.sol\":3451:3481  voted_addresses[i] == _address */\n      0xffffffffffffffffffffffffffffffffffffffff\n      and\n        /* \"contracts/proposalContract.sol\":3451:3466  voted_addresses */\n      0x03\n        /* \"contracts/proposalContract.sol\":3467:3468  i */\n      dup3\n        /* \"contracts/proposalContract.sol\":3451:3469  voted_addresses[i] */\n      dup2\n      sload\n      dup2\n      lt\n      tag_111\n      jumpi\n      tag_112\n      tag_113\n      jump\t// in\n    tag_112:\n    tag_111:\n      swap1\n      0x00\n      mstore\n      keccak256(0x00, 0x20)\n      add\n      0x00\n      swap1\n      sload\n      swap1\n      0x0100\n      exp\n      swap1\n      div\n      0xffffffffffffffffffffffffffffffffffffffff\n      and\n        /* \"contracts/proposalContract.sol\":3451:3481  voted_addresses[i] == _address */\n      0xffffffffffffffffffffffffffffffffffffffff\n      and\n      sub\n        /* \"contracts/proposalContract.sol\":3447:3527  if (voted_addresses[i] == _address) {... */\n      tag_115\n      jumpi\n        /* \"contracts/proposalContract.sol\":3508:3512  true */\n      0x01\n        /* \"contracts/proposalContract.sol\":3501:3512  return true */\n      swap2\n      pop\n      pop\n      jump(tag_107)\n        /* \"contracts/proposalContract.sol\":3447:3527  if (voted_addresses[i] == _address) {... */\n    tag_115:\n        /* \"contracts/proposalContract.sol\":3428:3431  i++ */\n      dup1\n      dup1\n      0x01\n      add\n      swap2\n      pop\n      pop\n        /* \"contracts/proposalContract.sol\":3383:3537  for (uint i = 0; i < voted_addresses.length; i++) {... */\n      jump(tag_108)\n    tag_109:\n      pop\n        /* \"contracts/proposalContract.sol\":3553:3558  false */\n      0x00\n        /* \"contracts/proposalContract.sol\":3546:3558  return false */\n      swap1\n      pop\n        /* \"contracts/proposalContract.sol\":3311:3565  function isVoted(address _address) public view returns (bool) {... */\n    tag_107:\n      swap2\n      swap1\n      pop\n      jump\t// out\n        /* \"contracts/proposalContract.sol\":2604:2719  function terminateProposal() external onlyOwner active {... */\n    tag_38:\n        /* \"contracts/proposalContract.sol\":1057:1062  owner */\n      0x00\n      dup1\n      sload\n      swap1\n      0x0100\n      exp\n      swap1\n      div\n      0xffffffffffffffffffffffffffffffffffffffff\n      and\n        /* \"contracts/proposalContract.sol\":1043:1062  msg.sender == owner */\n      0xffffffffffffffffffffffffffffffffffffffff\n      and\n        /* \"contracts/proposalContract.sol\":1043:1053  msg.sender */\n      caller\n        /* \"contracts/proposalContract.sol\":1043:1062  msg.sender == owner */\n      0xffffffffffffffffffffffffffffffffffffffff\n      and\n      eq\n        /* \"contracts/proposalContract.sol\":1035:1063  require(msg.sender == owner) */\n      tag_117\n      jumpi\n      0x00\n      dup1\n      revert\n    tag_117:\n        /* \"contracts/proposalContract.sol\":1162:1166  true */\n      0x01\n        /* \"contracts/proposalContract.sol\":1123:1166  proposal_history[counter].is_active == true */\n      iszero\n      iszero\n        /* \"contracts/proposalContract.sol\":1123:1139  proposal_history */\n      0x02\n        /* \"contracts/proposalContract.sol\":1123:1148  proposal_history[counter] */\n      0x00\n        /* \"contracts/proposalContract.sol\":1140:1147  counter */\n      sload(0x01)\n        /* \"contracts/proposalContract.sol\":1123:1148  proposal_history[counter] */\n      dup2\n      mstore\n      0x20\n      add\n      swap1\n      dup2\n      mstore\n      0x20\n      add\n      0x00\n      keccak256\n        /* \"contracts/proposalContract.sol\":1123:1158  proposal_history[counter].is_active */\n      0x06\n      add\n      0x01\n      swap1\n      sload\n      swap1\n      0x0100\n      exp\n      swap1\n      div\n      0xff\n      and\n        /* \"contracts/proposalContract.sol\":1123:1166  proposal_history[counter].is_active == true */\n      iszero\n      iszero\n      eq\n        /* \"contracts/proposalContract.sol\":1115:1167  require(proposal_history[counter].is_active == true) */\n      tag_119\n      jumpi\n      0x00\n      dup1\n      revert\n    tag_119:\n        /* \"contracts/proposalContract.sol\":2707:2712  false */\n      0x00\n        /* \"contracts/proposalContract.sol\":2669:2685  proposal_history */\n      0x02\n        /* \"contracts/proposalContract.sol\":2669:2694  proposal_history[counter] */\n      0x00\n        /* \"contracts/proposalContract.sol\":2686:2693  counter */\n      sload(0x01)\n        /* \"contracts/proposalContract.sol\":2669:2694  proposal_history[counter] */\n      dup2\n      mstore\n      0x20\n      add\n      swap1\n      dup2\n      mstore\n      0x20\n      add\n      0x00\n      keccak256\n        /* \"contracts/proposalContract.sol\":2669:2704  proposal_history[counter].is_active */\n      0x06\n      add\n      0x01\n        /* \"contracts/proposalContract.sol\":2669:2712  proposal_history[counter].is_active = false */\n      0x0100\n      exp\n      dup2\n      sload\n      dup2\n      0xff\n      mul\n      not\n      and\n      swap1\n      dup4\n      iszero\n      iszero\n      mul\n      or\n      swap1\n      sstore\n      pop\n        /* \"contracts/proposalContract.sol\":2604:2719  function terminateProposal() external onlyOwner active {... */\n      jump\t// out\n        /* \"contracts/proposalContract.sol\":2726:3237  function calculateCurrentState() private view returns(bool) {... */\n    tag_78:\n        /* \"contracts/proposalContract.sol\":2780:2784  bool */\n      0x00\n        /* \"contracts/proposalContract.sol\":2796:2821  Proposal storage proposal */\n      dup1\n        /* \"contracts/proposalContract.sol\":2824:2840  proposal_history */\n      0x02\n        /* \"contracts/proposalContract.sol\":2824:2849  proposal_history[counter] */\n      0x00\n        /* \"contracts/proposalContract.sol\":2841:2848  counter */\n      sload(0x01)\n        /* \"contracts/proposalContract.sol\":2824:2849  proposal_history[counter] */\n      dup2\n      mstore\n      0x20\n      add\n      swap1\n      dup2\n      mstore\n      0x20\n      add\n      0x00\n      keccak256\n        /* \"contracts/proposalContract.sol\":2796:2849  Proposal storage proposal = proposal_history[counter] */\n      swap1\n      pop\n        /* \"contracts/proposalContract.sol\":2860:2875  uint256 approve */\n      0x00\n        /* \"contracts/proposalContract.sol\":2878:2886  proposal */\n      dup2\n        /* \"contracts/proposalContract.sol\":2878:2894  proposal.approve */\n      0x02\n      add\n      sload\n        /* \"contracts/proposalContract.sol\":2860:2894  uint256 approve = proposal.approve */\n      swap1\n      pop\n        /* \"contracts/proposalContract.sol\":2904:2918  uint256 reject */\n      0x00\n        /* \"contracts/proposalContract.sol\":2921:2929  proposal */\n      dup3\n        /* \"contracts/proposalContract.sol\":2921:2936  proposal.reject */\n      0x03\n      add\n      sload\n        /* \"contracts/proposalContract.sol\":2904:2936  uint256 reject = proposal.reject */\n      swap1\n      pop\n        /* \"contracts/proposalContract.sol\":2946:2958  uint256 pass */\n      0x00\n        /* \"contracts/proposalContract.sol\":2994:2995  1 */\n      0x01\n        /* \"contracts/proposalContract.sol\":2989:2990  2 */\n      0x02\n        /* \"contracts/proposalContract.sol\":2973:2981  proposal */\n      dup6\n        /* \"contracts/proposalContract.sol\":2973:2986  proposal.pass */\n      0x04\n      add\n      sload\n        /* \"contracts/proposalContract.sol\":2973:2990  proposal.pass % 2 */\n      tag_122\n      swap2\n      swap1\n      tag_123\n      jump\t// in\n    tag_122:\n        /* \"contracts/proposalContract.sol\":2973:2995  proposal.pass % 2 == 1 */\n      sub\n        /* \"contracts/proposalContract.sol\":2969:3137  if (proposal.pass % 2 == 1) {... */\n      tag_124\n      jumpi\n        /* \"contracts/proposalContract.sol\":3040:3041  2 */\n      0x02\n        /* \"contracts/proposalContract.sol\":3035:3036  1 */\n      0x01\n        /* \"contracts/proposalContract.sol\":3019:3027  proposal */\n      dup6\n        /* \"contracts/proposalContract.sol\":3019:3032  proposal.pass */\n      0x04\n      add\n      sload\n        /* \"contracts/proposalContract.sol\":3019:3036  proposal.pass + 1 */\n      tag_125\n      swap2\n      swap1\n      tag_46\n      jump\t// in\n    tag_125:\n        /* \"contracts/proposalContract.sol\":3018:3041  (proposal.pass + 1) / 2 */\n      tag_126\n      swap2\n      swap1\n      tag_127\n      jump\t// in\n    tag_126:\n        /* \"contracts/proposalContract.sol\":3011:3041  pass = (proposal.pass + 1) / 2 */\n      swap1\n      pop\n        /* \"contracts/proposalContract.sol\":2969:3137  if (proposal.pass % 2 == 1) {... */\n      jump(tag_128)\n    tag_124:\n        /* \"contracts/proposalContract.sol\":3085:3086  0 */\n      0x00\n        /* \"contracts/proposalContract.sol\":3080:3081  2 */\n      0x02\n        /* \"contracts/proposalContract.sol\":3064:3072  proposal */\n      dup6\n        /* \"contracts/proposalContract.sol\":3064:3077  proposal.pass */\n      0x04\n      add\n      sload\n        /* \"contracts/proposalContract.sol\":3064:3081  proposal.pass % 2 */\n      tag_129\n      swap2\n      swap1\n      tag_123\n      jump\t// in\n    tag_129:\n        /* \"contracts/proposalContract.sol\":3064:3086  proposal.pass % 2 == 0 */\n      sub\n        /* \"contracts/proposalContract.sol\":3060:3137  if (proposal.pass % 2 == 0) {... */\n      tag_130\n      jumpi\n        /* \"contracts/proposalContract.sol\":3125:3126  2 */\n      0x02\n        /* \"contracts/proposalContract.sol\":3109:3117  proposal */\n      dup5\n        /* \"contracts/proposalContract.sol\":3109:3122  proposal.pass */\n      0x04\n      add\n      sload\n        /* \"contracts/proposalContract.sol\":3109:3126  proposal.pass / 2 */\n      tag_131\n      swap2\n      swap1\n      tag_127\n      jump\t// in\n    tag_131:\n        /* \"contracts/proposalContract.sol\":3102:3126  pass = proposal.pass / 2 */\n      swap1\n      pop\n        /* \"contracts/proposalContract.sol\":3060:3137  if (proposal.pass % 2 == 0) {... */\n    tag_130:\n        /* \"contracts/proposalContract.sol\":2969:3137  if (proposal.pass % 2 == 1) {... */\n    tag_128:\n        /* \"contracts/proposalContract.sol\":3170:3174  pass */\n      dup1\n        /* \"contracts/proposalContract.sol\":3161:3167  reject */\n      dup3\n        /* \"contracts/proposalContract.sol\":3161:3174  reject + pass */\n      tag_132\n      swap2\n      swap1\n      tag_46\n      jump\t// in\n    tag_132:\n        /* \"contracts/proposalContract.sol\":3151:3158  approve */\n      dup4\n        /* \"contracts/proposalContract.sol\":3151:3174  approve > reject + pass */\n      gt\n        /* \"contracts/proposalContract.sol\":3147:3230  if (approve > reject + pass) {... */\n      iszero\n      tag_133\n      jumpi\n        /* \"contracts/proposalContract.sol\":3197:3201  true */\n      0x01\n        /* \"contracts/proposalContract.sol\":3190:3201  return true */\n      swap5\n      pop\n      pop\n      pop\n      pop\n      pop\n      jump(tag_121)\n        /* \"contracts/proposalContract.sol\":3147:3230  if (approve > reject + pass) {... */\n    tag_133:\n        /* \"contracts/proposalContract.sol\":3225:3230  false */\n      0x00\n        /* \"contracts/proposalContract.sol\":3218:3230  return false */\n      swap5\n      pop\n      pop\n      pop\n      pop\n      pop\n        /* \"contracts/proposalContract.sol\":2726:3237  function calculateCurrentState() private view returns(bool) {... */\n    tag_121:\n      swap1\n      jump\t// out\n    tag_51:\n      mload(0x40)\n      dup1\n      0x0100\n      add\n      0x40\n      mstore\n      dup1\n      0x60\n      dup2\n      mstore\n      0x20\n      add\n      0x60\n      dup2\n      mstore\n      0x20\n      add\n      0x00\n      dup2\n      mstore\n      0x20\n      add\n      0x00\n      dup2\n      mstore\n      0x20\n      add\n      0x00\n      dup2\n      mstore\n      0x20\n      add\n      0x00\n      dup2\n      mstore\n      0x20\n      add\n      iszero(iszero(0x00))\n      dup2\n      mstore\n      0x20\n      add\n      iszero(iszero(0x00))\n      dup2\n      mstore\n      pop\n      swap1\n      jump\t// out\n    tag_94:\n      dup3\n      dup1\n      sload\n      dup3\n      dup3\n      sstore\n      swap1\n      0x00\n      mstore\n      keccak256(0x00, 0x20)\n      swap1\n      dup2\n      add\n      swap3\n      dup3\n      iszero\n      tag_135\n      jumpi\n      swap2\n      0x20\n      mul\n      dup3\n      add\n    tag_136:\n      dup3\n      dup2\n      gt\n      iszero\n      tag_137\n      jumpi\n      dup3\n      mload\n      dup3\n      exp(0x0100, 0x00)\n      dup2\n      sload\n      dup2\n      0xffffffffffffffffffffffffffffffffffffffff\n      mul\n      not\n      and\n      swap1\n      dup4\n      0xffffffffffffffffffffffffffffffffffffffff\n      and\n      mul\n      or\n      swap1\n      sstore\n      pop\n      swap2\n      0x20\n      add\n      swap2\n      swap1\n      0x01\n      add\n      swap1\n      jump(tag_136)\n    tag_137:\n    tag_135:\n      pop\n      swap1\n      pop\n      tag_138\n      swap2\n      swap1\n      tag_139\n      jump\t// in\n    tag_138:\n      pop\n      swap1\n      jump\t// out\n    tag_139:\n    tag_140:\n      dup1\n      dup3\n      gt\n      iszero\n      tag_141\n      jumpi\n      0x00\n      dup2\n      0x00\n      swap1\n      sstore\n      pop\n      0x01\n      add\n      jump(tag_140)\n    tag_141:\n      pop\n      swap1\n      jump\t// out\n        /* \"#utility.yul\":7:82   */\n    tag_142:\n        /* \"#utility.yul\":40:46   */\n      0x00\n        /* \"#utility.yul\":73:75   */\n      0x40\n        /* \"#utility.yul\":67:76   */\n      mload\n        /* \"#utility.yul\":57:76   */\n      swap1\n      pop\n        /* \"#utility.yul\":7:82   */\n      swap1\n      jump\t// out\n        /* \"#utility.yul\":88:205   */\n    tag_143:\n        /* \"#utility.yul\":197:198   */\n      0x00\n        /* \"#utility.yul\":194:195   */\n      dup1\n        /* \"#utility.yul\":187:199   */\n      revert\n        /* \"#utility.yul\":211:328   */\n    tag_144:\n        /* \"#utility.yul\":320:321   */\n      0x00\n        /* \"#utility.yul\":317:318   */\n      dup1\n        /* \"#utility.yul\":310:322   */\n      revert\n        /* \"#utility.yul\":334:460   */\n    tag_145:\n        /* \"#utility.yul\":371:378   */\n      0x00\n        /* \"#utility.yul\":411:453   */\n      0xffffffffffffffffffffffffffffffffffffffff\n        /* \"#utility.yul\":404:409   */\n      dup3\n        /* \"#utility.yul\":400:454   */\n      and\n        /* \"#utility.yul\":389:454   */\n      swap1\n      pop\n        /* \"#utility.yul\":334:460   */\n      swap2\n      swap1\n      pop\n      jump\t// out\n        /* \"#utility.yul\":466:562   */\n    tag_146:\n        /* \"#utility.yul\":503:510   */\n      0x00\n        /* \"#utility.yul\":532:556   */\n      tag_204\n        /* \"#utility.yul\":550:555   */\n      dup3\n        /* \"#utility.yul\":532:556   */\n      tag_145\n      jump\t// in\n    tag_204:\n        /* \"#utility.yul\":521:556   */\n      swap1\n      pop\n        /* \"#utility.yul\":466:562   */\n      swap2\n      swap1\n      pop\n      jump\t// out\n        /* \"#utility.yul\":568:690   */\n    tag_147:\n        /* \"#utility.yul\":641:665   */\n      tag_206\n        /* \"#utility.yul\":659:664   */\n      dup2\n        /* \"#utility.yul\":641:665   */\n      tag_146\n      jump\t// in\n    tag_206:\n        /* \"#utility.yul\":634:639   */\n      dup2\n        /* \"#utility.yul\":631:666   */\n      eq\n        /* \"#utility.yul\":621:684   */\n      tag_207\n      jumpi\n        /* \"#utility.yul\":680:681   */\n      0x00\n        /* \"#utility.yul\":677:678   */\n      dup1\n        /* \"#utility.yul\":670:682   */\n      revert\n        /* \"#utility.yul\":621:684   */\n    tag_207:\n        /* \"#utility.yul\":568:690   */\n      pop\n      jump\t// out\n        /* \"#utility.yul\":696:835   */\n    tag_148:\n        /* \"#utility.yul\":742:747   */\n      0x00\n        /* \"#utility.yul\":780:786   */\n      dup2\n        /* \"#utility.yul\":767:787   */\n      calldataload\n        /* \"#utility.yul\":758:787   */\n      swap1\n      pop\n        /* \"#utility.yul\":796:829   */\n      tag_209\n        /* \"#utility.yul\":823:828   */\n      dup2\n        /* \"#utility.yul\":796:829   */\n      tag_147\n      jump\t// in\n    tag_209:\n        /* \"#utility.yul\":696:835   */\n      swap3\n      swap2\n      pop\n      pop\n      jump\t// out\n        /* \"#utility.yul\":841:1170   */\n    tag_13:\n        /* \"#utility.yul\":900:906   */\n      0x00\n        /* \"#utility.yul\":949:951   */\n      0x20\n        /* \"#utility.yul\":937:946   */\n      dup3\n        /* \"#utility.yul\":928:935   */\n      dup5\n        /* \"#utility.yul\":924:947   */\n      sub\n        /* \"#utility.yul\":920:952   */\n      slt\n        /* \"#utility.yul\":917:1036   */\n      iszero\n      tag_211\n      jumpi\n        /* \"#utility.yul\":955:1034   */\n      tag_212\n      tag_143\n      jump\t// in\n    tag_212:\n        /* \"#utility.yul\":917:1036   */\n    tag_211:\n        /* \"#utility.yul\":1075:1076   */\n      0x00\n        /* \"#utility.yul\":1100:1153   */\n      tag_213\n        /* \"#utility.yul\":1145:1152   */\n      dup5\n        /* \"#utility.yul\":1136:1142   */\n      dup3\n        /* \"#utility.yul\":1125:1134   */\n      dup6\n        /* \"#utility.yul\":1121:1143   */\n      add\n        /* \"#utility.yul\":1100:1153   */\n      tag_148\n      jump\t// in\n    tag_213:\n        /* \"#utility.yul\":1090:1153   */\n      swap2\n      pop\n        /* \"#utility.yul\":1046:1163   */\n      pop\n        /* \"#utility.yul\":841:1170   */\n      swap3\n      swap2\n      pop\n      pop\n      jump\t// out\n        /* \"#utility.yul\":1176:1293   */\n    tag_149:\n        /* \"#utility.yul\":1285:1286   */\n      0x00\n        /* \"#utility.yul\":1282:1283   */\n      dup1\n        /* \"#utility.yul\":1275:1287   */\n      revert\n        /* \"#utility.yul\":1299:1416   */\n    tag_150:\n        /* \"#utility.yul\":1408:1409   */\n      0x00\n        /* \"#utility.yul\":1405:1406   */\n      dup1\n        /* \"#utility.yul\":1398:1410   */\n      revert\n        /* \"#utility.yul\":1422:1524   */\n    tag_151:\n        /* \"#utility.yul\":1463:1469   */\n      0x00\n        /* \"#utility.yul\":1514:1516   */\n      0x1f\n        /* \"#utility.yul\":1510:1517   */\n      not\n        /* \"#utility.yul\":1505:1507   */\n      0x1f\n        /* \"#utility.yul\":1498:1503   */\n      dup4\n        /* \"#utility.yul\":1494:1508   */\n      add\n        /* \"#utility.yul\":1490:1518   */\n      and\n        /* \"#utility.yul\":1480:1518   */\n      swap1\n      pop\n        /* \"#utility.yul\":1422:1524   */\n      swap2\n      swap1\n      pop\n      jump\t// out\n        /* \"#utility.yul\":1530:1710   */\n    tag_152:\n        /* \"#utility.yul\":1578:1655   */\n      0x4e487b7100000000000000000000000000000000000000000000000000000000\n        /* \"#utility.yul\":1575:1576   */\n      0x00\n        /* \"#utility.yul\":1568:1656   */\n      mstore\n        /* \"#utility.yul\":1675:1679   */\n      0x41\n        /* \"#utility.yul\":1672:1673   */\n      0x04\n        /* \"#utility.yul\":1665:1680   */\n      mstore\n        /* \"#utility.yul\":1699:1703   */\n      0x24\n        /* \"#utility.yul\":1696:1697   */\n      0x00\n        /* \"#utility.yul\":1689:1704   */\n      revert\n        /* \"#utility.yul\":1716:1997   */\n    tag_153:\n        /* \"#utility.yul\":1799:1826   */\n      tag_219\n        /* \"#utility.yul\":1821:1825   */\n      dup3\n        /* \"#utility.yul\":1799:1826   */\n      tag_151\n      jump\t// in\n    tag_219:\n        /* \"#utility.yul\":1791:1797   */\n      dup2\n        /* \"#utility.yul\":1787:1827   */\n      add\n        /* \"#utility.yul\":1929:1935   */\n      dup2\n        /* \"#utility.yul\":1917:1927   */\n      dup2\n        /* \"#utility.yul\":1914:1936   */\n      lt\n        /* \"#utility.yul\":1893:1911   */\n      0xffffffffffffffff\n        /* \"#utility.yul\":1881:1891   */\n      dup3\n        /* \"#utility.yul\":1878:1912   */\n      gt\n        /* \"#utility.yul\":1875:1937   */\n      or\n        /* \"#utility.yul\":1872:1960   */\n      iszero\n      tag_220\n      jumpi\n        /* \"#utility.yul\":1940:1958   */\n      tag_221\n      tag_152\n      jump\t// in\n    tag_221:\n        /* \"#utility.yul\":1872:1960   */\n    tag_220:\n        /* \"#utility.yul\":1980:1990   */\n      dup1\n        /* \"#utility.yul\":1976:1978   */\n      0x40\n        /* \"#utility.yul\":1969:1991   */\n      mstore\n        /* \"#utility.yul\":1759:1997   */\n      pop\n        /* \"#utility.yul\":1716:1997   */\n      pop\n      pop\n      jump\t// out\n        /* \"#utility.yul\":2003:2132   */\n    tag_154:\n        /* \"#utility.yul\":2037:2043   */\n      0x00\n        /* \"#utility.yul\":2064:2084   */\n      tag_223\n      tag_142\n      jump\t// in\n    tag_223:\n        /* \"#utility.yul\":2054:2084   */\n      swap1\n      pop\n        /* \"#utility.yul\":2093:2126   */\n      tag_224\n        /* \"#utility.yul\":2121:2125   */\n      dup3\n        /* \"#utility.yul\":2113:2119   */\n      dup3\n        /* \"#utility.yul\":2093:2126   */\n      tag_153\n      jump\t// in\n    tag_224:\n        /* \"#utility.yul\":2003:2132   */\n      swap2\n      swap1\n      pop\n      jump\t// out\n        /* \"#utility.yul\":2138:2446   */\n    tag_155:\n        /* \"#utility.yul\":2200:2204   */\n      0x00\n        /* \"#utility.yul\":2290:2308   */\n      0xffffffffffffffff\n        /* \"#utility.yul\":2282:2288   */\n      dup3\n        /* \"#utility.yul\":2279:2309   */\n      gt\n        /* \"#utility.yul\":2276:2332   */\n      iszero\n      tag_226\n      jumpi\n        /* \"#utility.yul\":2312:2330   */\n      tag_227\n      tag_152\n      jump\t// in\n    tag_227:\n        /* \"#utility.yul\":2276:2332   */\n    tag_226:\n        /* \"#utility.yul\":2350:2379   */\n      tag_228\n        /* \"#utility.yul\":2372:2378   */\n      dup3\n        /* \"#utility.yul\":2350:2379   */\n      tag_151\n      jump\t// in\n    tag_228:\n        /* \"#utility.yul\":2342:2379   */\n      swap1\n      pop\n        /* \"#utility.yul\":2434:2438   */\n      0x20\n        /* \"#utility.yul\":2428:2432   */\n      dup2\n        /* \"#utility.yul\":2424:2439   */\n      add\n        /* \"#utility.yul\":2416:2439   */\n      swap1\n      pop\n        /* \"#utility.yul\":2138:2446   */\n      swap2\n      swap1\n      pop\n      jump\t// out\n        /* \"#utility.yul\":2452:2598   */\n    tag_156:\n        /* \"#utility.yul\":2549:2555   */\n      dup3\n        /* \"#utility.yul\":2544:2547   */\n      dup2\n        /* \"#utility.yul\":2539:2542   */\n      dup4\n        /* \"#utility.yul\":2526:2556   */\n      calldatacopy\n        /* \"#utility.yul\":2590:2591   */\n      0x00\n        /* \"#utility.yul\":2581:2587   */\n      dup4\n        /* \"#utility.yul\":2576:2579   */\n      dup4\n        /* \"#utility.yul\":2572:2588   */\n      add\n        /* \"#utility.yul\":2565:2592   */\n      mstore\n        /* \"#utility.yul\":2452:2598   */\n      pop\n      pop\n      pop\n      jump\t// out\n        /* \"#utility.yul\":2604:3029   */\n    tag_157:\n        /* \"#utility.yul\":2682:2687   */\n      0x00\n        /* \"#utility.yul\":2707:2773   */\n      tag_231\n        /* \"#utility.yul\":2723:2772   */\n      tag_232\n        /* \"#utility.yul\":2765:2771   */\n      dup5\n        /* \"#utility.yul\":2723:2772   */\n      tag_155\n      jump\t// in\n    tag_232:\n        /* \"#utility.yul\":2707:2773   */\n      tag_154\n      jump\t// in\n    tag_231:\n        /* \"#utility.yul\":2698:2773   */\n      swap1\n      pop\n        /* \"#utility.yul\":2796:2802   */\n      dup3\n        /* \"#utility.yul\":2789:2794   */\n      dup2\n        /* \"#utility.yul\":2782:2803   */\n      mstore\n        /* \"#utility.yul\":2834:2838   */\n      0x20\n        /* \"#utility.yul\":2827:2832   */\n      dup2\n        /* \"#utility.yul\":2823:2839   */\n      add\n        /* \"#utility.yul\":2872:2875   */\n      dup5\n        /* \"#utility.yul\":2863:2869   */\n      dup5\n        /* \"#utility.yul\":2858:2861   */\n      dup5\n        /* \"#utility.yul\":2854:2870   */\n      add\n        /* \"#utility.yul\":2851:2876   */\n      gt\n        /* \"#utility.yul\":2848:2960   */\n      iszero\n      tag_233\n      jumpi\n        /* \"#utility.yul\":2879:2958   */\n      tag_234\n      tag_150\n      jump\t// in\n    tag_234:\n        /* \"#utility.yul\":2848:2960   */\n    tag_233:\n        /* \"#utility.yul\":2969:3023   */\n      tag_235\n        /* \"#utility.yul\":3016:3022   */\n      dup5\n        /* \"#utility.yul\":3011:3014   */\n      dup3\n        /* \"#utility.yul\":3006:3009   */\n      dup6\n        /* \"#utility.yul\":2969:3023   */\n      tag_156\n      jump\t// in\n    tag_235:\n        /* \"#utility.yul\":2688:3029   */\n      pop\n        /* \"#utility.yul\":2604:3029   */\n      swap4\n      swap3\n      pop\n      pop\n      pop\n      jump\t// out\n        /* \"#utility.yul\":3049:3389   */\n    tag_158:\n        /* \"#utility.yul\":3105:3110   */\n      0x00\n        /* \"#utility.yul\":3154:3157   */\n      dup3\n        /* \"#utility.yul\":3147:3151   */\n      0x1f\n        /* \"#utility.yul\":3139:3145   */\n      dup4\n        /* \"#utility.yul\":3135:3152   */\n      add\n        /* \"#utility.yul\":3131:3158   */\n      slt\n        /* \"#utility.yul\":3121:3243   */\n      tag_237\n      jumpi\n        /* \"#utility.yul\":3162:3241   */\n      tag_238\n      tag_149\n      jump\t// in\n    tag_238:\n        /* \"#utility.yul\":3121:3243   */\n    tag_237:\n        /* \"#utility.yul\":3279:3285   */\n      dup2\n        /* \"#utility.yul\":3266:3286   */\n      calldataload\n        /* \"#utility.yul\":3304:3383   */\n      tag_239\n        /* \"#utility.yul\":3379:3382   */\n      dup5\n        /* \"#utility.yul\":3371:3377   */\n      dup3\n        /* \"#utility.yul\":3364:3368   */\n      0x20\n        /* \"#utility.yul\":3356:3362   */\n      dup7\n        /* \"#utility.yul\":3352:3369   */\n      add\n        /* \"#utility.yul\":3304:3383   */\n      tag_157\n      jump\t// in\n    tag_239:\n        /* \"#utility.yul\":3295:3383   */\n      swap2\n      pop\n        /* \"#utility.yul\":3111:3389   */\n      pop\n        /* \"#utility.yul\":3049:3389   */\n      swap3\n      swap2\n      pop\n      pop\n      jump\t// out\n        /* \"#utility.yul\":3395:3512   */\n    tag_159:\n        /* \"#utility.yul\":3504:3505   */\n      0x00\n        /* \"#utility.yul\":3501:3502   */\n      dup1\n        /* \"#utility.yul\":3494:3506   */\n      revert\n        /* \"#utility.yul\":3518:3635   */\n    tag_160:\n        /* \"#utility.yul\":3627:3628   */\n      0x00\n        /* \"#utility.yul\":3624:3625   */\n      dup1\n        /* \"#utility.yul\":3617:3629   */\n      revert\n        /* \"#utility.yul\":3655:4208   */\n    tag_161:\n        /* \"#utility.yul\":3713:3721   */\n      0x00\n        /* \"#utility.yul\":3723:3729   */\n      dup1\n        /* \"#utility.yul\":3773:3776   */\n      dup4\n        /* \"#utility.yul\":3766:3770   */\n      0x1f\n        /* \"#utility.yul\":3758:3764   */\n      dup5\n        /* \"#utility.yul\":3754:3771   */\n      add\n        /* \"#utility.yul\":3750:3777   */\n      slt\n        /* \"#utility.yul\":3740:3862   */\n      tag_243\n      jumpi\n        /* \"#utility.yul\":3781:3860   */\n      tag_244\n      tag_149\n      jump\t// in\n    tag_244:\n        /* \"#utility.yul\":3740:3862   */\n    tag_243:\n        /* \"#utility.yul\":3894:3900   */\n      dup3\n        /* \"#utility.yul\":3881:3901   */\n      calldataload\n        /* \"#utility.yul\":3871:3901   */\n      swap1\n      pop\n        /* \"#utility.yul\":3924:3942   */\n      0xffffffffffffffff\n        /* \"#utility.yul\":3916:3922   */\n      dup2\n        /* \"#utility.yul\":3913:3943   */\n      gt\n        /* \"#utility.yul\":3910:4027   */\n      iszero\n      tag_245\n      jumpi\n        /* \"#utility.yul\":3946:4025   */\n      tag_246\n      tag_159\n      jump\t// in\n    tag_246:\n        /* \"#utility.yul\":3910:4027   */\n    tag_245:\n        /* \"#utility.yul\":4060:4064   */\n      0x20\n        /* \"#utility.yul\":4052:4058   */\n      dup4\n        /* \"#utility.yul\":4048:4065   */\n      add\n        /* \"#utility.yul\":4036:4065   */\n      swap2\n      pop\n        /* \"#utility.yul\":4114:4117   */\n      dup4\n        /* \"#utility.yul\":4106:4110   */\n      0x01\n        /* \"#utility.yul\":4098:4104   */\n      dup3\n        /* \"#utility.yul\":4094:4111   */\n      mul\n        /* \"#utility.yul\":4084:4092   */\n      dup4\n        /* \"#utility.yul\":4080:4112   */\n      add\n        /* \"#utility.yul\":4077:4118   */\n      gt\n        /* \"#utility.yul\":4074:4202   */\n      iszero\n      tag_247\n      jumpi\n        /* \"#utility.yul\":4121:4200   */\n      tag_248\n      tag_160\n      jump\t// in\n    tag_248:\n        /* \"#utility.yul\":4074:4202   */\n    tag_247:\n        /* \"#utility.yul\":3655:4208   */\n      swap3\n      pop\n      swap3\n      swap1\n      pop\n      jump\t// out\n        /* \"#utility.yul\":4214:4291   */\n    tag_162:\n        /* \"#utility.yul\":4251:4258   */\n      0x00\n        /* \"#utility.yul\":4280:4285   */\n      dup2\n        /* \"#utility.yul\":4269:4285   */\n      swap1\n      pop\n        /* \"#utility.yul\":4214:4291   */\n      swap2\n      swap1\n      pop\n      jump\t// out\n        /* \"#utility.yul\":4297:4419   */\n    tag_163:\n        /* \"#utility.yul\":4370:4394   */\n      tag_251\n        /* \"#utility.yul\":4388:4393   */\n      dup2\n        /* \"#utility.yul\":4370:4394   */\n      tag_162\n      jump\t// in\n    tag_251:\n        /* \"#utility.yul\":4363:4368   */\n      dup2\n        /* \"#utility.yul\":4360:4395   */\n      eq\n        /* \"#utility.yul\":4350:4413   */\n      tag_252\n      jumpi\n        /* \"#utility.yul\":4409:4410   */\n      0x00\n        /* \"#utility.yul\":4406:4407   */\n      dup1\n        /* \"#utility.yul\":4399:4411   */\n      revert\n        /* \"#utility.yul\":4350:4413   */\n    tag_252:\n        /* \"#utility.yul\":4297:4419   */\n      pop\n      jump\t// out\n        /* \"#utility.yul\":4425:4564   */\n    tag_164:\n        /* \"#utility.yul\":4471:4476   */\n      0x00\n        /* \"#utility.yul\":4509:4515   */\n      dup2\n        /* \"#utility.yul\":4496:4516   */\n      calldataload\n        /* \"#utility.yul\":4487:4516   */\n      swap1\n      pop\n        /* \"#utility.yul\":4525:4558   */\n      tag_254\n        /* \"#utility.yul\":4552:4557   */\n      dup2\n        /* \"#utility.yul\":4525:4558   */\n      tag_163\n      jump\t// in\n    tag_254:\n        /* \"#utility.yul\":4425:4564   */\n      swap3\n      swap2\n      pop\n      pop\n      jump\t// out\n        /* \"#utility.yul\":4570:5569   */\n    tag_17:\n        /* \"#utility.yul\":4669:4675   */\n      0x00\n        /* \"#utility.yul\":4677:4683   */\n      dup1\n        /* \"#utility.yul\":4685:4691   */\n      0x00\n        /* \"#utility.yul\":4693:4699   */\n      dup1\n        /* \"#utility.yul\":4742:4744   */\n      0x60\n        /* \"#utility.yul\":4730:4739   */\n      dup6\n        /* \"#utility.yul\":4721:4728   */\n      dup8\n        /* \"#utility.yul\":4717:4740   */\n      sub\n        /* \"#utility.yul\":4713:4745   */\n      slt\n        /* \"#utility.yul\":4710:4829   */\n      iszero\n      tag_256\n      jumpi\n        /* \"#utility.yul\":4748:4827   */\n      tag_257\n      tag_143\n      jump\t// in\n    tag_257:\n        /* \"#utility.yul\":4710:4829   */\n    tag_256:\n        /* \"#utility.yul\":4896:4897   */\n      0x00\n        /* \"#utility.yul\":4885:4894   */\n      dup6\n        /* \"#utility.yul\":4881:4898   */\n      add\n        /* \"#utility.yul\":4868:4899   */\n      calldataload\n        /* \"#utility.yul\":4926:4944   */\n      0xffffffffffffffff\n        /* \"#utility.yul\":4918:4924   */\n      dup2\n        /* \"#utility.yul\":4915:4945   */\n      gt\n        /* \"#utility.yul\":4912:5029   */\n      iszero\n      tag_258\n      jumpi\n        /* \"#utility.yul\":4948:5027   */\n      tag_259\n      tag_144\n      jump\t// in\n    tag_259:\n        /* \"#utility.yul\":4912:5029   */\n    tag_258:\n        /* \"#utility.yul\":5053:5116   */\n      tag_260\n        /* \"#utility.yul\":5108:5115   */\n      dup8\n        /* \"#utility.yul\":5099:5105   */\n      dup3\n        /* \"#utility.yul\":5088:5097   */\n      dup9\n        /* \"#utility.yul\":5084:5106   */\n      add\n        /* \"#utility.yul\":5053:5116   */\n      tag_158\n      jump\t// in\n    tag_260:\n        /* \"#utility.yul\":5043:5116   */\n      swap5\n      pop\n        /* \"#utility.yul\":4839:5126   */\n      pop\n        /* \"#utility.yul\":5193:5195   */\n      0x20\n        /* \"#utility.yul\":5182:5191   */\n      dup6\n        /* \"#utility.yul\":5178:5196   */\n      add\n        /* \"#utility.yul\":5165:5197   */\n      calldataload\n        /* \"#utility.yul\":5224:5242   */\n      0xffffffffffffffff\n        /* \"#utility.yul\":5216:5222   */\n      dup2\n        /* \"#utility.yul\":5213:5243   */\n      gt\n        /* \"#utility.yul\":5210:5327   */\n      iszero\n      tag_261\n      jumpi\n        /* \"#utility.yul\":5246:5325   */\n      tag_262\n      tag_144\n      jump\t// in\n    tag_262:\n        /* \"#utility.yul\":5210:5327   */\n    tag_261:\n        /* \"#utility.yul\":5359:5424   */\n      tag_263\n        /* \"#utility.yul\":5416:5423   */\n      dup8\n        /* \"#utility.yul\":5407:5413   */\n      dup3\n        /* \"#utility.yul\":5396:5405   */\n      dup9\n        /* \"#utility.yul\":5392:5414   */\n      add\n        /* \"#utility.yul\":5359:5424   */\n      tag_161\n      jump\t// in\n    tag_263:\n        /* \"#utility.yul\":5341:5424   */\n      swap4\n      pop\n      swap4\n      pop\n        /* \"#utility.yul\":5136:5434   */\n      pop\n        /* \"#utility.yul\":5473:5475   */\n      0x40\n        /* \"#utility.yul\":5499:5552   */\n      tag_264\n        /* \"#utility.yul\":5544:5551   */\n      dup8\n        /* \"#utility.yul\":5535:5541   */\n      dup3\n        /* \"#utility.yul\":5524:5533   */\n      dup9\n        /* \"#utility.yul\":5520:5542   */\n      add\n        /* \"#utility.yul\":5499:5552   */\n      tag_164\n      jump\t// in\n    tag_264:\n        /* \"#utility.yul\":5489:5552   */\n      swap2\n      pop\n        /* \"#utility.yul\":5444:5562   */\n      pop\n        /* \"#utility.yul\":4570:5569   */\n      swap3\n      swap6\n      swap2\n      swap5\n      pop\n      swap3\n      pop\n      jump\t// out\n        /* \"#utility.yul\":5575:5674   */\n    tag_165:\n        /* \"#utility.yul\":5627:5633   */\n      0x00\n        /* \"#utility.yul\":5661:5666   */\n      dup2\n        /* \"#utility.yul\":5655:5667   */\n      mload\n        /* \"#utility.yul\":5645:5667   */\n      swap1\n      pop\n        /* \"#utility.yul\":5575:5674   */\n      swap2\n      swap1\n      pop\n      jump\t// out\n        /* \"#utility.yul\":5680:5839   */\n    tag_166:\n        /* \"#utility.yul\":5754:5765   */\n      0x00\n        /* \"#utility.yul\":5788:5794   */\n      dup3\n        /* \"#utility.yul\":5783:5786   */\n      dup3\n        /* \"#utility.yul\":5776:5795   */\n      mstore\n        /* \"#utility.yul\":5828:5832   */\n      0x20\n        /* \"#utility.yul\":5823:5826   */\n      dup3\n        /* \"#utility.yul\":5819:5833   */\n      add\n        /* \"#utility.yul\":5804:5833   */\n      swap1\n      pop\n        /* \"#utility.yul\":5680:5839   */\n      swap3\n      swap2\n      pop\n      pop\n      jump\t// out\n        /* \"#utility.yul\":5845:6091   */\n    tag_167:\n        /* \"#utility.yul\":5926:5927   */\n      0x00\n        /* \"#utility.yul\":5936:6049   */\n    tag_268:\n        /* \"#utility.yul\":5950:5956   */\n      dup4\n        /* \"#utility.yul\":5947:5948   */\n      dup2\n        /* \"#utility.yul\":5944:5957   */\n      lt\n        /* \"#utility.yul\":5936:6049   */\n      iszero\n      tag_270\n      jumpi\n        /* \"#utility.yul\":6035:6036   */\n      dup1\n        /* \"#utility.yul\":6030:6033   */\n      dup3\n        /* \"#utility.yul\":6026:6037   */\n      add\n        /* \"#utility.yul\":6020:6038   */\n      mload\n        /* \"#utility.yul\":6016:6017   */\n      dup2\n        /* \"#utility.yul\":6011:6014   */\n      dup5\n        /* \"#utility.yul\":6007:6018   */\n      add\n        /* \"#utility.yul\":6000:6039   */\n      mstore\n        /* \"#utility.yul\":5972:5974   */\n      0x20\n        /* \"#utility.yul\":5969:5970   */\n      dup2\n        /* \"#utility.yul\":5965:5975   */\n      add\n        /* \"#utility.yul\":5960:5975   */\n      swap1\n      pop\n        /* \"#utility.yul\":5936:6049   */\n      jump(tag_268)\n    tag_270:\n        /* \"#utility.yul\":6083:6084   */\n      0x00\n        /* \"#utility.yul\":6074:6080   */\n      dup5\n        /* \"#utility.yul\":6069:6072   */\n      dup5\n        /* \"#utility.yul\":6065:6081   */\n      add\n        /* \"#utility.yul\":6058:6085   */\n      mstore\n        /* \"#utility.yul\":5907:6091   */\n      pop\n        /* \"#utility.yul\":5845:6091   */\n      pop\n      pop\n      pop\n      jump\t// out\n        /* \"#utility.yul\":6097:6454   */\n    tag_168:\n        /* \"#utility.yul\":6175:6178   */\n      0x00\n        /* \"#utility.yul\":6203:6242   */\n      tag_272\n        /* \"#utility.yul\":6236:6241   */\n      dup3\n        /* \"#utility.yul\":6203:6242   */\n      tag_165\n      jump\t// in\n    tag_272:\n        /* \"#utility.yul\":6258:6319   */\n      tag_273\n        /* \"#utility.yul\":6312:6318   */\n      dup2\n        /* \"#utility.yul\":6307:6310   */\n      dup6\n        /* \"#utility.yul\":6258:6319   */\n      tag_166\n      jump\t// in\n    tag_273:\n        /* \"#utility.yul\":6251:6319   */\n      swap4\n      pop\n        /* \"#utility.yul\":6328:6393   */\n      tag_274\n        /* \"#utility.yul\":6386:6392   */\n      dup2\n        /* \"#utility.yul\":6381:6384   */\n      dup6\n        /* \"#utility.yul\":6374:6378   */\n      0x20\n        /* \"#utility.yul\":6367:6372   */\n      dup7\n        /* \"#utility.yul\":6363:6379   */\n      add\n        /* \"#utility.yul\":6328:6393   */\n      tag_167\n      jump\t// in\n    tag_274:\n        /* \"#utility.yul\":6418:6447   */\n      tag_275\n        /* \"#utility.yul\":6440:6446   */\n      dup2\n        /* \"#utility.yul\":6418:6447   */\n      tag_151\n      jump\t// in\n    tag_275:\n        /* \"#utility.yul\":6413:6416   */\n      dup5\n        /* \"#utility.yul\":6409:6448   */\n      add\n        /* \"#utility.yul\":6402:6448   */\n      swap2\n      pop\n        /* \"#utility.yul\":6179:6454   */\n      pop\n        /* \"#utility.yul\":6097:6454   */\n      swap3\n      swap2\n      pop\n      pop\n      jump\t// out\n        /* \"#utility.yul\":6460:6568   */\n    tag_169:\n        /* \"#utility.yul\":6537:6561   */\n      tag_277\n        /* \"#utility.yul\":6555:6560   */\n      dup2\n        /* \"#utility.yul\":6537:6561   */\n      tag_162\n      jump\t// in\n    tag_277:\n        /* \"#utility.yul\":6532:6535   */\n      dup3\n        /* \"#utility.yul\":6525:6562   */\n      mstore\n        /* \"#utility.yul\":6460:6568   */\n      pop\n      pop\n      jump\t// out\n        /* \"#utility.yul\":6574:6664   */\n    tag_170:\n        /* \"#utility.yul\":6608:6615   */\n      0x00\n        /* \"#utility.yul\":6651:6656   */\n      dup2\n        /* \"#utility.yul\":6644:6657   */\n      iszero\n        /* \"#utility.yul\":6637:6658   */\n      iszero\n        /* \"#utility.yul\":6626:6658   */\n      swap1\n      pop\n        /* \"#utility.yul\":6574:6664   */\n      swap2\n      swap1\n      pop\n      jump\t// out\n        /* \"#utility.yul\":6670:6769   */\n    tag_171:\n        /* \"#utility.yul\":6741:6762   */\n      tag_280\n        /* \"#utility.yul\":6756:6761   */\n      dup2\n        /* \"#utility.yul\":6741:6762   */\n      tag_170\n      jump\t// in\n    tag_280:\n        /* \"#utility.yul\":6736:6739   */\n      dup3\n        /* \"#utility.yul\":6729:6763   */\n      mstore\n        /* \"#utility.yul\":6670:6769   */\n      pop\n      pop\n      jump\t// out\n        /* \"#utility.yul\":6851:8600   */\n    tag_172:\n        /* \"#utility.yul\":6968:6971   */\n      0x00\n        /* \"#utility.yul\":7004:7010   */\n      0x0100\n        /* \"#utility.yul\":6999:7002   */\n      dup4\n        /* \"#utility.yul\":6995:7011   */\n      add\n        /* \"#utility.yul\":7094:7098   */\n      0x00\n        /* \"#utility.yul\":7087:7092   */\n      dup4\n        /* \"#utility.yul\":7083:7099   */\n      add\n        /* \"#utility.yul\":7077:7100   */\n      mload\n        /* \"#utility.yul\":7147:7150   */\n      dup5\n        /* \"#utility.yul\":7141:7145   */\n      dup3\n        /* \"#utility.yul\":7137:7151   */\n      sub\n        /* \"#utility.yul\":7130:7134   */\n      0x00\n        /* \"#utility.yul\":7125:7128   */\n      dup7\n        /* \"#utility.yul\":7121:7135   */\n      add\n        /* \"#utility.yul\":7114:7152   */\n      mstore\n        /* \"#utility.yul\":7173:7246   */\n      tag_282\n        /* \"#utility.yul\":7241:7245   */\n      dup3\n        /* \"#utility.yul\":7227:7239   */\n      dup3\n        /* \"#utility.yul\":7173:7246   */\n      tag_168\n      jump\t// in\n    tag_282:\n        /* \"#utility.yul\":7165:7246   */\n      swap2\n      pop\n        /* \"#utility.yul\":7021:7257   */\n      pop\n        /* \"#utility.yul\":7346:7350   */\n      0x20\n        /* \"#utility.yul\":7339:7344   */\n      dup4\n        /* \"#utility.yul\":7335:7351   */\n      add\n        /* \"#utility.yul\":7329:7352   */\n      mload\n        /* \"#utility.yul\":7399:7402   */\n      dup5\n        /* \"#utility.yul\":7393:7397   */\n      dup3\n        /* \"#utility.yul\":7389:7403   */\n      sub\n        /* \"#utility.yul\":7382:7386   */\n      0x20\n        /* \"#utility.yul\":7377:7380   */\n      dup7\n        /* \"#utility.yul\":7373:7387   */\n      add\n        /* \"#utility.yul\":7366:7404   */\n      mstore\n        /* \"#utility.yul\":7425:7498   */\n      tag_283\n        /* \"#utility.yul\":7493:7497   */\n      dup3\n        /* \"#utility.yul\":7479:7491   */\n      dup3\n        /* \"#utility.yul\":7425:7498   */\n      tag_168\n      jump\t// in\n    tag_283:\n        /* \"#utility.yul\":7417:7498   */\n      swap2\n      pop\n        /* \"#utility.yul\":7267:7509   */\n      pop\n        /* \"#utility.yul\":7594:7598   */\n      0x40\n        /* \"#utility.yul\":7587:7592   */\n      dup4\n        /* \"#utility.yul\":7583:7599   */\n      add\n        /* \"#utility.yul\":7577:7600   */\n      mload\n        /* \"#utility.yul\":7613:7676   */\n      tag_284\n        /* \"#utility.yul\":7670:7674   */\n      0x40\n        /* \"#utility.yul\":7665:7668   */\n      dup7\n        /* \"#utility.yul\":7661:7675   */\n      add\n        /* \"#utility.yul\":7647:7659   */\n      dup3\n        /* \"#utility.yul\":7613:7676   */\n      tag_169\n      jump\t// in\n    tag_284:\n        /* \"#utility.yul\":7519:7686   */\n      pop\n        /* \"#utility.yul\":7770:7774   */\n      0x60\n        /* \"#utility.yul\":7763:7768   */\n      dup4\n        /* \"#utility.yul\":7759:7775   */\n      add\n        /* \"#utility.yul\":7753:7776   */\n      mload\n        /* \"#utility.yul\":7789:7852   */\n      tag_285\n        /* \"#utility.yul\":7846:7850   */\n      0x60\n        /* \"#utility.yul\":7841:7844   */\n      dup7\n        /* \"#utility.yul\":7837:7851   */\n      add\n        /* \"#utility.yul\":7823:7835   */\n      dup3\n        /* \"#utility.yul\":7789:7852   */\n      tag_169\n      jump\t// in\n    tag_285:\n        /* \"#utility.yul\":7696:7862   */\n      pop\n        /* \"#utility.yul\":7944:7948   */\n      0x80\n        /* \"#utility.yul\":7937:7942   */\n      dup4\n        /* \"#utility.yul\":7933:7949   */\n      add\n        /* \"#utility.yul\":7927:7950   */\n      mload\n        /* \"#utility.yul\":7963:8026   */\n      tag_286\n        /* \"#utility.yul\":8020:8024   */\n      0x80\n        /* \"#utility.yul\":8015:8018   */\n      dup7\n        /* \"#utility.yul\":8011:8025   */\n      add\n        /* \"#utility.yul\":7997:8009   */\n      dup3\n        /* \"#utility.yul\":7963:8026   */\n      tag_169\n      jump\t// in\n    tag_286:\n        /* \"#utility.yul\":7872:8036   */\n      pop\n        /* \"#utility.yul\":8131:8135   */\n      0xa0\n        /* \"#utility.yul\":8124:8129   */\n      dup4\n        /* \"#utility.yul\":8120:8136   */\n      add\n        /* \"#utility.yul\":8114:8137   */\n      mload\n        /* \"#utility.yul\":8150:8213   */\n      tag_287\n        /* \"#utility.yul\":8207:8211   */\n      0xa0\n        /* \"#utility.yul\":8202:8205   */\n      dup7\n        /* \"#utility.yul\":8198:8212   */\n      add\n        /* \"#utility.yul\":8184:8196   */\n      dup3\n        /* \"#utility.yul\":8150:8213   */\n      tag_169\n      jump\t// in\n    tag_287:\n        /* \"#utility.yul\":8046:8223   */\n      pop\n        /* \"#utility.yul\":8314:8318   */\n      0xc0\n        /* \"#utility.yul\":8307:8312   */\n      dup4\n        /* \"#utility.yul\":8303:8319   */\n      add\n        /* \"#utility.yul\":8297:8320   */\n      mload\n        /* \"#utility.yul\":8333:8390   */\n      tag_288\n        /* \"#utility.yul\":8384:8388   */\n      0xc0\n        /* \"#utility.yul\":8379:8382   */\n      dup7\n        /* \"#utility.yul\":8375:8389   */\n      add\n        /* \"#utility.yul\":8361:8373   */\n      dup3\n        /* \"#utility.yul\":8333:8390   */\n      tag_171\n      jump\t// in\n    tag_288:\n        /* \"#utility.yul\":8233:8400   */\n      pop\n        /* \"#utility.yul\":8487:8491   */\n      0xe0\n        /* \"#utility.yul\":8480:8485   */\n      dup4\n        /* \"#utility.yul\":8476:8492   */\n      add\n        /* \"#utility.yul\":8470:8493   */\n      mload\n        /* \"#utility.yul\":8506:8563   */\n      tag_289\n        /* \"#utility.yul\":8557:8561   */\n      0xe0\n        /* \"#utility.yul\":8552:8555   */\n      dup7\n        /* \"#utility.yul\":8548:8562   */\n      add\n        /* \"#utility.yul\":8534:8546   */\n      dup3\n        /* \"#utility.yul\":8506:8563   */\n      tag_171\n      jump\t// in\n    tag_289:\n        /* \"#utility.yul\":8410:8573   */\n      pop\n        /* \"#utility.yul\":8590:8594   */\n      dup1\n        /* \"#utility.yul\":8583:8594   */\n      swap2\n      pop\n        /* \"#utility.yul\":6973:8600   */\n      pop\n        /* \"#utility.yul\":6851:8600   */\n      swap3\n      swap2\n      pop\n      pop\n      jump\t// out\n        /* \"#utility.yul\":8606:8975   */\n    tag_22:\n        /* \"#utility.yul\":8747:8751   */\n      0x00\n        /* \"#utility.yul\":8785:8787   */\n      0x20\n        /* \"#utility.yul\":8774:8783   */\n      dup3\n        /* \"#utility.yul\":8770:8788   */\n      add\n        /* \"#utility.yul\":8762:8788   */\n      swap1\n      pop\n        /* \"#utility.yul\":8834:8843   */\n      dup2\n        /* \"#utility.yul\":8828:8832   */\n      dup2\n        /* \"#utility.yul\":8824:8844   */\n      sub\n        /* \"#utility.yul\":8820:8821   */\n      0x00\n        /* \"#utility.yul\":8809:8818   */\n      dup4\n        /* \"#utility.yul\":8805:8822   */\n      add\n        /* \"#utility.yul\":8798:8845   */\n      mstore\n        /* \"#utility.yul\":8862:8968   */\n      tag_291\n        /* \"#utility.yul\":8963:8967   */\n      dup2\n        /* \"#utility.yul\":8954:8960   */\n      dup5\n        /* \"#utility.yul\":8862:8968   */\n      tag_172\n      jump\t// in\n    tag_291:\n        /* \"#utility.yul\":8854:8968   */\n      swap1\n      pop\n        /* \"#utility.yul\":8606:8975   */\n      swap3\n      swap2\n      pop\n      pop\n      jump\t// out\n        /* \"#utility.yul\":8981:9067   */\n    tag_173:\n        /* \"#utility.yul\":9016:9023   */\n      0x00\n        /* \"#utility.yul\":9056:9060   */\n      0xff\n        /* \"#utility.yul\":9049:9054   */\n      dup3\n        /* \"#utility.yul\":9045:9061   */\n      and\n        /* \"#utility.yul\":9034:9061   */\n      swap1\n      pop\n        /* \"#utility.yul\":8981:9067   */\n      swap2\n      swap1\n      pop\n      jump\t// out\n        /* \"#utility.yul\":9073:9191   */\n    tag_174:\n        /* \"#utility.yul\":9144:9166   */\n      tag_294\n        /* \"#utility.yul\":9160:9165   */\n      dup2\n        /* \"#utility.yul\":9144:9166   */\n      tag_173\n      jump\t// in\n    tag_294:\n        /* \"#utility.yul\":9137:9142   */\n      dup2\n        /* \"#utility.yul\":9134:9167   */\n      eq\n        /* \"#utility.yul\":9124:9185   */\n      tag_295\n      jumpi\n        /* \"#utility.yul\":9181:9182   */\n      0x00\n        /* \"#utility.yul\":9178:9179   */\n      dup1\n        /* \"#utility.yul\":9171:9183   */\n      revert\n        /* \"#utility.yul\":9124:9185   */\n    tag_295:\n        /* \"#utility.yul\":9073:9191   */\n      pop\n      jump\t// out\n        /* \"#utility.yul\":9197:9332   */\n    tag_175:\n        /* \"#utility.yul\":9241:9246   */\n      0x00\n        /* \"#utility.yul\":9279:9285   */\n      dup2\n        /* \"#utility.yul\":9266:9286   */\n      calldataload\n        /* \"#utility.yul\":9257:9286   */\n      swap1\n      pop\n        /* \"#utility.yul\":9295:9326   */\n      tag_297\n        /* \"#utility.yul\":9320:9325   */\n      dup2\n        /* \"#utility.yul\":9295:9326   */\n      tag_174\n      jump\t// in\n    tag_297:\n        /* \"#utility.yul\":9197:9332   */\n      swap3\n      swap2\n      pop\n      pop\n      jump\t// out\n        /* \"#utility.yul\":9338:9663   */\n    tag_25:\n        /* \"#utility.yul\":9395:9401   */\n      0x00\n        /* \"#utility.yul\":9444:9446   */\n      0x20\n        /* \"#utility.yul\":9432:9441   */\n      dup3\n        /* \"#utility.yul\":9423:9430   */\n      dup5\n        /* \"#utility.yul\":9419:9442   */\n      sub\n        /* \"#utility.yul\":9415:9447   */\n      slt\n        /* \"#utility.yul\":9412:9531   */\n      iszero\n      tag_299\n      jumpi\n        /* \"#utility.yul\":9450:9529   */\n      tag_300\n      tag_143\n      jump\t// in\n    tag_300:\n        /* \"#utility.yul\":9412:9531   */\n    tag_299:\n        /* \"#utility.yul\":9570:9571   */\n      0x00\n        /* \"#utility.yul\":9595:9646   */\n      tag_301\n        /* \"#utility.yul\":9638:9645   */\n      dup5\n        /* \"#utility.yul\":9629:9635   */\n      dup3\n        /* \"#utility.yul\":9618:9627   */\n      dup6\n        /* \"#utility.yul\":9614:9636   */\n      add\n        /* \"#utility.yul\":9595:9646   */\n      tag_175\n      jump\t// in\n    tag_301:\n        /* \"#utility.yul\":9585:9646   */\n      swap2\n      pop\n        /* \"#utility.yul\":9541:9656   */\n      pop\n        /* \"#utility.yul\":9338:9663   */\n      swap3\n      swap2\n      pop\n      pop\n      jump\t// out\n        /* \"#utility.yul\":9669:9998   */\n    tag_29:\n        /* \"#utility.yul\":9728:9734   */\n      0x00\n        /* \"#utility.yul\":9777:9779   */\n      0x20\n        /* \"#utility.yul\":9765:9774   */\n      dup3\n        /* \"#utility.yul\":9756:9763   */\n      dup5\n        /* \"#utility.yul\":9752:9775   */\n      sub\n        /* \"#utility.yul\":9748:9780   */\n      slt\n        /* \"#utility.yul\":9745:9864   */\n      iszero\n      tag_303\n      jumpi\n        /* \"#utility.yul\":9783:9862   */\n      tag_304\n      tag_143\n      jump\t// in\n    tag_304:\n        /* \"#utility.yul\":9745:9864   */\n    tag_303:\n        /* \"#utility.yul\":9903:9904   */\n      0x00\n        /* \"#utility.yul\":9928:9981   */\n      tag_305\n        /* \"#utility.yul\":9973:9980   */\n      dup5\n        /* \"#utility.yul\":9964:9970   */\n      dup3\n        /* \"#utility.yul\":9953:9962   */\n      dup6\n        /* \"#utility.yul\":9949:9971   */\n      add\n        /* \"#utility.yul\":9928:9981   */\n      tag_164\n      jump\t// in\n    tag_305:\n        /* \"#utility.yul\":9918:9981   */\n      swap2\n      pop\n        /* \"#utility.yul\":9874:9991   */\n      pop\n        /* \"#utility.yul\":9669:9998   */\n      swap3\n      swap2\n      pop\n      pop\n      jump\t// out\n        /* \"#utility.yul\":10004:10113   */\n    tag_176:\n        /* \"#utility.yul\":10085:10106   */\n      tag_307\n        /* \"#utility.yul\":10100:10105   */\n      dup2\n        /* \"#utility.yul\":10085:10106   */\n      tag_170\n      jump\t// in\n    tag_307:\n        /* \"#utility.yul\":10080:10083   */\n      dup3\n        /* \"#utility.yul\":10073:10107   */\n      mstore\n        /* \"#utility.yul\":10004:10113   */\n      pop\n      pop\n      jump\t// out\n        /* \"#utility.yul\":10119:10329   */\n    tag_36:\n        /* \"#utility.yul\":10206:10210   */\n      0x00\n        /* \"#utility.yul\":10244:10246   */\n      0x20\n        /* \"#utility.yul\":10233:10242   */\n      dup3\n        /* \"#utility.yul\":10229:10247   */\n      add\n        /* \"#utility.yul\":10221:10247   */\n      swap1\n      pop\n        /* \"#utility.yul\":10257:10322   */\n      tag_309\n        /* \"#utility.yul\":10319:10320   */\n      0x00\n        /* \"#utility.yul\":10308:10317   */\n      dup4\n        /* \"#utility.yul\":10304:10321   */\n      add\n        /* \"#utility.yul\":10295:10301   */\n      dup5\n        /* \"#utility.yul\":10257:10322   */\n      tag_176\n      jump\t// in\n    tag_309:\n        /* \"#utility.yul\":10119:10329   */\n      swap3\n      swap2\n      pop\n      pop\n      jump\t// out\n        /* \"#utility.yul\":10335:10515   */\n    tag_177:\n        /* \"#utility.yul\":10383:10460   */\n      0x4e487b7100000000000000000000000000000000000000000000000000000000\n        /* \"#utility.yul\":10380:10381   */\n      0x00\n        /* \"#utility.yul\":10373:10461   */\n      mstore\n        /* \"#utility.yul\":10480:10484   */\n      0x11\n        /* \"#utility.yul\":10477:10478   */\n      0x04\n        /* \"#utility.yul\":10470:10485   */\n      mstore\n        /* \"#utility.yul\":10504:10508   */\n      0x24\n        /* \"#utility.yul\":10501:10502   */\n      0x00\n        /* \"#utility.yul\":10494:10509   */\n      revert\n        /* \"#utility.yul\":10521:10712   */\n    tag_46:\n        /* \"#utility.yul\":10561:10564   */\n      0x00\n        /* \"#utility.yul\":10580:10600   */\n      tag_312\n        /* \"#utility.yul\":10598:10599   */\n      dup3\n        /* \"#utility.yul\":10580:10600   */\n      tag_162\n      jump\t// in\n    tag_312:\n        /* \"#utility.yul\":10575:10600   */\n      swap2\n      pop\n        /* \"#utility.yul\":10614:10634   */\n      tag_313\n        /* \"#utility.yul\":10632:10633   */\n      dup4\n        /* \"#utility.yul\":10614:10634   */\n      tag_162\n      jump\t// in\n    tag_313:\n        /* \"#utility.yul\":10609:10634   */\n      swap3\n      pop\n        /* \"#utility.yul\":10657:10658   */\n      dup3\n        /* \"#utility.yul\":10654:10655   */\n      dup3\n        /* \"#utility.yul\":10650:10659   */\n      add\n        /* \"#utility.yul\":10643:10659   */\n      swap1\n      pop\n        /* \"#utility.yul\":10678:10681   */\n      dup1\n        /* \"#utility.yul\":10675:10676   */\n      dup3\n        /* \"#utility.yul\":10672:10682   */\n      gt\n        /* \"#utility.yul\":10669:10705   */\n      iszero\n      tag_314\n      jumpi\n        /* \"#utility.yul\":10685:10703   */\n      tag_315\n      tag_177\n      jump\t// in\n    tag_315:\n        /* \"#utility.yul\":10669:10705   */\n    tag_314:\n        /* \"#utility.yul\":10521:10712   */\n      swap3\n      swap2\n      pop\n      pop\n      jump\t// out\n        /* \"#utility.yul\":10718:10898   */\n    tag_178:\n        /* \"#utility.yul\":10766:10843   */\n      0x4e487b7100000000000000000000000000000000000000000000000000000000\n        /* \"#utility.yul\":10763:10764   */\n      0x00\n        /* \"#utility.yul\":10756:10844   */\n      mstore\n        /* \"#utility.yul\":10863:10867   */\n      0x22\n        /* \"#utility.yul\":10860:10861   */\n      0x04\n        /* \"#utility.yul\":10853:10868   */\n      mstore\n        /* \"#utility.yul\":10887:10891   */\n      0x24\n        /* \"#utility.yul\":10884:10885   */\n      0x00\n        /* \"#utility.yul\":10877:10892   */\n      revert\n        /* \"#utility.yul\":10904:11224   */\n    tag_54:\n        /* \"#utility.yul\":10948:10954   */\n      0x00\n        /* \"#utility.yul\":10985:10986   */\n      0x02\n        /* \"#utility.yul\":10979:10983   */\n      dup3\n        /* \"#utility.yul\":10975:10987   */\n      div\n        /* \"#utility.yul\":10965:10987   */\n      swap1\n      pop\n        /* \"#utility.yul\":11032:11033   */\n      0x01\n        /* \"#utility.yul\":11026:11030   */\n      dup3\n        /* \"#utility.yul\":11022:11034   */\n      and\n        /* \"#utility.yul\":11053:11071   */\n      dup1\n        /* \"#utility.yul\":11043:11124   */\n      tag_318\n      jumpi\n        /* \"#utility.yul\":11109:11113   */\n      0x7f\n        /* \"#utility.yul\":11101:11107   */\n      dup3\n        /* \"#utility.yul\":11097:11114   */\n      and\n        /* \"#utility.yul\":11087:11114   */\n      swap2\n      pop\n        /* \"#utility.yul\":11043:11124   */\n    tag_318:\n        /* \"#utility.yul\":11171:11173   */\n      0x20\n        /* \"#utility.yul\":11163:11169   */\n      dup3\n        /* \"#utility.yul\":11160:11174   */\n      lt\n        /* \"#utility.yul\":11140:11158   */\n      dup2\n        /* \"#utility.yul\":11137:11175   */\n      sub\n        /* \"#utility.yul\":11134:11218   */\n      tag_319\n      jumpi\n        /* \"#utility.yul\":11190:11208   */\n      tag_320\n      tag_178\n      jump\t// in\n    tag_320:\n        /* \"#utility.yul\":11134:11218   */\n    tag_319:\n        /* \"#utility.yul\":10955:11224   */\n      pop\n        /* \"#utility.yul\":10904:11224   */\n      swap2\n      swap1\n      pop\n      jump\t// out\n        /* \"#utility.yul\":11230:11371   */\n    tag_179:\n        /* \"#utility.yul\":11279:11283   */\n      0x00\n        /* \"#utility.yul\":11302:11305   */\n      dup2\n        /* \"#utility.yul\":11294:11305   */\n      swap1\n      pop\n        /* \"#utility.yul\":11325:11328   */\n      dup2\n        /* \"#utility.yul\":11322:11323   */\n      0x00\n        /* \"#utility.yul\":11315:11329   */\n      mstore\n        /* \"#utility.yul\":11359:11363   */\n      0x20\n        /* \"#utility.yul\":11356:11357   */\n      0x00\n        /* \"#utility.yul\":11346:11364   */\n      keccak256\n        /* \"#utility.yul\":11338:11364   */\n      swap1\n      pop\n        /* \"#utility.yul\":11230:11371   */\n      swap2\n      swap1\n      pop\n      jump\t// out\n        /* \"#utility.yul\":11377:11470   */\n    tag_180:\n        /* \"#utility.yul\":11414:11420   */\n      0x00\n        /* \"#utility.yul\":11461:11463   */\n      0x20\n        /* \"#utility.yul\":11456:11458   */\n      0x1f\n        /* \"#utility.yul\":11449:11454   */\n      dup4\n        /* \"#utility.yul\":11445:11459   */\n      add\n        /* \"#utility.yul\":11441:11464   */\n      div\n        /* \"#utility.yul\":11431:11464   */\n      swap1\n      pop\n        /* \"#utility.yul\":11377:11470   */\n      swap2\n      swap1\n      pop\n      jump\t// out\n        /* \"#utility.yul\":11476:11583   */\n    tag_181:\n        /* \"#utility.yul\":11520:11528   */\n      0x00\n        /* \"#utility.yul\":11570:11575   */\n      dup3\n        /* \"#utility.yul\":11564:11568   */\n      dup3\n        /* \"#utility.yul\":11560:11576   */\n      shl\n        /* \"#utility.yul\":11539:11576   */\n      swap1\n      pop\n        /* \"#utility.yul\":11476:11583   */\n      swap3\n      swap2\n      pop\n      pop\n      jump\t// out\n        /* \"#utility.yul\":11589:11982   */\n    tag_182:\n        /* \"#utility.yul\":11658:11664   */\n      0x00\n        /* \"#utility.yul\":11708:11709   */\n      0x08\n        /* \"#utility.yul\":11696:11706   */\n      dup4\n        /* \"#utility.yul\":11692:11710   */\n      mul\n        /* \"#utility.yul\":11731:11828   */\n      tag_325\n        /* \"#utility.yul\":11761:11827   */\n      0xffffffffffffffffffffffffffffffffffffffffffffffffffffffffffffffff\n        /* \"#utility.yul\":11750:11759   */\n      dup3\n        /* \"#utility.yul\":11731:11828   */\n      tag_181\n      jump\t// in\n    tag_325:\n        /* \"#utility.yul\":11849:11888   */\n      tag_326\n        /* \"#utility.yul\":11879:11887   */\n      dup7\n        /* \"#utility.yul\":11868:11877   */\n      dup4\n        /* \"#utility.yul\":11849:11888   */\n      tag_181\n      jump\t// in\n    tag_326:\n        /* \"#utility.yul\":11837:11888   */\n      swap6\n      pop\n        /* \"#utility.yul\":11921:11925   */\n      dup1\n        /* \"#utility.yul\":11917:11926   */\n      not\n        /* \"#utility.yul\":11910:11915   */\n      dup5\n        /* \"#utility.yul\":11906:11927   */\n      and\n        /* \"#utility.yul\":11897:11927   */\n      swap4\n      pop\n        /* \"#utility.yul\":11970:11974   */\n      dup1\n        /* \"#utility.yul\":11960:11968   */\n      dup7\n        /* \"#utility.yul\":11956:11975   */\n      and\n        /* \"#utility.yul\":11949:11954   */\n      dup5\n        /* \"#utility.yul\":11946:11976   */\n      or\n        /* \"#utility.yul\":11936:11976   */\n      swap3\n      pop\n        /* \"#utility.yul\":11665:11982   */\n      pop\n      pop\n        /* \"#utility.yul\":11589:11982   */\n      swap4\n      swap3\n      pop\n      pop\n      pop\n      jump\t// out\n        /* \"#utility.yul\":11988:12048   */\n    tag_183:\n        /* \"#utility.yul\":12016:12019   */\n      0x00\n        /* \"#utility.yul\":12037:12042   */\n      dup2\n        /* \"#utility.yul\":12030:12042   */\n      swap1\n      pop\n        /* \"#utility.yul\":11988:12048   */\n      swap2\n      swap1\n      pop\n      jump\t// out\n        /* \"#utility.yul\":12054:12196   */\n    tag_184:\n        /* \"#utility.yul\":12104:12113   */\n      0x00\n        /* \"#utility.yul\":12137:12190   */\n      tag_329\n        /* \"#utility.yul\":12155:12189   */\n      tag_330\n        /* \"#utility.yul\":12164:12188   */\n      tag_331\n        /* \"#utility.yul\":12182:12187   */\n      dup5\n        /* \"#utility.yul\":12164:12188   */\n      tag_162\n      jump\t// in\n    tag_331:\n        /* \"#utility.yul\":12155:12189   */\n      tag_183\n      jump\t// in\n    tag_330:\n        /* \"#utility.yul\":12137:12190   */\n      tag_162\n      jump\t// in\n    tag_329:\n        /* \"#utility.yul\":12124:12190   */\n      swap1\n      pop\n        /* \"#utility.yul\":12054:12196   */\n      swap2\n      swap1\n      pop\n      jump\t// out\n        /* \"#utility.yul\":12202:12277   */\n    tag_185:\n        /* \"#utility.yul\":12245:12248   */\n      0x00\n        /* \"#utility.yul\":12266:12271   */\n      dup2\n        /* \"#utility.yul\":12259:12271   */\n      swap1\n      pop\n        /* \"#utility.yul\":12202:12277   */\n      swap2\n      swap1\n      pop\n      jump\t// out\n        /* \"#utility.yul\":12283:12552   */\n    tag_186:\n        /* \"#utility.yul\":12393:12432   */\n      tag_334\n        /* \"#utility.yul\":12424:12431   */\n      dup4\n        /* \"#utility.yul\":12393:12432   */\n      tag_184\n      jump\t// in\n    tag_334:\n        /* \"#utility.yul\":12454:12545   */\n      tag_335\n        /* \"#utility.yul\":12503:12544   */\n      tag_336\n        /* \"#utility.yul\":12527:12543   */\n      dup3\n        /* \"#utility.yul\":12503:12544   */\n      tag_185\n      jump\t// in\n    tag_336:\n        /* \"#utility.yul\":12495:12501   */\n      dup5\n        /* \"#utility.yul\":12488:12492   */\n      dup5\n        /* \"#utility.yul\":12482:12493   */\n      sload\n        /* \"#utility.yul\":12454:12545   */\n      tag_182\n      jump\t// in\n    tag_335:\n        /* \"#utility.yul\":12448:12452   */\n      dup3\n        /* \"#utility.yul\":12441:12546   */\n      sstore\n        /* \"#utility.yul\":12359:12552   */\n      pop\n        /* \"#utility.yul\":12283:12552   */\n      pop\n      pop\n      pop\n      jump\t// out\n        /* \"#utility.yul\":12558:12631   */\n    tag_187:\n        /* \"#utility.yul\":12603:12606   */\n      0x00\n        /* \"#utility.yul\":12558:12631   */\n      swap1\n      jump\t// out\n        /* \"#utility.yul\":12637:12826   */\n    tag_188:\n        /* \"#utility.yul\":12714:12746   */\n      tag_339\n      tag_187\n      jump\t// in\n    tag_339:\n        /* \"#utility.yul\":12755:12820   */\n      tag_340\n        /* \"#utility.yul\":12813:12819   */\n      dup2\n        /* \"#utility.yul\":12805:12811   */\n      dup5\n        /* \"#utility.yul\":12799:12803   */\n      dup5\n        /* \"#utility.yul\":12755:12820   */\n      tag_186\n      jump\t// in\n    tag_340:\n        /* \"#utility.yul\":12690:12826   */\n      pop\n        /* \"#utility.yul\":12637:12826   */\n      pop\n      pop\n      jump\t// out\n        /* \"#utility.yul\":12832:13018   */\n    tag_189:\n        /* \"#utility.yul\":12892:13012   */\n    tag_342:\n        /* \"#utility.yul\":12909:12912   */\n      dup2\n        /* \"#utility.yul\":12902:12907   */\n      dup2\n        /* \"#utility.yul\":12899:12913   */\n      lt\n        /* \"#utility.yul\":12892:13012   */\n      iszero\n      tag_344\n      jumpi\n        /* \"#utility.yul\":12963:13002   */\n      tag_345\n        /* \"#utility.yul\":13000:13001   */\n      0x00\n        /* \"#utility.yul\":12993:12998   */\n      dup3\n        /* \"#utility.yul\":12963:13002   */\n      tag_188\n      jump\t// in\n    tag_345:\n        /* \"#utility.yul\":12936:12937   */\n      0x01\n        /* \"#utility.yul\":12929:12934   */\n      dup2\n        /* \"#utility.yul\":12925:12938   */\n      add\n        /* \"#utility.yul\":12916:12938   */\n      swap1\n      pop\n        /* \"#utility.yul\":12892:13012   */\n      jump(tag_342)\n    tag_344:\n        /* \"#utility.yul\":12832:13018   */\n      pop\n      pop\n      jump\t// out\n        /* \"#utility.yul\":13024:13567   */\n    tag_190:\n        /* \"#utility.yul\":13125:13127   */\n      0x1f\n        /* \"#utility.yul\":13120:13123   */\n      dup3\n        /* \"#utility.yul\":13117:13128   */\n      gt\n        /* \"#utility.yul\":13114:13560   */\n      iszero\n      tag_347\n      jumpi\n        /* \"#utility.yul\":13159:13197   */\n      tag_348\n        /* \"#utility.yul\":13191:13196   */\n      dup2\n        /* \"#utility.yul\":13159:13197   */\n      tag_179\n      jump\t// in\n    tag_348:\n        /* \"#utility.yul\":13243:13272   */\n      tag_349\n        /* \"#utility.yul\":13261:13271   */\n      dup5\n        /* \"#utility.yul\":13243:13272   */\n      tag_180\n      jump\t// in\n    tag_349:\n        /* \"#utility.yul\":13233:13241   */\n      dup2\n        /* \"#utility.yul\":13229:13273   */\n      add\n        /* \"#utility.yul\":13426:13428   */\n      0x20\n        /* \"#utility.yul\":13414:13424   */\n      dup6\n        /* \"#utility.yul\":13411:13429   */\n      lt\n        /* \"#utility.yul\":13408:13457   */\n      iszero\n      tag_350\n      jumpi\n        /* \"#utility.yul\":13447:13455   */\n      dup2\n        /* \"#utility.yul\":13432:13455   */\n      swap1\n      pop\n        /* \"#utility.yul\":13408:13457   */\n    tag_350:\n        /* \"#utility.yul\":13470:13550   */\n      tag_351\n        /* \"#utility.yul\":13526:13548   */\n      tag_352\n        /* \"#utility.yul\":13544:13547   */\n      dup6\n        /* \"#utility.yul\":13526:13548   */\n      tag_180\n      jump\t// in\n    tag_352:\n        /* \"#utility.yul\":13516:13524   */\n      dup4\n        /* \"#utility.yul\":13512:13549   */\n      add\n        /* \"#utility.yul\":13499:13510   */\n      dup3\n        /* \"#utility.yul\":13470:13550   */\n      tag_189\n      jump\t// in\n    tag_351:\n        /* \"#utility.yul\":13129:13560   */\n      pop\n      pop\n        /* \"#utility.yul\":13114:13560   */\n    tag_347:\n        /* \"#utility.yul\":13024:13567   */\n      pop\n      pop\n      pop\n      jump\t// out\n        /* \"#utility.yul\":13573:13690   */\n    tag_191:\n        /* \"#utility.yul\":13627:13635   */\n      0x00\n        /* \"#utility.yul\":13677:13682   */\n      dup3\n        /* \"#utility.yul\":13671:13675   */\n      dup3\n        /* \"#utility.yul\":13667:13683   */\n      shr\n        /* \"#utility.yul\":13646:13683   */\n      swap1\n      pop\n        /* \"#utility.yul\":13573:13690   */\n      swap3\n      swap2\n      pop\n      pop\n      jump\t// out\n        /* \"#utility.yul\":13696:13865   */\n    tag_192:\n        /* \"#utility.yul\":13740:13746   */\n      0x00\n        /* \"#utility.yul\":13773:13824   */\n      tag_355\n        /* \"#utility.yul\":13821:13822   */\n      0x00\n        /* \"#utility.yul\":13817:13823   */\n      not\n        /* \"#utility.yul\":13809:13814   */\n      dup5\n        /* \"#utility.yul\":13806:13807   */\n      0x08\n        /* \"#utility.yul\":13802:13815   */\n      mul\n        /* \"#utility.yul\":13773:13824   */\n      tag_191\n      jump\t// in\n    tag_355:\n        /* \"#utility.yul\":13769:13825   */\n      not\n        /* \"#utility.yul\":13854:13858   */\n      dup1\n        /* \"#utility.yul\":13848:13852   */\n      dup4\n        /* \"#utility.yul\":13844:13859   */\n      and\n        /* \"#utility.yul\":13834:13859   */\n      swap2\n      pop\n        /* \"#utility.yul\":13747:13865   */\n      pop\n        /* \"#utility.yul\":13696:13865   */\n      swap3\n      swap2\n      pop\n      pop\n      jump\t// out\n        /* \"#utility.yul\":13870:14165   */\n    tag_193:\n        /* \"#utility.yul\":13946:13950   */\n      0x00\n        /* \"#utility.yul\":14092:14121   */\n      tag_357\n        /* \"#utility.yul\":14117:14120   */\n      dup4\n        /* \"#utility.yul\":14111:14115   */\n      dup4\n        /* \"#utility.yul\":14092:14121   */\n      tag_192\n      jump\t// in\n    tag_357:\n        /* \"#utility.yul\":14084:14121   */\n      swap2\n      pop\n        /* \"#utility.yul\":14154:14157   */\n      dup3\n        /* \"#utility.yul\":14151:14152   */\n      0x02\n        /* \"#utility.yul\":14147:14158   */\n      mul\n        /* \"#utility.yul\":14141:14145   */\n      dup3\n        /* \"#utility.yul\":14138:14159   */\n      or\n        /* \"#utility.yul\":14130:14159   */\n      swap1\n      pop\n        /* \"#utility.yul\":13870:14165   */\n      swap3\n      swap2\n      pop\n      pop\n      jump\t// out\n        /* \"#utility.yul\":14170:15565   */\n    tag_48:\n        /* \"#utility.yul\":14287:14324   */\n      tag_359\n        /* \"#utility.yul\":14320:14323   */\n      dup3\n        /* \"#utility.yul\":14287:14324   */\n      tag_165\n      jump\t// in\n    tag_359:\n        /* \"#utility.yul\":14389:14407   */\n      0xffffffffffffffff\n        /* \"#utility.yul\":14381:14387   */\n      dup2\n        /* \"#utility.yul\":14378:14408   */\n      gt\n        /* \"#utility.yul\":14375:14431   */\n      iszero\n      tag_360\n      jumpi\n        /* \"#utility.yul\":14411:14429   */\n      tag_361\n      tag_152\n      jump\t// in\n    tag_361:\n        /* \"#utility.yul\":14375:14431   */\n    tag_360:\n        /* \"#utility.yul\":14455:14493   */\n      tag_362\n        /* \"#utility.yul\":14487:14491   */\n      dup3\n        /* \"#utility.yul\":14481:14492   */\n      sload\n        /* \"#utility.yul\":14455:14493   */\n      tag_54\n      jump\t// in\n    tag_362:\n        /* \"#utility.yul\":14540:14607   */\n      tag_363\n        /* \"#utility.yul\":14600:14606   */\n      dup3\n        /* \"#utility.yul\":14592:14598   */\n      dup3\n        /* \"#utility.yul\":14586:14590   */\n      dup6\n        /* \"#utility.yul\":14540:14607   */\n      tag_190\n      jump\t// in\n    tag_363:\n        /* \"#utility.yul\":14634:14635   */\n      0x00\n        /* \"#utility.yul\":14658:14662   */\n      0x20\n        /* \"#utility.yul\":14645:14662   */\n      swap1\n      pop\n        /* \"#utility.yul\":14690:14692   */\n      0x1f\n        /* \"#utility.yul\":14682:14688   */\n      dup4\n        /* \"#utility.yul\":14679:14693   */\n      gt\n        /* \"#utility.yul\":14707:14708   */\n      0x01\n        /* \"#utility.yul\":14702:15320   */\n      dup2\n      eq\n      tag_365\n      jumpi\n        /* \"#utility.yul\":15364:15365   */\n      0x00\n        /* \"#utility.yul\":15381:15387   */\n      dup5\n        /* \"#utility.yul\":15378:15455   */\n      iszero\n      tag_366\n      jumpi\n        /* \"#utility.yul\":15430:15439   */\n      dup3\n        /* \"#utility.yul\":15425:15428   */\n      dup8\n        /* \"#utility.yul\":15421:15440   */\n      add\n        /* \"#utility.yul\":15415:15441   */\n      mload\n        /* \"#utility.yul\":15406:15441   */\n      swap1\n      pop\n        /* \"#utility.yul\":15378:15455   */\n    tag_366:\n        /* \"#utility.yul\":15481:15548   */\n      tag_367\n        /* \"#utility.yul\":15541:15547   */\n      dup6\n        /* \"#utility.yul\":15534:15539   */\n      dup3\n        /* \"#utility.yul\":15481:15548   */\n      tag_193\n      jump\t// in\n    tag_367:\n        /* \"#utility.yul\":15475:15479   */\n      dup7\n        /* \"#utility.yul\":15468:15549   */\n      sstore\n        /* \"#utility.yul\":15337:15559   */\n      pop\n        /* \"#utility.yul\":14672:15559   */\n      jump(tag_364)\n        /* \"#utility.yul\":14702:15320   */\n    tag_365:\n        /* \"#utility.yul\":14754:14758   */\n      0x1f\n        /* \"#utility.yul\":14750:14759   */\n      not\n        /* \"#utility.yul\":14742:14748   */\n      dup5\n        /* \"#utility.yul\":14738:14760   */\n      and\n        /* \"#utility.yul\":14788:14825   */\n      tag_368\n        /* \"#utility.yul\":14820:14824   */\n      dup7\n        /* \"#utility.yul\":14788:14825   */\n      tag_179\n      jump\t// in\n    tag_368:\n        /* \"#utility.yul\":14847:14848   */\n      0x00\n        /* \"#utility.yul\":14861:15069   */\n    tag_369:\n        /* \"#utility.yul\":14875:14882   */\n      dup3\n        /* \"#utility.yul\":14872:14873   */\n      dup2\n        /* \"#utility.yul\":14869:14883   */\n      lt\n        /* \"#utility.yul\":14861:15069   */\n      iszero\n      tag_371\n      jumpi\n        /* \"#utility.yul\":14954:14963   */\n      dup5\n        /* \"#utility.yul\":14949:14952   */\n      dup10\n        /* \"#utility.yul\":14945:14964   */\n      add\n        /* \"#utility.yul\":14939:14965   */\n      mload\n        /* \"#utility.yul\":14931:14937   */\n      dup3\n        /* \"#utility.yul\":14924:14966   */\n      sstore\n        /* \"#utility.yul\":15005:15006   */\n      0x01\n        /* \"#utility.yul\":14997:15003   */\n      dup3\n        /* \"#utility.yul\":14993:15007   */\n      add\n        /* \"#utility.yul\":14983:15007   */\n      swap2\n      pop\n        /* \"#utility.yul\":15052:15054   */\n      0x20\n        /* \"#utility.yul\":15041:15050   */\n      dup6\n        /* \"#utility.yul\":15037:15055   */\n      add\n        /* \"#utility.yul\":15024:15055   */\n      swap5\n      pop\n        /* \"#utility.yul\":14898:14902   */\n      0x20\n        /* \"#utility.yul\":14895:14896   */\n      dup2\n        /* \"#utility.yul\":14891:14903   */\n      add\n        /* \"#utility.yul\":14886:14903   */\n      swap1\n      pop\n        /* \"#utility.yul\":14861:15069   */\n      jump(tag_369)\n    tag_371:\n        /* \"#utility.yul\":15097:15103   */\n      dup7\n        /* \"#utility.yul\":15088:15095   */\n      dup4\n        /* \"#utility.yul\":15085:15104   */\n      lt\n        /* \"#utility.yul\":15082:15261   */\n      iszero\n      tag_372\n      jumpi\n        /* \"#utility.yul\":15155:15164   */\n      dup5\n        /* \"#utility.yul\":15150:15153   */\n      dup10\n        /* \"#utility.yul\":15146:15165   */\n      add\n        /* \"#utility.yul\":15140:15166   */\n      mload\n        /* \"#utility.yul\":15198:15246   */\n      tag_373\n        /* \"#utility.yul\":15240:15244   */\n      0x1f\n        /* \"#utility.yul\":15232:15238   */\n      dup10\n        /* \"#utility.yul\":15228:15245   */\n      and\n        /* \"#utility.yul\":15217:15226   */\n      dup3\n        /* \"#utility.yul\":15198:15246   */\n      tag_192\n      jump\t// in\n    tag_373:\n        /* \"#utility.yul\":15190:15196   */\n      dup4\n        /* \"#utility.yul\":15183:15247   */\n      sstore\n        /* \"#utility.yul\":15105:15261   */\n      pop\n        /* \"#utility.yul\":15082:15261   */\n    tag_372:\n        /* \"#utility.yul\":15307:15308   */\n      0x01\n        /* \"#utility.yul\":15303:15304   */\n      0x02\n        /* \"#utility.yul\":15295:15301   */\n      dup9\n        /* \"#utility.yul\":15291:15305   */\n      mul\n        /* \"#utility.yul\":15287:15309   */\n      add\n        /* \"#utility.yul\":15281:15285   */\n      dup9\n        /* \"#utility.yul\":15274:15310   */\n      sstore\n        /* \"#utility.yul\":14709:15320   */\n      pop\n      pop\n      pop\n        /* \"#utility.yul\":14672:15559   */\n    tag_364:\n      pop\n        /* \"#utility.yul\":14262:15565   */\n      pop\n      pop\n      pop\n        /* \"#utility.yul\":14170:15565   */\n      pop\n      pop\n      jump\t// out\n        /* \"#utility.yul\":15571:15740   */\n    tag_194:\n        /* \"#utility.yul\":15655:15666   */\n      0x00\n        /* \"#utility.yul\":15689:15695   */\n      dup3\n        /* \"#utility.yul\":15684:15687   */\n      dup3\n        /* \"#utility.yul\":15677:15696   */\n      mstore\n        /* \"#utility.yul\":15729:15733   */\n      0x20\n        /* \"#utility.yul\":15724:15727   */\n      dup3\n        /* \"#utility.yul\":15720:15734   */\n      add\n        /* \"#utility.yul\":15705:15734   */\n      swap1\n      pop\n        /* \"#utility.yul\":15571:15740   */\n      swap3\n      swap2\n      pop\n      pop\n      jump\t// out\n        /* \"#utility.yul\":15746:15921   */\n    tag_195:\n        /* \"#utility.yul\":15886:15913   */\n      0x4164647265737320686173206e6f7420766f7465642079657400000000000000\n        /* \"#utility.yul\":15882:15883   */\n      0x00\n        /* \"#utility.yul\":15874:15880   */\n      dup3\n        /* \"#utility.yul\":15870:15884   */\n      add\n        /* \"#utility.yul\":15863:15914   */\n      mstore\n        /* \"#utility.yul\":15746:15921   */\n      pop\n      jump\t// out\n        /* \"#utility.yul\":15927:16293   */\n    tag_196:\n        /* \"#utility.yul\":16069:16072   */\n      0x00\n        /* \"#utility.yul\":16090:16157   */\n      tag_377\n        /* \"#utility.yul\":16154:16156   */\n      0x19\n        /* \"#utility.yul\":16149:16152   */\n      dup4\n        /* \"#utility.yul\":16090:16157   */\n      tag_194\n      jump\t// in\n    tag_377:\n        /* \"#utility.yul\":16083:16157   */\n      swap2\n      pop\n        /* \"#utility.yul\":16166:16259   */\n      tag_378\n        /* \"#utility.yul\":16255:16258   */\n      dup3\n        /* \"#utility.yul\":16166:16259   */\n      tag_195\n      jump\t// in\n    tag_378:\n        /* \"#utility.yul\":16284:16286   */\n      0x20\n        /* \"#utility.yul\":16279:16282   */\n      dup3\n        /* \"#utility.yul\":16275:16287   */\n      add\n        /* \"#utility.yul\":16268:16287   */\n      swap1\n      pop\n        /* \"#utility.yul\":15927:16293   */\n      swap2\n      swap1\n      pop\n      jump\t// out\n        /* \"#utility.yul\":16299:16718   */\n    tag_70:\n        /* \"#utility.yul\":16465:16469   */\n      0x00\n        /* \"#utility.yul\":16503:16505   */\n      0x20\n        /* \"#utility.yul\":16492:16501   */\n      dup3\n        /* \"#utility.yul\":16488:16506   */\n      add\n        /* \"#utility.yul\":16480:16506   */\n      swap1\n      pop\n        /* \"#utility.yul\":16552:16561   */\n      dup2\n        /* \"#utility.yul\":16546:16550   */\n      dup2\n        /* \"#utility.yul\":16542:16562   */\n      sub\n        /* \"#utility.yul\":16538:16539   */\n      0x00\n        /* \"#utility.yul\":16527:16536   */\n      dup4\n        /* \"#utility.yul\":16523:16540   */\n      add\n        /* \"#utility.yul\":16516:16563   */\n      mstore\n        /* \"#utility.yul\":16580:16711   */\n      tag_380\n        /* \"#utility.yul\":16706:16710   */\n      dup2\n        /* \"#utility.yul\":16580:16711   */\n      tag_196\n      jump\t// in\n    tag_380:\n        /* \"#utility.yul\":16572:16711   */\n      swap1\n      pop\n        /* \"#utility.yul\":16299:16718   */\n      swap2\n      swap1\n      pop\n      jump\t// out\n        /* \"#utility.yul\":16724:16918   */\n    tag_88:\n        /* \"#utility.yul\":16764:16768   */\n      0x00\n        /* \"#utility.yul\":16784:16804   */\n      tag_382\n        /* \"#utility.yul\":16802:16803   */\n      dup3\n        /* \"#utility.yul\":16784:16804   */\n      tag_162\n      jump\t// in\n    tag_382:\n        /* \"#utility.yul\":16779:16804   */\n      swap2\n      pop\n        /* \"#utility.yul\":16818:16838   */\n      tag_383\n        /* \"#utility.yul\":16836:16837   */\n      dup4\n        /* \"#utility.yul\":16818:16838   */\n      tag_162\n      jump\t// in\n    tag_383:\n        /* \"#utility.yul\":16813:16838   */\n      swap3\n      pop\n        /* \"#utility.yul\":16862:16863   */\n      dup3\n        /* \"#utility.yul\":16859:16860   */\n      dup3\n        /* \"#utility.yul\":16855:16864   */\n      sub\n        /* \"#utility.yul\":16847:16864   */\n      swap1\n      pop\n        /* \"#utility.yul\":16886:16887   */\n      dup2\n        /* \"#utility.yul\":16880:16884   */\n      dup2\n        /* \"#utility.yul\":16877:16888   */\n      gt\n        /* \"#utility.yul\":16874:16911   */\n      iszero\n      tag_384\n      jumpi\n        /* \"#utility.yul\":16891:16909   */\n      tag_385\n      tag_177\n      jump\t// in\n    tag_385:\n        /* \"#utility.yul\":16874:16911   */\n    tag_384:\n        /* \"#utility.yul\":16724:16918   */\n      swap3\n      swap2\n      pop\n      pop\n      jump\t// out\n        /* \"#utility.yul\":16924:17104   */\n    tag_113:\n        /* \"#utility.yul\":16972:17049   */\n      0x4e487b7100000000000000000000000000000000000000000000000000000000\n        /* \"#utility.yul\":16969:16970   */\n      0x00\n        /* \"#utility.yul\":16962:17050   */\n      mstore\n        /* \"#utility.yul\":17069:17073   */\n      0x32\n        /* \"#utility.yul\":17066:17067   */\n      0x04\n        /* \"#utility.yul\":17059:17074   */\n      mstore\n        /* \"#utility.yul\":17093:17097   */\n      0x24\n        /* \"#utility.yul\":17090:17091   */\n      0x00\n        /* \"#utility.yul\":17083:17098   */\n      revert\n        /* \"#utility.yul\":17110:17290   */\n    tag_197:\n        /* \"#utility.yul\":17158:17235   */\n      0x4e487b7100000000000000000000000000000000000000000000000000000000\n        /* \"#utility.yul\":17155:17156   */\n      0x00\n        /* \"#utility.yul\":17148:17236   */\n      mstore\n        /* \"#utility.yul\":17255:17259   */\n      0x12\n        /* \"#utility.yul\":17252:17253   */\n      0x04\n        /* \"#utility.yul\":17245:17260   */\n      mstore\n        /* \"#utility.yul\":17279:17283   */\n      0x24\n        /* \"#utility.yul\":17276:17277   */\n      0x00\n        /* \"#utility.yul\":17269:17284   */\n      revert\n        /* \"#utility.yul\":17296:17472   */\n    tag_123:\n        /* \"#utility.yul\":17328:17329   */\n      0x00\n        /* \"#utility.yul\":17345:17365   */\n      tag_389\n        /* \"#utility.yul\":17363:17364   */\n      dup3\n        /* \"#utility.yul\":17345:17365   */\n      tag_162\n      jump\t// in\n    tag_389:\n        /* \"#utility.yul\":17340:17365   */\n      swap2\n      pop\n        /* \"#utility.yul\":17379:17399   */\n      tag_390\n        /* \"#utility.yul\":17397:17398   */\n      dup4\n        /* \"#utility.yul\":17379:17399   */\n      tag_162\n      jump\t// in\n    tag_390:\n        /* \"#utility.yul\":17374:17399   */\n      swap3\n      pop\n        /* \"#utility.yul\":17418:17419   */\n      dup3\n        /* \"#utility.yul\":17408:17443   */\n      tag_391\n      jumpi\n        /* \"#utility.yul\":17423:17441   */\n      tag_392\n      tag_197\n      jump\t// in\n    tag_392:\n        /* \"#utility.yul\":17408:17443   */\n    tag_391:\n        /* \"#utility.yul\":17464:17465   */\n      dup3\n        /* \"#utility.yul\":17461:17462   */\n      dup3\n        /* \"#utility.yul\":17457:17466   */\n      mod\n        /* \"#utility.yul\":17452:17466   */\n      swap1\n      pop\n        /* \"#utility.yul\":17296:17472   */\n      swap3\n      swap2\n      pop\n      pop\n      jump\t// out\n        /* \"#utility.yul\":17478:17663   */\n    tag_127:\n        /* \"#utility.yul\":17518:17519   */\n      0x00\n        /* \"#utility.yul\":17535:17555   */\n      tag_394\n        /* \"#utility.yul\":17553:17554   */\n      dup3\n        /* \"#utility.yul\":17535:17555   */\n      tag_162\n      jump\t// in\n    tag_394:\n        /* \"#utility.yul\":17530:17555   */\n      swap2\n      pop\n        /* \"#utility.yul\":17569:17589   */\n      tag_395\n        /* \"#utility.yul\":17587:17588   */\n      dup4\n        /* \"#utility.yul\":17569:17589   */\n      tag_162\n      jump\t// in\n    tag_395:\n        /* \"#utility.yul\":17564:17589   */\n      swap3\n      pop\n        /* \"#utility.yul\":17608:17609   */\n      dup3\n        /* \"#utility.yul\":17598:17633   */\n      tag_396\n      jumpi\n        /* \"#utility.yul\":17613:17631   */\n      tag_397\n      tag_197\n      jump\t// in\n    tag_397:\n        /* \"#utility.yul\":17598:17633   */\n    tag_396:\n        /* \"#utility.yul\":17655:17656   */\n      dup3\n        /* \"#utility.yul\":17652:17653   */\n      dup3\n        /* \"#utility.yul\":17648:17657   */\n      div\n        /* \"#utility.yul\":17643:17657   */\n      swap1\n      pop\n        /* \"#utility.yul\":17478:17663   */\n      swap3\n      swap2\n      pop\n      pop\n      jump\t// out\n\n    auxdata: 0xa264697066735822122005161028e06a1dc2388a16f1694126d398deb114fbb7281e9f95763fd08d109464736f6c63430008160033\n}\n",
				"bytecode": {
					"linkReferences": {},
					"object": "608060405234801561000f575f80fd5b50335f806101000a81548173ffffffffffffffffffffffffffffffffffffffff021916908373ffffffffffffffffffffffffffffffffffffffff160217905550600333908060018154018082558091505060019003905f5260205f20015f9091909190916101000a81548173ffffffffffffffffffffffffffffffffffffffff021916908373ffffffffffffffffffffffffffffffffffffffff160217905550611686806100bc5f395ff3fe608060405234801561000f575f80fd5b506004361061007b575f3560e01c8063b3f98adc11610059578063b3f98adc146100d5578063c7f758a8146100f1578063cbff75cb14610121578063dbddc7aa146101515761007b565b806313af40351461007f5780633ca6d1001461009b57806341ec6870146100b7575b5f80fd5b61009960048036038101906100949190610d13565b61015b565b005b6100b560048036038101906100b09190610f0a565b6101f3565b005b6100bf610390565b6040516100cc91906110ee565b60405180910390f35b6100ef60048036038101906100ea9190611144565b610538565b005b61010b6004803603810190610106919061116f565b610805565b60405161011891906110ee565b60405180910390f35b61013b60048036038101906101369190610d13565b6109ad565b60405161014891906111a9565b60405180910390f35b610159610a4f565b005b5f8054906101000a900473ffffffffffffffffffffffffffffffffffffffff1673ffffffffffffffffffffffffffffffffffffffff163373ffffffffffffffffffffffffffffffffffffffff16146101b1575f80fd5b805f806101000a81548173ffffffffffffffffffffffffffffffffffffffff021916908373ffffffffffffffffffffffffffffffffffffffff16021790555050565b5f8054906101000a900473ffffffffffffffffffffffffffffffffffffffff1673ffffffffffffffffffffffffffffffffffffffff163373ffffffffffffffffffffffffffffffffffffffff1614610249575f80fd5b6001805f82825461025a91906111ef565b9250508190555060405180610100016040528085815260200184848080601f0160208091040260200160405190810160405280939291908181526020018383808284375f81840152601f19601f8201169050808301925050505050505081526020015f81526020015f81526020015f81526020018281526020015f151581526020016001151581525060025f60015481526020019081526020015f205f820151815f019081610309919061141c565b50602082015181600101908161031f919061141c565b5060408201518160020155606082015181600301556080820151816004015560a0820151816005015560c0820151816006015f6101000a81548160ff02191690831515021790555060e08201518160060160016101000a81548160ff02191690831515021790555090505050505050565b610398610bc3565b60025f60015481526020019081526020015f20604051806101000160405290815f820180546103c69061124f565b80601f01602080910402602001604051908101604052809291908181526020018280546103f29061124f565b801561043d5780601f106104145761010080835404028352916020019161043d565b820191905f5260205f20905b81548152906001019060200180831161042057829003601f168201915b505050505081526020016001820180546104569061124f565b80601f01602080910402602001604051908101604052809291908181526020018280546104829061124f565b80156104cd5780601f106104a4576101008083540402835291602001916104cd565b820191905f5260205f20905b8154815290600101906020018083116104b057829003601f168201915b5050505050815260200160028201548152602001600382015481526020016004820154815260200160058201548152602001600682015f9054906101000a900460ff161515151581526020016006820160019054906101000a900460ff161515151581525050905090565b6001151560025f60015481526020019081526020015f2060060160019054906101000a900460ff1615151461056b575f80fd5b33610575816109ad565b156105b5576040517f08c379a00000000000000000000000000000000000000000000000000000000081526004016105ac90611545565b60405180910390fd5b5f60025f60015481526020019081526020015f2090505f8160040154826003015483600201546105e591906111ef565b6105ef91906111ef565b9050600333908060018154018082558091505060019003905f5260205f20015f9091909190916101000a81548173ffffffffffffffffffffffffffffffffffffffff021916908373ffffffffffffffffffffffffffffffffffffffff16021790555060018460ff160361069e576001826002015f82825461067091906111ef565b9250508190555061067f610b08565b826006015f6101000a81548160ff021916908315150217905550610735565b60028460ff16036106eb576001826003015f8282546106bd91906111ef565b925050819055506106cc610b08565b826006015f6101000a81548160ff021916908315150217905550610734565b5f8460ff1603610733576001826004015f82825461070991906111ef565b92505081905550610718610b08565b826006015f6101000a81548160ff0219169083151502179055505b5b5b60018183600501546107479190611563565b148015610772575060018460ff161480610764575060028460ff16145b8061077157505f8460ff16145b5b156107ff575f8260060160016101000a81548160ff02191690831515021790555060405180602001604052805f8054906101000a900473ffffffffffffffffffffffffffffffffffffffff1673ffffffffffffffffffffffffffffffffffffffff1673ffffffffffffffffffffffffffffffffffffffff1681525060039060016107fd929190610c06565b505b50505050565b61080d610bc3565b60025f8381526020019081526020015f20604051806101000160405290815f820180546108399061124f565b80601f01602080910402602001604051908101604052809291908181526020018280546108659061124f565b80156108b05780601f10610887576101008083540402835291602001916108b0565b820191905f5260205f20905b81548152906001019060200180831161089357829003601f168201915b505050505081526020016001820180546108c99061124f565b80601f01602080910402602001604051908101604052809291908181526020018280546108f59061124f565b80156109405780601f1061091757610100808354040283529160200191610940565b820191905f5260205f20905b81548152906001019060200180831161092357829003601f168201915b5050505050815260200160028201548152602001600382015481526020016004820154815260200160058201548152602001600682015f9054906101000a900460ff161515151581526020016006820160019054906101000a900460ff1615151515815250509050919050565b5f805f90505b600380549050811015610a45578273ffffffffffffffffffffffffffffffffffffffff16600382815481106109eb576109ea611596565b5b905f5260205f20015f9054906101000a900473ffffffffffffffffffffffffffffffffffffffff1673ffffffffffffffffffffffffffffffffffffffff1603610a38576001915050610a4a565b80806001019150506109b3565b505f90505b919050565b5f8054906101000a900473ffffffffffffffffffffffffffffffffffffffff1673ffffffffffffffffffffffffffffffffffffffff163373ffffffffffffffffffffffffffffffffffffffff1614610aa5575f80fd5b6001151560025f60015481526020019081526020015f2060060160019054906101000a900460ff16151514610ad8575f80fd5b5f60025f60015481526020019081526020015f2060060160016101000a81548160ff021916908315150217905550565b5f8060025f60015481526020019081526020015f2090505f816002015490505f826003015490505f600160028560040154610b4391906115f0565b03610b6c57600260018560040154610b5b91906111ef565b610b659190611620565b9050610b98565b5f60028560040154610b7e91906115f0565b03610b975760028460040154610b949190611620565b90505b5b8082610ba491906111ef565b831115610bb8576001945050505050610bc0565b5f9450505050505b90565b60405180610100016040528060608152602001606081526020015f81526020015f81526020015f81526020015f81526020015f151581526020015f151581525090565b828054828255905f5260205f20908101928215610c7c579160200282015b82811115610c7b578251825f6101000a81548173ffffffffffffffffffffffffffffffffffffffff021916908373ffffffffffffffffffffffffffffffffffffffff16021790555091602001919060010190610c24565b5b509050610c899190610c8d565b5090565b5b80821115610ca4575f815f905550600101610c8e565b5090565b5f604051905090565b5f80fd5b5f80fd5b5f73ffffffffffffffffffffffffffffffffffffffff82169050919050565b5f610ce282610cb9565b9050919050565b610cf281610cd8565b8114610cfc575f80fd5b50565b5f81359050610d0d81610ce9565b92915050565b5f60208284031215610d2857610d27610cb1565b5b5f610d3584828501610cff565b91505092915050565b5f80fd5b5f80fd5b5f601f19601f8301169050919050565b7f4e487b71000000000000000000000000000000000000000000000000000000005f52604160045260245ffd5b610d8c82610d46565b810181811067ffffffffffffffff82111715610dab57610daa610d56565b5b80604052505050565b5f610dbd610ca8565b9050610dc98282610d83565b919050565b5f67ffffffffffffffff821115610de857610de7610d56565b5b610df182610d46565b9050602081019050919050565b828183375f83830152505050565b5f610e1e610e1984610dce565b610db4565b905082815260208101848484011115610e3a57610e39610d42565b5b610e45848285610dfe565b509392505050565b5f82601f830112610e6157610e60610d3e565b5b8135610e71848260208601610e0c565b91505092915050565b5f80fd5b5f80fd5b5f8083601f840112610e9757610e96610d3e565b5b8235905067ffffffffffffffff811115610eb457610eb3610e7a565b5b602083019150836001820283011115610ed057610ecf610e7e565b5b9250929050565b5f819050919050565b610ee981610ed7565b8114610ef3575f80fd5b50565b5f81359050610f0481610ee0565b92915050565b5f805f8060608587031215610f2257610f21610cb1565b5b5f85013567ffffffffffffffff811115610f3f57610f3e610cb5565b5b610f4b87828801610e4d565b945050602085013567ffffffffffffffff811115610f6c57610f6b610cb5565b5b610f7887828801610e82565b93509350506040610f8b87828801610ef6565b91505092959194509250565b5f81519050919050565b5f82825260208201905092915050565b5f5b83811015610fce578082015181840152602081019050610fb3565b5f8484015250505050565b5f610fe382610f97565b610fed8185610fa1565b9350610ffd818560208601610fb1565b61100681610d46565b840191505092915050565b61101a81610ed7565b82525050565b5f8115159050919050565b61103481611020565b82525050565b5f61010083015f8301518482035f8601526110558282610fd9565b9150506020830151848203602086015261106f8282610fd9565b91505060408301516110846040860182611011565b5060608301516110976060860182611011565b5060808301516110aa6080860182611011565b5060a08301516110bd60a0860182611011565b5060c08301516110d060c086018261102b565b5060e08301516110e360e086018261102b565b508091505092915050565b5f6020820190508181035f830152611106818461103a565b905092915050565b5f60ff82169050919050565b6111238161110e565b811461112d575f80fd5b50565b5f8135905061113e8161111a565b92915050565b5f6020828403121561115957611158610cb1565b5b5f61116684828501611130565b91505092915050565b5f6020828403121561118457611183610cb1565b5b5f61119184828501610ef6565b91505092915050565b6111a381611020565b82525050565b5f6020820190506111bc5f83018461119a565b92915050565b7f4e487b71000000000000000000000000000000000000000000000000000000005f52601160045260245ffd5b5f6111f982610ed7565b915061120483610ed7565b925082820190508082111561121c5761121b6111c2565b5b92915050565b7f4e487b71000000000000000000000000000000000000000000000000000000005f52602260045260245ffd5b5f600282049050600182168061126657607f821691505b60208210810361127957611278611222565b5b50919050565b5f819050815f5260205f209050919050565b5f6020601f8301049050919050565b5f82821b905092915050565b5f600883026112db7fffffffffffffffffffffffffffffffffffffffffffffffffffffffffffffffff826112a0565b6112e586836112a0565b95508019841693508086168417925050509392505050565b5f819050919050565b5f61132061131b61131684610ed7565b6112fd565b610ed7565b9050919050565b5f819050919050565b61133983611306565b61134d61134582611327565b8484546112ac565b825550505050565b5f90565b611361611355565b61136c818484611330565b505050565b5b8181101561138f576113845f82611359565b600181019050611372565b5050565b601f8211156113d4576113a58161127f565b6113ae84611291565b810160208510156113bd578190505b6113d16113c985611291565b830182611371565b50505b505050565b5f82821c905092915050565b5f6113f45f19846008026113d9565b1980831691505092915050565b5f61140c83836113e5565b9150826002028217905092915050565b61142582610f97565b67ffffffffffffffff81111561143e5761143d610d56565b5b611448825461124f565b611453828285611393565b5f60209050601f831160018114611484575f8415611472578287015190505b61147c8582611401565b8655506114e3565b601f1984166114928661127f565b5f5b828110156114b957848901518255600182019150602085019450602081019050611494565b868310156114d657848901516114d2601f8916826113e5565b8355505b6001600288020188555050505b505050505050565b5f82825260208201905092915050565b7f4164647265737320686173206e6f7420766f74656420796574000000000000005f82015250565b5f61152f6019836114eb565b915061153a826114fb565b602082019050919050565b5f6020820190508181035f83015261155c81611523565b9050919050565b5f61156d82610ed7565b915061157883610ed7565b92508282039050818111156115905761158f6111c2565b5b92915050565b7f4e487b71000000000000000000000000000000000000000000000000000000005f52603260045260245ffd5b7f4e487b71000000000000000000000000000000000000000000000000000000005f52601260045260245ffd5b5f6115fa82610ed7565b915061160583610ed7565b925082611615576116146115c3565b5b828206905092915050565b5f61162a82610ed7565b915061163583610ed7565b925082611645576116446115c3565b5b82820490509291505056fea264697066735822122005161028e06a1dc2388a16f1694126d398deb114fbb7281e9f95763fd08d109464736f6c63430008160033",
					"opcodes": "PUSH1 0x80 PUSH1 0x40 MSTORE CALLVALUE DUP1 ISZERO PUSH2 0xF JUMPI PUSH0 DUP1 REVERT JUMPDEST POP CALLER PUSH0 DUP1 PUSH2 0x100 EXP DUP2 SLOAD DUP2 PUSH20 0xFFFFFFFFFFFFFFFFFFFFFFFFFFFFFFFFFFFFFFFF MUL NOT AND SWAP1 DUP4 PUSH20 0xFFFFFFFFFFFFFFFFFFFFFFFFFFFFFFFFFFFFFFFF AND MUL OR SWAP1 SSTORE POP PUSH1 0x3 CALLER SWAP1 DUP1 PUSH1 0x1 DUP2 SLOAD ADD DUP1 DUP3 SSTORE DUP1 SWAP2 POP POP PUSH1 0x1 SWAP1 SUB SWAP1 PUSH0 MSTORE PUSH1 0x20 PUSH0 KECCAK256 ADD PUSH0 SWAP1 SWAP2 SWAP1 SWAP2 SWAP1 SWAP2 PUSH2 0x100 EXP DUP2 SLOAD DUP2 PUSH20 0xFFFFFFFFFFFFFFFFFFFFFFFFFFFFFFFFFFFFFFFF MUL NOT AND SWAP1 DUP4 PUSH20 0xFFFFFFFFFFFFFFFFFFFFFFFFFFFFFFFFFFFFFFFF AND MUL OR SWAP1 SSTORE POP PUSH2 0x1686 DUP1 PUSH2 0xBC PUSH0 CODECOPY PUSH0 RETURN INVALID PUSH1 0x80 PUSH1 0x40 MSTORE CALLVALUE DUP1 ISZERO PUSH2 0xF JUMPI PUSH0 DUP1 REVERT JUMPDEST POP PUSH1 0x4 CALLDATASIZE LT PUSH2 0x7B JUMPI PUSH0 CALLDATALOAD PUSH1 0xE0 SHR DUP1 PUSH4 0xB3F98ADC GT PUSH2 0x59 JUMPI DUP1 PUSH4 0xB3F98ADC EQ PUSH2 0xD5 JUMPI DUP1 PUSH4 0xC7F758A8 EQ PUSH2 0xF1 JUMPI DUP1 PUSH4 0xCBFF75CB EQ PUSH2 0x121 JUMPI DUP1 PUSH4 0xDBDDC7AA EQ PUSH2 0x151 JUMPI PUSH2 0x7B JUMP JUMPDEST DUP1 PUSH4 0x13AF4035 EQ PUSH2 0x7F JUMPI DUP1 PUSH4 0x3CA6D100 EQ PUSH2 0x9B JUMPI DUP1 PUSH4 0x41EC6870 EQ PUSH2 0xB7 JUMPI JUMPDEST PUSH0 DUP1 REVERT JUMPDEST PUSH2 0x99 PUSH1 0x4 DUP1 CALLDATASIZE SUB DUP2 ADD SWAP1 PUSH2 0x94 SWAP2 SWAP1 PUSH2 0xD13 JUMP JUMPDEST PUSH2 0x15B JUMP JUMPDEST STOP JUMPDEST PUSH2 0xB5 PUSH1 0x4 DUP1 CALLDATASIZE SUB DUP2 ADD SWAP1 PUSH2 0xB0 SWAP2 SWAP1 PUSH2 0xF0A JUMP JUMPDEST PUSH2 0x1F3 JUMP JUMPDEST STOP JUMPDEST PUSH2 0xBF PUSH2 0x390 JUMP JUMPDEST PUSH1 0x40 MLOAD PUSH2 0xCC SWAP2 SWAP1 PUSH2 0x10EE JUMP JUMPDEST PUSH1 0x40 MLOAD DUP1 SWAP2 SUB SWAP1 RETURN JUMPDEST PUSH2 0xEF PUSH1 0x4 DUP1 CALLDATASIZE SUB DUP2 ADD SWAP1 PUSH2 0xEA SWAP2 SWAP1 PUSH2 0x1144 JUMP JUMPDEST PUSH2 0x538 JUMP JUMPDEST STOP JUMPDEST PUSH2 0x10B PUSH1 0x4 DUP1 CALLDATASIZE SUB DUP2 ADD SWAP1 PUSH2 0x106 SWAP2 SWAP1 PUSH2 0x116F JUMP JUMPDEST PUSH2 0x805 JUMP JUMPDEST PUSH1 0x40 MLOAD PUSH2 0x118 SWAP2 SWAP1 PUSH2 0x10EE JUMP JUMPDEST PUSH1 0x40 MLOAD DUP1 SWAP2 SUB SWAP1 RETURN JUMPDEST PUSH2 0x13B PUSH1 0x4 DUP1 CALLDATASIZE SUB DUP2 ADD SWAP1 PUSH2 0x136 SWAP2 SWAP1 PUSH2 0xD13 JUMP JUMPDEST PUSH2 0x9AD JUMP JUMPDEST PUSH1 0x40 MLOAD PUSH2 0x148 SWAP2 SWAP1 PUSH2 0x11A9 JUMP JUMPDEST PUSH1 0x40 MLOAD DUP1 SWAP2 SUB SWAP1 RETURN JUMPDEST PUSH2 0x159 PUSH2 0xA4F JUMP JUMPDEST STOP JUMPDEST PUSH0 DUP1 SLOAD SWAP1 PUSH2 0x100 EXP SWAP1 DIV PUSH20 0xFFFFFFFFFFFFFFFFFFFFFFFFFFFFFFFFFFFFFFFF AND PUSH20 0xFFFFFFFFFFFFFFFFFFFFFFFFFFFFFFFFFFFFFFFF AND CALLER PUSH20 0xFFFFFFFFFFFFFFFFFFFFFFFFFFFFFFFFFFFFFFFF AND EQ PUSH2 0x1B1 JUMPI PUSH0 DUP1 REVERT JUMPDEST DUP1 PUSH0 DUP1 PUSH2 0x100 EXP DUP2 SLOAD DUP2 PUSH20 0xFFFFFFFFFFFFFFFFFFFFFFFFFFFFFFFFFFFFFFFF MUL NOT AND SWAP1 DUP4 PUSH20 0xFFFFFFFFFFFFFFFFFFFFFFFFFFFFFFFFFFFFFFFF AND MUL OR SWAP1 SSTORE POP POP JUMP JUMPDEST PUSH0 DUP1 SLOAD SWAP1 PUSH2 0x100 EXP SWAP1 DIV PUSH20 0xFFFFFFFFFFFFFFFFFFFFFFFFFFFFFFFFFFFFFFFF AND PUSH20 0xFFFFFFFFFFFFFFFFFFFFFFFFFFFFFFFFFFFFFFFF AND CALLER PUSH20 0xFFFFFFFFFFFFFFFFFFFFFFFFFFFFFFFFFFFFFFFF AND EQ PUSH2 0x249 JUMPI PUSH0 DUP1 REVERT JUMPDEST PUSH1 0x1 DUP1 PUSH0 DUP3 DUP3 SLOAD PUSH2 0x25A SWAP2 SWAP1 PUSH2 0x11EF JUMP JUMPDEST SWAP3 POP POP DUP2 SWAP1 SSTORE POP PUSH1 0x40 MLOAD DUP1 PUSH2 0x100 ADD PUSH1 0x40 MSTORE DUP1 DUP6 DUP2 MSTORE PUSH1 0x20 ADD DUP5 DUP5 DUP1 DUP1 PUSH1 0x1F ADD PUSH1 0x20 DUP1 SWAP2 DIV MUL PUSH1 0x20 ADD PUSH1 0x40 MLOAD SWAP1 DUP2 ADD PUSH1 0x40 MSTORE DUP1 SWAP4 SWAP3 SWAP2 SWAP1 DUP2 DUP2 MSTORE PUSH1 0x20 ADD DUP4 DUP4 DUP1 DUP3 DUP5 CALLDATACOPY PUSH0 DUP2 DUP5 ADD MSTORE PUSH1 0x1F NOT PUSH1 0x1F DUP3 ADD AND SWAP1 POP DUP1 DUP4 ADD SWAP3 POP POP POP POP POP POP POP DUP2 MSTORE PUSH1 0x20 ADD PUSH0 DUP2 MSTORE PUSH1 0x20 ADD PUSH0 DUP2 MSTORE PUSH1 0x20 ADD PUSH0 DUP2 MSTORE PUSH1 0x20 ADD DUP3 DUP2 MSTORE PUSH1 0x20 ADD PUSH0 ISZERO ISZERO DUP2 MSTORE PUSH1 0x20 ADD PUSH1 0x1 ISZERO ISZERO DUP2 MSTORE POP PUSH1 0x2 PUSH0 PUSH1 0x1 SLOAD DUP2 MSTORE PUSH1 0x20 ADD SWAP1 DUP2 MSTORE PUSH1 0x20 ADD PUSH0 KECCAK256 PUSH0 DUP3 ADD MLOAD DUP2 PUSH0 ADD SWAP1 DUP2 PUSH2 0x309 SWAP2 SWAP1 PUSH2 0x141C JUMP JUMPDEST POP PUSH1 0x20 DUP3 ADD MLOAD DUP2 PUSH1 0x1 ADD SWAP1 DUP2 PUSH2 0x31F SWAP2 SWAP1 PUSH2 0x141C JUMP JUMPDEST POP PUSH1 0x40 DUP3 ADD MLOAD DUP2 PUSH1 0x2 ADD SSTORE PUSH1 0x60 DUP3 ADD MLOAD DUP2 PUSH1 0x3 ADD SSTORE PUSH1 0x80 DUP3 ADD MLOAD DUP2 PUSH1 0x4 ADD SSTORE PUSH1 0xA0 DUP3 ADD MLOAD DUP2 PUSH1 0x5 ADD SSTORE PUSH1 0xC0 DUP3 ADD MLOAD DUP2 PUSH1 0x6 ADD PUSH0 PUSH2 0x100 EXP DUP2 SLOAD DUP2 PUSH1 0xFF MUL NOT AND SWAP1 DUP4 ISZERO ISZERO MUL OR SWAP1 SSTORE POP PUSH1 0xE0 DUP3 ADD MLOAD DUP2 PUSH1 0x6 ADD PUSH1 0x1 PUSH2 0x100 EXP DUP2 SLOAD DUP2 PUSH1 0xFF MUL NOT AND SWAP1 DUP4 ISZERO ISZERO MUL OR SWAP1 SSTORE POP SWAP1 POP POP POP POP POP POP JUMP JUMPDEST PUSH2 0x398 PUSH2 0xBC3 JUMP JUMPDEST PUSH1 0x2 PUSH0 PUSH1 0x1 SLOAD DUP2 MSTORE PUSH1 0x20 ADD SWAP1 DUP2 MSTORE PUSH1 0x20 ADD PUSH0 KECCAK256 PUSH1 0x40 MLOAD DUP1 PUSH2 0x100 ADD PUSH1 0x40 MSTORE SWAP1 DUP2 PUSH0 DUP3 ADD DUP1 SLOAD PUSH2 0x3C6 SWAP1 PUSH2 0x124F JUMP JUMPDEST DUP1 PUSH1 0x1F ADD PUSH1 0x20 DUP1 SWAP2 DIV MUL PUSH1 0x20 ADD PUSH1 0x40 MLOAD SWAP1 DUP2 ADD PUSH1 0x40 MSTORE DUP1 SWAP3 SWAP2 SWAP1 DUP2 DUP2 MSTORE PUSH1 0x20 ADD DUP3 DUP1 SLOAD PUSH2 0x3F2 SWAP1 PUSH2 0x124F JUMP JUMPDEST DUP1 ISZERO PUSH2 0x43D JUMPI DUP1 PUSH1 0x1F LT PUSH2 0x414 JUMPI PUSH2 0x100 DUP1 DUP4 SLOAD DIV MUL DUP4 MSTORE SWAP2 PUSH1 0x20 ADD SWAP2 PUSH2 0x43D JUMP JUMPDEST DUP3 ADD SWAP2 SWAP1 PUSH0 MSTORE PUSH1 0x20 PUSH0 KECCAK256 SWAP1 JUMPDEST DUP2 SLOAD DUP2 MSTORE SWAP1 PUSH1 0x1 ADD SWAP1 PUSH1 0x20 ADD DUP1 DUP4 GT PUSH2 0x420 JUMPI DUP3 SWAP1 SUB PUSH1 0x1F AND DUP3 ADD SWAP2 JUMPDEST POP POP POP POP POP DUP2 MSTORE PUSH1 0x20 ADD PUSH1 0x1 DUP3 ADD DUP1 SLOAD PUSH2 0x456 SWAP1 PUSH2 0x124F JUMP JUMPDEST DUP1 PUSH1 0x1F ADD PUSH1 0x20 DUP1 SWAP2 DIV MUL PUSH1 0x20 ADD PUSH1 0x40 MLOAD SWAP1 DUP2 ADD PUSH1 0x40 MSTORE DUP1 SWAP3 SWAP2 SWAP1 DUP2 DUP2 MSTORE PUSH1 0x20 ADD DUP3 DUP1 SLOAD PUSH2 0x482 SWAP1 PUSH2 0x124F JUMP JUMPDEST DUP1 ISZERO PUSH2 0x4CD JUMPI DUP1 PUSH1 0x1F LT PUSH2 0x4A4 JUMPI PUSH2 0x100 DUP1 DUP4 SLOAD DIV MUL DUP4 MSTORE SWAP2 PUSH1 0x20 ADD SWAP2 PUSH2 0x4CD JUMP JUMPDEST DUP3 ADD SWAP2 SWAP1 PUSH0 MSTORE PUSH1 0x20 PUSH0 KECCAK256 SWAP1 JUMPDEST DUP2 SLOAD DUP2 MSTORE SWAP1 PUSH1 0x1 ADD SWAP1 PUSH1 0x20 ADD DUP1 DUP4 GT PUSH2 0x4B0 JUMPI DUP3 SWAP1 SUB PUSH1 0x1F AND DUP3 ADD SWAP2 JUMPDEST POP POP POP POP POP DUP2 MSTORE PUSH1 0x20 ADD PUSH1 0x2 DUP3 ADD SLOAD DUP2 MSTORE PUSH1 0x20 ADD PUSH1 0x3 DUP3 ADD SLOAD DUP2 MSTORE PUSH1 0x20 ADD PUSH1 0x4 DUP3 ADD SLOAD DUP2 MSTORE PUSH1 0x20 ADD PUSH1 0x5 DUP3 ADD SLOAD DUP2 MSTORE PUSH1 0x20 ADD PUSH1 0x6 DUP3 ADD PUSH0 SWAP1 SLOAD SWAP1 PUSH2 0x100 EXP SWAP1 DIV PUSH1 0xFF AND ISZERO ISZERO ISZERO ISZERO DUP2 MSTORE PUSH1 0x20 ADD PUSH1 0x6 DUP3 ADD PUSH1 0x1 SWAP1 SLOAD SWAP1 PUSH2 0x100 EXP SWAP1 DIV PUSH1 0xFF AND ISZERO ISZERO ISZERO ISZERO DUP2 MSTORE POP POP SWAP1 POP SWAP1 JUMP JUMPDEST PUSH1 0x1 ISZERO ISZERO PUSH1 0x2 PUSH0 PUSH1 0x1 SLOAD DUP2 MSTORE PUSH1 0x20 ADD SWAP1 DUP2 MSTORE PUSH1 0x20 ADD PUSH0 KECCAK256 PUSH1 0x6 ADD PUSH1 0x1 SWAP1 SLOAD SWAP1 PUSH2 0x100 EXP SWAP1 DIV PUSH1 0xFF AND ISZERO ISZERO EQ PUSH2 0x56B JUMPI PUSH0 DUP1 REVERT JUMPDEST CALLER PUSH2 0x575 DUP2 PUSH2 0x9AD JUMP JUMPDEST ISZERO PUSH2 0x5B5 JUMPI PUSH1 0x40 MLOAD PUSH32 0x8C379A000000000000000000000000000000000000000000000000000000000 DUP2 MSTORE PUSH1 0x4 ADD PUSH2 0x5AC SWAP1 PUSH2 0x1545 JUMP JUMPDEST PUSH1 0x40 MLOAD DUP1 SWAP2 SUB SWAP1 REVERT JUMPDEST PUSH0 PUSH1 0x2 PUSH0 PUSH1 0x1 SLOAD DUP2 MSTORE PUSH1 0x20 ADD SWAP1 DUP2 MSTORE PUSH1 0x20 ADD PUSH0 KECCAK256 SWAP1 POP PUSH0 DUP2 PUSH1 0x4 ADD SLOAD DUP3 PUSH1 0x3 ADD SLOAD DUP4 PUSH1 0x2 ADD SLOAD PUSH2 0x5E5 SWAP2 SWAP1 PUSH2 0x11EF JUMP JUMPDEST PUSH2 0x5EF SWAP2 SWAP1 PUSH2 0x11EF JUMP JUMPDEST SWAP1 POP PUSH1 0x3 CALLER SWAP1 DUP1 PUSH1 0x1 DUP2 SLOAD ADD DUP1 DUP3 SSTORE DUP1 SWAP2 POP POP PUSH1 0x1 SWAP1 SUB SWAP1 PUSH0 MSTORE PUSH1 0x20 PUSH0 KECCAK256 ADD PUSH0 SWAP1 SWAP2 SWAP1 SWAP2 SWAP1 SWAP2 PUSH2 0x100 EXP DUP2 SLOAD DUP2 PUSH20 0xFFFFFFFFFFFFFFFFFFFFFFFFFFFFFFFFFFFFFFFF MUL NOT AND SWAP1 DUP4 PUSH20 0xFFFFFFFFFFFFFFFFFFFFFFFFFFFFFFFFFFFFFFFF AND MUL OR SWAP1 SSTORE POP PUSH1 0x1 DUP5 PUSH1 0xFF AND SUB PUSH2 0x69E JUMPI PUSH1 0x1 DUP3 PUSH1 0x2 ADD PUSH0 DUP3 DUP3 SLOAD PUSH2 0x670 SWAP2 SWAP1 PUSH2 0x11EF JUMP JUMPDEST SWAP3 POP POP DUP2 SWAP1 SSTORE POP PUSH2 0x67F PUSH2 0xB08 JUMP JUMPDEST DUP3 PUSH1 0x6 ADD PUSH0 PUSH2 0x100 EXP DUP2 SLOAD DUP2 PUSH1 0xFF MUL NOT AND SWAP1 DUP4 ISZERO ISZERO MUL OR SWAP1 SSTORE POP PUSH2 0x735 JUMP JUMPDEST PUSH1 0x2 DUP5 PUSH1 0xFF AND SUB PUSH2 0x6EB JUMPI PUSH1 0x1 DUP3 PUSH1 0x3 ADD PUSH0 DUP3 DUP3 SLOAD PUSH2 0x6BD SWAP2 SWAP1 PUSH2 0x11EF JUMP JUMPDEST SWAP3 POP POP DUP2 SWAP1 SSTORE POP PUSH2 0x6CC PUSH2 0xB08 JUMP JUMPDEST DUP3 PUSH1 0x6 ADD PUSH0 PUSH2 0x100 EXP DUP2 SLOAD DUP2 PUSH1 0xFF MUL NOT AND SWAP1 DUP4 ISZERO ISZERO MUL OR SWAP1 SSTORE POP PUSH2 0x734 JUMP JUMPDEST PUSH0 DUP5 PUSH1 0xFF AND SUB PUSH2 0x733 JUMPI PUSH1 0x1 DUP3 PUSH1 0x4 ADD PUSH0 DUP3 DUP3 SLOAD PUSH2 0x709 SWAP2 SWAP1 PUSH2 0x11EF JUMP JUMPDEST SWAP3 POP POP DUP2 SWAP1 SSTORE POP PUSH2 0x718 PUSH2 0xB08 JUMP JUMPDEST DUP3 PUSH1 0x6 ADD PUSH0 PUSH2 0x100 EXP DUP2 SLOAD DUP2 PUSH1 0xFF MUL NOT AND SWAP1 DUP4 ISZERO ISZERO MUL OR SWAP1 SSTORE POP JUMPDEST JUMPDEST JUMPDEST PUSH1 0x1 DUP2 DUP4 PUSH1 0x5 ADD SLOAD PUSH2 0x747 SWAP2 SWAP1 PUSH2 0x1563 JUMP JUMPDEST EQ DUP1 ISZERO PUSH2 0x772 JUMPI POP PUSH1 0x1 DUP5 PUSH1 0xFF AND EQ DUP1 PUSH2 0x764 JUMPI POP PUSH1 0x2 DUP5 PUSH1 0xFF AND EQ JUMPDEST DUP1 PUSH2 0x771 JUMPI POP PUSH0 DUP5 PUSH1 0xFF AND EQ JUMPDEST JUMPDEST ISZERO PUSH2 0x7FF JUMPI PUSH0 DUP3 PUSH1 0x6 ADD PUSH1 0x1 PUSH2 0x100 EXP DUP2 SLOAD DUP2 PUSH1 0xFF MUL NOT AND SWAP1 DUP4 ISZERO ISZERO MUL OR SWAP1 SSTORE POP PUSH1 0x40 MLOAD DUP1 PUSH1 0x20 ADD PUSH1 0x40 MSTORE DUP1 PUSH0 DUP1 SLOAD SWAP1 PUSH2 0x100 EXP SWAP1 DIV PUSH20 0xFFFFFFFFFFFFFFFFFFFFFFFFFFFFFFFFFFFFFFFF AND PUSH20 0xFFFFFFFFFFFFFFFFFFFFFFFFFFFFFFFFFFFFFFFF AND PUSH20 0xFFFFFFFFFFFFFFFFFFFFFFFFFFFFFFFFFFFFFFFF AND DUP2 MSTORE POP PUSH1 0x3 SWAP1 PUSH1 0x1 PUSH2 0x7FD SWAP3 SWAP2 SWAP1 PUSH2 0xC06 JUMP JUMPDEST POP JUMPDEST POP POP POP POP JUMP JUMPDEST PUSH2 0x80D PUSH2 0xBC3 JUMP JUMPDEST PUSH1 0x2 PUSH0 DUP4 DUP2 MSTORE PUSH1 0x20 ADD SWAP1 DUP2 MSTORE PUSH1 0x20 ADD PUSH0 KECCAK256 PUSH1 0x40 MLOAD DUP1 PUSH2 0x100 ADD PUSH1 0x40 MSTORE SWAP1 DUP2 PUSH0 DUP3 ADD DUP1 SLOAD PUSH2 0x839 SWAP1 PUSH2 0x124F JUMP JUMPDEST DUP1 PUSH1 0x1F ADD PUSH1 0x20 DUP1 SWAP2 DIV MUL PUSH1 0x20 ADD PUSH1 0x40 MLOAD SWAP1 DUP2 ADD PUSH1 0x40 MSTORE DUP1 SWAP3 SWAP2 SWAP1 DUP2 DUP2 MSTORE PUSH1 0x20 ADD DUP3 DUP1 SLOAD PUSH2 0x865 SWAP1 PUSH2 0x124F JUMP JUMPDEST DUP1 ISZERO PUSH2 0x8B0 JUMPI DUP1 PUSH1 0x1F LT PUSH2 0x887 JUMPI PUSH2 0x100 DUP1 DUP4 SLOAD DIV MUL DUP4 MSTORE SWAP2 PUSH1 0x20 ADD SWAP2 PUSH2 0x8B0 JUMP JUMPDEST DUP3 ADD SWAP2 SWAP1 PUSH0 MSTORE PUSH1 0x20 PUSH0 KECCAK256 SWAP1 JUMPDEST DUP2 SLOAD DUP2 MSTORE SWAP1 PUSH1 0x1 ADD SWAP1 PUSH1 0x20 ADD DUP1 DUP4 GT PUSH2 0x893 JUMPI DUP3 SWAP1 SUB PUSH1 0x1F AND DUP3 ADD SWAP2 JUMPDEST POP POP POP POP POP DUP2 MSTORE PUSH1 0x20 ADD PUSH1 0x1 DUP3 ADD DUP1 SLOAD PUSH2 0x8C9 SWAP1 PUSH2 0x124F JUMP JUMPDEST DUP1 PUSH1 0x1F ADD PUSH1 0x20 DUP1 SWAP2 DIV MUL PUSH1 0x20 ADD PUSH1 0x40 MLOAD SWAP1 DUP2 ADD PUSH1 0x40 MSTORE DUP1 SWAP3 SWAP2 SWAP1 DUP2 DUP2 MSTORE PUSH1 0x20 ADD DUP3 DUP1 SLOAD PUSH2 0x8F5 SWAP1 PUSH2 0x124F JUMP JUMPDEST DUP1 ISZERO PUSH2 0x940 JUMPI DUP1 PUSH1 0x1F LT PUSH2 0x917 JUMPI PUSH2 0x100 DUP1 DUP4 SLOAD DIV MUL DUP4 MSTORE SWAP2 PUSH1 0x20 ADD SWAP2 PUSH2 0x940 JUMP JUMPDEST DUP3 ADD SWAP2 SWAP1 PUSH0 MSTORE PUSH1 0x20 PUSH0 KECCAK256 SWAP1 JUMPDEST DUP2 SLOAD DUP2 MSTORE SWAP1 PUSH1 0x1 ADD SWAP1 PUSH1 0x20 ADD DUP1 DUP4 GT PUSH2 0x923 JUMPI DUP3 SWAP1 SUB PUSH1 0x1F AND DUP3 ADD SWAP2 JUMPDEST POP POP POP POP POP DUP2 MSTORE PUSH1 0x20 ADD PUSH1 0x2 DUP3 ADD SLOAD DUP2 MSTORE PUSH1 0x20 ADD PUSH1 0x3 DUP3 ADD SLOAD DUP2 MSTORE PUSH1 0x20 ADD PUSH1 0x4 DUP3 ADD SLOAD DUP2 MSTORE PUSH1 0x20 ADD PUSH1 0x5 DUP3 ADD SLOAD DUP2 MSTORE PUSH1 0x20 ADD PUSH1 0x6 DUP3 ADD PUSH0 SWAP1 SLOAD SWAP1 PUSH2 0x100 EXP SWAP1 DIV PUSH1 0xFF AND ISZERO ISZERO ISZERO ISZERO DUP2 MSTORE PUSH1 0x20 ADD PUSH1 0x6 DUP3 ADD PUSH1 0x1 SWAP1 SLOAD SWAP1 PUSH2 0x100 EXP SWAP1 DIV PUSH1 0xFF AND ISZERO ISZERO ISZERO ISZERO DUP2 MSTORE POP POP SWAP1 POP SWAP2 SWAP1 POP JUMP JUMPDEST PUSH0 DUP1 PUSH0 SWAP1 POP JUMPDEST PUSH1 0x3 DUP1 SLOAD SWAP1 POP DUP2 LT ISZERO PUSH2 0xA45 JUMPI DUP3 PUSH20 0xFFFFFFFFFFFFFFFFFFFFFFFFFFFFFFFFFFFFFFFF AND PUSH1 0x3 DUP3 DUP2 SLOAD DUP2 LT PUSH2 0x9EB JUMPI PUSH2 0x9EA PUSH2 0x1596 JUMP JUMPDEST JUMPDEST SWAP1 PUSH0 MSTORE PUSH1 0x20 PUSH0 KECCAK256 ADD PUSH0 SWAP1 SLOAD SWAP1 PUSH2 0x100 EXP SWAP1 DIV PUSH20 0xFFFFFFFFFFFFFFFFFFFFFFFFFFFFFFFFFFFFFFFF AND PUSH20 0xFFFFFFFFFFFFFFFFFFFFFFFFFFFFFFFFFFFFFFFF AND SUB PUSH2 0xA38 JUMPI PUSH1 0x1 SWAP2 POP POP PUSH2 0xA4A JUMP JUMPDEST DUP1 DUP1 PUSH1 0x1 ADD SWAP2 POP POP PUSH2 0x9B3 JUMP JUMPDEST POP PUSH0 SWAP1 POP JUMPDEST SWAP2 SWAP1 POP JUMP JUMPDEST PUSH0 DUP1 SLOAD SWAP1 PUSH2 0x100 EXP SWAP1 DIV PUSH20 0xFFFFFFFFFFFFFFFFFFFFFFFFFFFFFFFFFFFFFFFF AND PUSH20 0xFFFFFFFFFFFFFFFFFFFFFFFFFFFFFFFFFFFFFFFF AND CALLER PUSH20 0xFFFFFFFFFFFFFFFFFFFFFFFFFFFFFFFFFFFFFFFF AND EQ PUSH2 0xAA5 JUMPI PUSH0 DUP1 REVERT JUMPDEST PUSH1 0x1 ISZERO ISZERO PUSH1 0x2 PUSH0 PUSH1 0x1 SLOAD DUP2 MSTORE PUSH1 0x20 ADD SWAP1 DUP2 MSTORE PUSH1 0x20 ADD PUSH0 KECCAK256 PUSH1 0x6 ADD PUSH1 0x1 SWAP1 SLOAD SWAP1 PUSH2 0x100 EXP SWAP1 DIV PUSH1 0xFF AND ISZERO ISZERO EQ PUSH2 0xAD8 JUMPI PUSH0 DUP1 REVERT JUMPDEST PUSH0 PUSH1 0x2 PUSH0 PUSH1 0x1 SLOAD DUP2 MSTORE PUSH1 0x20 ADD SWAP1 DUP2 MSTORE PUSH1 0x20 ADD PUSH0 KECCAK256 PUSH1 0x6 ADD PUSH1 0x1 PUSH2 0x100 EXP DUP2 SLOAD DUP2 PUSH1 0xFF MUL NOT AND SWAP1 DUP4 ISZERO ISZERO MUL OR SWAP1 SSTORE POP JUMP JUMPDEST PUSH0 DUP1 PUSH1 0x2 PUSH0 PUSH1 0x1 SLOAD DUP2 MSTORE PUSH1 0x20 ADD SWAP1 DUP2 MSTORE PUSH1 0x20 ADD PUSH0 KECCAK256 SWAP1 POP PUSH0 DUP2 PUSH1 0x2 ADD SLOAD SWAP1 POP PUSH0 DUP3 PUSH1 0x3 ADD SLOAD SWAP1 POP PUSH0 PUSH1 0x1 PUSH1 0x2 DUP6 PUSH1 0x4 ADD SLOAD PUSH2 0xB43 SWAP2 SWAP1 PUSH2 0x15F0 JUMP JUMPDEST SUB PUSH2 0xB6C JUMPI PUSH1 0x2 PUSH1 0x1 DUP6 PUSH1 0x4 ADD SLOAD PUSH2 0xB5B SWAP2 SWAP1 PUSH2 0x11EF JUMP JUMPDEST PUSH2 0xB65 SWAP2 SWAP1 PUSH2 0x1620 JUMP JUMPDEST SWAP1 POP PUSH2 0xB98 JUMP JUMPDEST PUSH0 PUSH1 0x2 DUP6 PUSH1 0x4 ADD SLOAD PUSH2 0xB7E SWAP2 SWAP1 PUSH2 0x15F0 JUMP JUMPDEST SUB PUSH2 0xB97 JUMPI PUSH1 0x2 DUP5 PUSH1 0x4 ADD SLOAD PUSH2 0xB94 SWAP2 SWAP1 PUSH2 0x1620 JUMP JUMPDEST SWAP1 POP JUMPDEST JUMPDEST DUP1 DUP3 PUSH2 0xBA4 SWAP2 SWAP1 PUSH2 0x11EF JUMP JUMPDEST DUP4 GT ISZERO PUSH2 0xBB8 JUMPI PUSH1 0x1 SWAP5 POP POP POP POP POP PUSH2 0xBC0 JUMP JUMPDEST PUSH0 SWAP5 POP POP POP POP POP JUMPDEST SWAP1 JUMP JUMPDEST PUSH1 0x40 MLOAD DUP1 PUSH2 0x100 ADD PUSH1 0x40 MSTORE DUP1 PUSH1 0x60 DUP2 MSTORE PUSH1 0x20 ADD PUSH1 0x60 DUP2 MSTORE PUSH1 0x20 ADD PUSH0 DUP2 MSTORE PUSH1 0x20 ADD PUSH0 DUP2 MSTORE PUSH1 0x20 ADD PUSH0 DUP2 MSTORE PUSH1 0x20 ADD PUSH0 DUP2 MSTORE PUSH1 0x20 ADD PUSH0 ISZERO ISZERO DUP2 MSTORE PUSH1 0x20 ADD PUSH0 ISZERO ISZERO DUP2 MSTORE POP SWAP1 JUMP JUMPDEST DUP3 DUP1 SLOAD DUP3 DUP3 SSTORE SWAP1 PUSH0 MSTORE PUSH1 0x20 PUSH0 KECCAK256 SWAP1 DUP2 ADD SWAP3 DUP3 ISZERO PUSH2 0xC7C JUMPI SWAP2 PUSH1 0x20 MUL DUP3 ADD JUMPDEST DUP3 DUP2 GT ISZERO PUSH2 0xC7B JUMPI DUP3 MLOAD DUP3 PUSH0 PUSH2 0x100 EXP DUP2 SLOAD DUP2 PUSH20 0xFFFFFFFFFFFFFFFFFFFFFFFFFFFFFFFFFFFFFFFF MUL NOT AND SWAP1 DUP4 PUSH20 0xFFFFFFFFFFFFFFFFFFFFFFFFFFFFFFFFFFFFFFFF AND MUL OR SWAP1 SSTORE POP SWAP2 PUSH1 0x20 ADD SWAP2 SWAP1 PUSH1 0x1 ADD SWAP1 PUSH2 0xC24 JUMP JUMPDEST JUMPDEST POP SWAP1 POP PUSH2 0xC89 SWAP2 SWAP1 PUSH2 0xC8D JUMP JUMPDEST POP SWAP1 JUMP JUMPDEST JUMPDEST DUP1 DUP3 GT ISZERO PUSH2 0xCA4 JUMPI PUSH0 DUP2 PUSH0 SWAP1 SSTORE POP PUSH1 0x1 ADD PUSH2 0xC8E JUMP JUMPDEST POP SWAP1 JUMP JUMPDEST PUSH0 PUSH1 0x40 MLOAD SWAP1 POP SWAP1 JUMP JUMPDEST PUSH0 DUP1 REVERT JUMPDEST PUSH0 DUP1 REVERT JUMPDEST PUSH0 PUSH20 0xFFFFFFFFFFFFFFFFFFFFFFFFFFFFFFFFFFFFFFFF DUP3 AND SWAP1 POP SWAP2 SWAP1 POP JUMP JUMPDEST PUSH0 PUSH2 0xCE2 DUP3 PUSH2 0xCB9 JUMP JUMPDEST SWAP1 POP SWAP2 SWAP1 POP JUMP JUMPDEST PUSH2 0xCF2 DUP2 PUSH2 0xCD8 JUMP JUMPDEST DUP2 EQ PUSH2 0xCFC JUMPI PUSH0 DUP1 REVERT JUMPDEST POP JUMP JUMPDEST PUSH0 DUP2 CALLDATALOAD SWAP1 POP PUSH2 0xD0D DUP2 PUSH2 0xCE9 JUMP JUMPDEST SWAP3 SWAP2 POP POP JUMP JUMPDEST PUSH0 PUSH1 0x20 DUP3 DUP5 SUB SLT ISZERO PUSH2 0xD28 JUMPI PUSH2 0xD27 PUSH2 0xCB1 JUMP JUMPDEST JUMPDEST PUSH0 PUSH2 0xD35 DUP5 DUP3 DUP6 ADD PUSH2 0xCFF JUMP JUMPDEST SWAP2 POP POP SWAP3 SWAP2 POP POP JUMP JUMPDEST PUSH0 DUP1 REVERT JUMPDEST PUSH0 DUP1 REVERT JUMPDEST PUSH0 PUSH1 0x1F NOT PUSH1 0x1F DUP4 ADD AND SWAP1 POP SWAP2 SWAP1 POP JUMP JUMPDEST PUSH32 0x4E487B7100000000000000000000000000000000000000000000000000000000 PUSH0 MSTORE PUSH1 0x41 PUSH1 0x4 MSTORE PUSH1 0x24 PUSH0 REVERT JUMPDEST PUSH2 0xD8C DUP3 PUSH2 0xD46 JUMP JUMPDEST DUP2 ADD DUP2 DUP2 LT PUSH8 0xFFFFFFFFFFFFFFFF DUP3 GT OR ISZERO PUSH2 0xDAB JUMPI PUSH2 0xDAA PUSH2 0xD56 JUMP JUMPDEST JUMPDEST DUP1 PUSH1 0x40 MSTORE POP POP POP JUMP JUMPDEST PUSH0 PUSH2 0xDBD PUSH2 0xCA8 JUMP JUMPDEST SWAP1 POP PUSH2 0xDC9 DUP3 DUP3 PUSH2 0xD83 JUMP JUMPDEST SWAP2 SWAP1 POP JUMP JUMPDEST PUSH0 PUSH8 0xFFFFFFFFFFFFFFFF DUP3 GT ISZERO PUSH2 0xDE8 JUMPI PUSH2 0xDE7 PUSH2 0xD56 JUMP JUMPDEST JUMPDEST PUSH2 0xDF1 DUP3 PUSH2 0xD46 JUMP JUMPDEST SWAP1 POP PUSH1 0x20 DUP2 ADD SWAP1 POP SWAP2 SWAP1 POP JUMP JUMPDEST DUP3 DUP2 DUP4 CALLDATACOPY PUSH0 DUP4 DUP4 ADD MSTORE POP POP POP JUMP JUMPDEST PUSH0 PUSH2 0xE1E PUSH2 0xE19 DUP5 PUSH2 0xDCE JUMP JUMPDEST PUSH2 0xDB4 JUMP JUMPDEST SWAP1 POP DUP3 DUP2 MSTORE PUSH1 0x20 DUP2 ADD DUP5 DUP5 DUP5 ADD GT ISZERO PUSH2 0xE3A JUMPI PUSH2 0xE39 PUSH2 0xD42 JUMP JUMPDEST JUMPDEST PUSH2 0xE45 DUP5 DUP3 DUP6 PUSH2 0xDFE JUMP JUMPDEST POP SWAP4 SWAP3 POP POP POP JUMP JUMPDEST PUSH0 DUP3 PUSH1 0x1F DUP4 ADD SLT PUSH2 0xE61 JUMPI PUSH2 0xE60 PUSH2 0xD3E JUMP JUMPDEST JUMPDEST DUP2 CALLDATALOAD PUSH2 0xE71 DUP5 DUP3 PUSH1 0x20 DUP7 ADD PUSH2 0xE0C JUMP JUMPDEST SWAP2 POP POP SWAP3 SWAP2 POP POP JUMP JUMPDEST PUSH0 DUP1 REVERT JUMPDEST PUSH0 DUP1 REVERT JUMPDEST PUSH0 DUP1 DUP4 PUSH1 0x1F DUP5 ADD SLT PUSH2 0xE97 JUMPI PUSH2 0xE96 PUSH2 0xD3E JUMP JUMPDEST JUMPDEST DUP3 CALLDATALOAD SWAP1 POP PUSH8 0xFFFFFFFFFFFFFFFF DUP2 GT ISZERO PUSH2 0xEB4 JUMPI PUSH2 0xEB3 PUSH2 0xE7A JUMP JUMPDEST JUMPDEST PUSH1 0x20 DUP4 ADD SWAP2 POP DUP4 PUSH1 0x1 DUP3 MUL DUP4 ADD GT ISZERO PUSH2 0xED0 JUMPI PUSH2 0xECF PUSH2 0xE7E JUMP JUMPDEST JUMPDEST SWAP3 POP SWAP3 SWAP1 POP JUMP JUMPDEST PUSH0 DUP2 SWAP1 POP SWAP2 SWAP1 POP JUMP JUMPDEST PUSH2 0xEE9 DUP2 PUSH2 0xED7 JUMP JUMPDEST DUP2 EQ PUSH2 0xEF3 JUMPI PUSH0 DUP1 REVERT JUMPDEST POP JUMP JUMPDEST PUSH0 DUP2 CALLDATALOAD SWAP1 POP PUSH2 0xF04 DUP2 PUSH2 0xEE0 JUMP JUMPDEST SWAP3 SWAP2 POP POP JUMP JUMPDEST PUSH0 DUP1 PUSH0 DUP1 PUSH1 0x60 DUP6 DUP8 SUB SLT ISZERO PUSH2 0xF22 JUMPI PUSH2 0xF21 PUSH2 0xCB1 JUMP JUMPDEST JUMPDEST PUSH0 DUP6 ADD CALLDATALOAD PUSH8 0xFFFFFFFFFFFFFFFF DUP2 GT ISZERO PUSH2 0xF3F JUMPI PUSH2 0xF3E PUSH2 0xCB5 JUMP JUMPDEST JUMPDEST PUSH2 0xF4B DUP8 DUP3 DUP9 ADD PUSH2 0xE4D JUMP JUMPDEST SWAP5 POP POP PUSH1 0x20 DUP6 ADD CALLDATALOAD PUSH8 0xFFFFFFFFFFFFFFFF DUP2 GT ISZERO PUSH2 0xF6C JUMPI PUSH2 0xF6B PUSH2 0xCB5 JUMP JUMPDEST JUMPDEST PUSH2 0xF78 DUP8 DUP3 DUP9 ADD PUSH2 0xE82 JUMP JUMPDEST SWAP4 POP SWAP4 POP POP PUSH1 0x40 PUSH2 0xF8B DUP8 DUP3 DUP9 ADD PUSH2 0xEF6 JUMP JUMPDEST SWAP2 POP POP SWAP3 SWAP6 SWAP2 SWAP5 POP SWAP3 POP JUMP JUMPDEST PUSH0 DUP2 MLOAD SWAP1 POP SWAP2 SWAP1 POP JUMP JUMPDEST PUSH0 DUP3 DUP3 MSTORE PUSH1 0x20 DUP3 ADD SWAP1 POP SWAP3 SWAP2 POP POP JUMP JUMPDEST PUSH0 JUMPDEST DUP4 DUP2 LT ISZERO PUSH2 0xFCE JUMPI DUP1 DUP3 ADD MLOAD DUP2 DUP5 ADD MSTORE PUSH1 0x20 DUP2 ADD SWAP1 POP PUSH2 0xFB3 JUMP JUMPDEST PUSH0 DUP5 DUP5 ADD MSTORE POP POP POP POP JUMP JUMPDEST PUSH0 PUSH2 0xFE3 DUP3 PUSH2 0xF97 JUMP JUMPDEST PUSH2 0xFED DUP2 DUP6 PUSH2 0xFA1 JUMP JUMPDEST SWAP4 POP PUSH2 0xFFD DUP2 DUP6 PUSH1 0x20 DUP7 ADD PUSH2 0xFB1 JUMP JUMPDEST PUSH2 0x1006 DUP2 PUSH2 0xD46 JUMP JUMPDEST DUP5 ADD SWAP2 POP POP SWAP3 SWAP2 POP POP JUMP JUMPDEST PUSH2 0x101A DUP2 PUSH2 0xED7 JUMP JUMPDEST DUP3 MSTORE POP POP JUMP JUMPDEST PUSH0 DUP2 ISZERO ISZERO SWAP1 POP SWAP2 SWAP1 POP JUMP JUMPDEST PUSH2 0x1034 DUP2 PUSH2 0x1020 JUMP JUMPDEST DUP3 MSTORE POP POP JUMP JUMPDEST PUSH0 PUSH2 0x100 DUP4 ADD PUSH0 DUP4 ADD MLOAD DUP5 DUP3 SUB PUSH0 DUP7 ADD MSTORE PUSH2 0x1055 DUP3 DUP3 PUSH2 0xFD9 JUMP JUMPDEST SWAP2 POP POP PUSH1 0x20 DUP4 ADD MLOAD DUP5 DUP3 SUB PUSH1 0x20 DUP7 ADD MSTORE PUSH2 0x106F DUP3 DUP3 PUSH2 0xFD9 JUMP JUMPDEST SWAP2 POP POP PUSH1 0x40 DUP4 ADD MLOAD PUSH2 0x1084 PUSH1 0x40 DUP7 ADD DUP3 PUSH2 0x1011 JUMP JUMPDEST POP PUSH1 0x60 DUP4 ADD MLOAD PUSH2 0x1097 PUSH1 0x60 DUP7 ADD DUP3 PUSH2 0x1011 JUMP JUMPDEST POP PUSH1 0x80 DUP4 ADD MLOAD PUSH2 0x10AA PUSH1 0x80 DUP7 ADD DUP3 PUSH2 0x1011 JUMP JUMPDEST POP PUSH1 0xA0 DUP4 ADD MLOAD PUSH2 0x10BD PUSH1 0xA0 DUP7 ADD DUP3 PUSH2 0x1011 JUMP JUMPDEST POP PUSH1 0xC0 DUP4 ADD MLOAD PUSH2 0x10D0 PUSH1 0xC0 DUP7 ADD DUP3 PUSH2 0x102B JUMP JUMPDEST POP PUSH1 0xE0 DUP4 ADD MLOAD PUSH2 0x10E3 PUSH1 0xE0 DUP7 ADD DUP3 PUSH2 0x102B JUMP JUMPDEST POP DUP1 SWAP2 POP POP SWAP3 SWAP2 POP POP JUMP JUMPDEST PUSH0 PUSH1 0x20 DUP3 ADD SWAP1 POP DUP2 DUP2 SUB PUSH0 DUP4 ADD MSTORE PUSH2 0x1106 DUP2 DUP5 PUSH2 0x103A JUMP JUMPDEST SWAP1 POP SWAP3 SWAP2 POP POP JUMP JUMPDEST PUSH0 PUSH1 0xFF DUP3 AND SWAP1 POP SWAP2 SWAP1 POP JUMP JUMPDEST PUSH2 0x1123 DUP2 PUSH2 0x110E JUMP JUMPDEST DUP2 EQ PUSH2 0x112D JUMPI PUSH0 DUP1 REVERT JUMPDEST POP JUMP JUMPDEST PUSH0 DUP2 CALLDATALOAD SWAP1 POP PUSH2 0x113E DUP2 PUSH2 0x111A JUMP JUMPDEST SWAP3 SWAP2 POP POP JUMP JUMPDEST PUSH0 PUSH1 0x20 DUP3 DUP5 SUB SLT ISZERO PUSH2 0x1159 JUMPI PUSH2 0x1158 PUSH2 0xCB1 JUMP JUMPDEST JUMPDEST PUSH0 PUSH2 0x1166 DUP5 DUP3 DUP6 ADD PUSH2 0x1130 JUMP JUMPDEST SWAP2 POP POP SWAP3 SWAP2 POP POP JUMP JUMPDEST PUSH0 PUSH1 0x20 DUP3 DUP5 SUB SLT ISZERO PUSH2 0x1184 JUMPI PUSH2 0x1183 PUSH2 0xCB1 JUMP JUMPDEST JUMPDEST PUSH0 PUSH2 0x1191 DUP5 DUP3 DUP6 ADD PUSH2 0xEF6 JUMP JUMPDEST SWAP2 POP POP SWAP3 SWAP2 POP POP JUMP JUMPDEST PUSH2 0x11A3 DUP2 PUSH2 0x1020 JUMP JUMPDEST DUP3 MSTORE POP POP JUMP JUMPDEST PUSH0 PUSH1 0x20 DUP3 ADD SWAP1 POP PUSH2 0x11BC PUSH0 DUP4 ADD DUP5 PUSH2 0x119A JUMP JUMPDEST SWAP3 SWAP2 POP POP JUMP JUMPDEST PUSH32 0x4E487B7100000000000000000000000000000000000000000000000000000000 PUSH0 MSTORE PUSH1 0x11 PUSH1 0x4 MSTORE PUSH1 0x24 PUSH0 REVERT JUMPDEST PUSH0 PUSH2 0x11F9 DUP3 PUSH2 0xED7 JUMP JUMPDEST SWAP2 POP PUSH2 0x1204 DUP4 PUSH2 0xED7 JUMP JUMPDEST SWAP3 POP DUP3 DUP3 ADD SWAP1 POP DUP1 DUP3 GT ISZERO PUSH2 0x121C JUMPI PUSH2 0x121B PUSH2 0x11C2 JUMP JUMPDEST JUMPDEST SWAP3 SWAP2 POP POP JUMP JUMPDEST PUSH32 0x4E487B7100000000000000000000000000000000000000000000000000000000 PUSH0 MSTORE PUSH1 0x22 PUSH1 0x4 MSTORE PUSH1 0x24 PUSH0 REVERT JUMPDEST PUSH0 PUSH1 0x2 DUP3 DIV SWAP1 POP PUSH1 0x1 DUP3 AND DUP1 PUSH2 0x1266 JUMPI PUSH1 0x7F DUP3 AND SWAP2 POP JUMPDEST PUSH1 0x20 DUP3 LT DUP2 SUB PUSH2 0x1279 JUMPI PUSH2 0x1278 PUSH2 0x1222 JUMP JUMPDEST JUMPDEST POP SWAP2 SWAP1 POP JUMP JUMPDEST PUSH0 DUP2 SWAP1 POP DUP2 PUSH0 MSTORE PUSH1 0x20 PUSH0 KECCAK256 SWAP1 POP SWAP2 SWAP1 POP JUMP JUMPDEST PUSH0 PUSH1 0x20 PUSH1 0x1F DUP4 ADD DIV SWAP1 POP SWAP2 SWAP1 POP JUMP JUMPDEST PUSH0 DUP3 DUP3 SHL SWAP1 POP SWAP3 SWAP2 POP POP JUMP JUMPDEST PUSH0 PUSH1 0x8 DUP4 MUL PUSH2 0x12DB PUSH32 0xFFFFFFFFFFFFFFFFFFFFFFFFFFFFFFFFFFFFFFFFFFFFFFFFFFFFFFFFFFFFFFFF DUP3 PUSH2 0x12A0 JUMP JUMPDEST PUSH2 0x12E5 DUP7 DUP4 PUSH2 0x12A0 JUMP JUMPDEST SWAP6 POP DUP1 NOT DUP5 AND SWAP4 POP DUP1 DUP7 AND DUP5 OR SWAP3 POP POP POP SWAP4 SWAP3 POP POP POP JUMP JUMPDEST PUSH0 DUP2 SWAP1 POP SWAP2 SWAP1 POP JUMP JUMPDEST PUSH0 PUSH2 0x1320 PUSH2 0x131B PUSH2 0x1316 DUP5 PUSH2 0xED7 JUMP JUMPDEST PUSH2 0x12FD JUMP JUMPDEST PUSH2 0xED7 JUMP JUMPDEST SWAP1 POP SWAP2 SWAP1 POP JUMP JUMPDEST PUSH0 DUP2 SWAP1 POP SWAP2 SWAP1 POP JUMP JUMPDEST PUSH2 0x1339 DUP4 PUSH2 0x1306 JUMP JUMPDEST PUSH2 0x134D PUSH2 0x1345 DUP3 PUSH2 0x1327 JUMP JUMPDEST DUP5 DUP5 SLOAD PUSH2 0x12AC JUMP JUMPDEST DUP3 SSTORE POP POP POP POP JUMP JUMPDEST PUSH0 SWAP1 JUMP JUMPDEST PUSH2 0x1361 PUSH2 0x1355 JUMP JUMPDEST PUSH2 0x136C DUP2 DUP5 DUP5 PUSH2 0x1330 JUMP JUMPDEST POP POP POP JUMP JUMPDEST JUMPDEST DUP2 DUP2 LT ISZERO PUSH2 0x138F JUMPI PUSH2 0x1384 PUSH0 DUP3 PUSH2 0x1359 JUMP JUMPDEST PUSH1 0x1 DUP2 ADD SWAP1 POP PUSH2 0x1372 JUMP JUMPDEST POP POP JUMP JUMPDEST PUSH1 0x1F DUP3 GT ISZERO PUSH2 0x13D4 JUMPI PUSH2 0x13A5 DUP2 PUSH2 0x127F JUMP JUMPDEST PUSH2 0x13AE DUP5 PUSH2 0x1291 JUMP JUMPDEST DUP2 ADD PUSH1 0x20 DUP6 LT ISZERO PUSH2 0x13BD JUMPI DUP2 SWAP1 POP JUMPDEST PUSH2 0x13D1 PUSH2 0x13C9 DUP6 PUSH2 0x1291 JUMP JUMPDEST DUP4 ADD DUP3 PUSH2 0x1371 JUMP JUMPDEST POP POP JUMPDEST POP POP POP JUMP JUMPDEST PUSH0 DUP3 DUP3 SHR SWAP1 POP SWAP3 SWAP2 POP POP JUMP JUMPDEST PUSH0 PUSH2 0x13F4 PUSH0 NOT DUP5 PUSH1 0x8 MUL PUSH2 0x13D9 JUMP JUMPDEST NOT DUP1 DUP4 AND SWAP2 POP POP SWAP3 SWAP2 POP POP JUMP JUMPDEST PUSH0 PUSH2 0x140C DUP4 DUP4 PUSH2 0x13E5 JUMP JUMPDEST SWAP2 POP DUP3 PUSH1 0x2 MUL DUP3 OR SWAP1 POP SWAP3 SWAP2 POP POP JUMP JUMPDEST PUSH2 0x1425 DUP3 PUSH2 0xF97 JUMP JUMPDEST PUSH8 0xFFFFFFFFFFFFFFFF DUP2 GT ISZERO PUSH2 0x143E JUMPI PUSH2 0x143D PUSH2 0xD56 JUMP JUMPDEST JUMPDEST PUSH2 0x1448 DUP3 SLOAD PUSH2 0x124F JUMP JUMPDEST PUSH2 0x1453 DUP3 DUP3 DUP6 PUSH2 0x1393 JUMP JUMPDEST PUSH0 PUSH1 0x20 SWAP1 POP PUSH1 0x1F DUP4 GT PUSH1 0x1 DUP2 EQ PUSH2 0x1484 JUMPI PUSH0 DUP5 ISZERO PUSH2 0x1472 JUMPI DUP3 DUP8 ADD MLOAD SWAP1 POP JUMPDEST PUSH2 0x147C DUP6 DUP3 PUSH2 0x1401 JUMP JUMPDEST DUP7 SSTORE POP PUSH2 0x14E3 JUMP JUMPDEST PUSH1 0x1F NOT DUP5 AND PUSH2 0x1492 DUP7 PUSH2 0x127F JUMP JUMPDEST PUSH0 JUMPDEST DUP3 DUP2 LT ISZERO PUSH2 0x14B9 JUMPI DUP5 DUP10 ADD MLOAD DUP3 SSTORE PUSH1 0x1 DUP3 ADD SWAP2 POP PUSH1 0x20 DUP6 ADD SWAP5 POP PUSH1 0x20 DUP2 ADD SWAP1 POP PUSH2 0x1494 JUMP JUMPDEST DUP7 DUP4 LT ISZERO PUSH2 0x14D6 JUMPI DUP5 DUP10 ADD MLOAD PUSH2 0x14D2 PUSH1 0x1F DUP10 AND DUP3 PUSH2 0x13E5 JUMP JUMPDEST DUP4 SSTORE POP JUMPDEST PUSH1 0x1 PUSH1 0x2 DUP9 MUL ADD DUP9 SSTORE POP POP POP JUMPDEST POP POP POP POP POP POP JUMP JUMPDEST PUSH0 DUP3 DUP3 MSTORE PUSH1 0x20 DUP3 ADD SWAP1 POP SWAP3 SWAP2 POP POP JUMP JUMPDEST PUSH32 0x4164647265737320686173206E6F7420766F7465642079657400000000000000 PUSH0 DUP3 ADD MSTORE POP JUMP JUMPDEST PUSH0 PUSH2 0x152F PUSH1 0x19 DUP4 PUSH2 0x14EB JUMP JUMPDEST SWAP2 POP PUSH2 0x153A DUP3 PUSH2 0x14FB JUMP JUMPDEST PUSH1 0x20 DUP3 ADD SWAP1 POP SWAP2 SWAP1 POP JUMP JUMPDEST PUSH0 PUSH1 0x20 DUP3 ADD SWAP1 POP DUP2 DUP2 SUB PUSH0 DUP4 ADD MSTORE PUSH2 0x155C DUP2 PUSH2 0x1523 JUMP JUMPDEST SWAP1 POP SWAP2 SWAP1 POP JUMP JUMPDEST PUSH0 PUSH2 0x156D DUP3 PUSH2 0xED7 JUMP JUMPDEST SWAP2 POP PUSH2 0x1578 DUP4 PUSH2 0xED7 JUMP JUMPDEST SWAP3 POP DUP3 DUP3 SUB SWAP1 POP DUP2 DUP2 GT ISZERO PUSH2 0x1590 JUMPI PUSH2 0x158F PUSH2 0x11C2 JUMP JUMPDEST JUMPDEST SWAP3 SWAP2 POP POP JUMP JUMPDEST PUSH32 0x4E487B7100000000000000000000000000000000000000000000000000000000 PUSH0 MSTORE PUSH1 0x32 PUSH1 0x4 MSTORE PUSH1 0x24 PUSH0 REVERT JUMPDEST PUSH32 0x4E487B7100000000000000000000000000000000000000000000000000000000 PUSH0 MSTORE PUSH1 0x12 PUSH1 0x4 MSTORE PUSH1 0x24 PUSH0 REVERT JUMPDEST PUSH0 PUSH2 0x15FA DUP3 PUSH2 0xED7 JUMP JUMPDEST SWAP2 POP PUSH2 0x1605 DUP4 PUSH2 0xED7 JUMP JUMPDEST SWAP3 POP DUP3 PUSH2 0x1615 JUMPI PUSH2 0x1614 PUSH2 0x15C3 JUMP JUMPDEST JUMPDEST DUP3 DUP3 MOD SWAP1 POP SWAP3 SWAP2 POP POP JUMP JUMPDEST PUSH0 PUSH2 0x162A DUP3 PUSH2 0xED7 JUMP JUMPDEST SWAP2 POP PUSH2 0x1635 DUP4 PUSH2 0xED7 JUMP JUMPDEST SWAP3 POP DUP3 PUSH2 0x1645 JUMPI PUSH2 0x1644 PUSH2 0x15C3 JUMP JUMPDEST JUMPDEST DUP3 DUP3 DIV SWAP1 POP SWAP3 SWAP2 POP POP JUMP INVALID LOG2 PUSH5 0x6970667358 0x22 SLT KECCAK256 SDIV AND LT 0x28 0xE0 PUSH11 0x1DC2388A16F1694126D398 0xDE 0xB1 EQ 0xFB 0xB7 0x28 0x1E SWAP16 SWAP6 PUSH23 0x3FD08D109464736F6C6343000816003300000000000000 "
				},
				"gasEstimates": {
					"creation": {
						"codeDepositCost": "1153200",
						"executionCost": "74038",
						"totalCost": "1227238"
					},
					"external": {
						"create(string,string,uint256)": "infinite",
						"getCurrentProposal()": "infinite",
						"getProposal(uint256)": "infinite",
						"isVoted(address)": "infinite",
						"setOwner(address)": "26882",
						"terminateProposal()": "33276",
						"vote(uint8)": "infinite"
					},
					"internal": {
						"calculateCurrentState()": "infinite"
					}
				},
				"methodIdentifiers": {
					"create(string,string,uint256)": "3ca6d100",
					"getCurrentProposal()": "41ec6870",
					"getProposal(uint256)": "c7f758a8",
					"isVoted(address)": "cbff75cb",
					"setOwner(address)": "13af4035",
					"terminateProposal()": "dbddc7aa",
					"vote(uint8)": "b3f98adc"
				}
			},
			"storageLayout": {
				"storage": [
					{
						"astId": 3,
						"contract": "contracts/proposalContract.sol:ProposalContract",
						"label": "owner",
						"offset": 0,
						"slot": "0",
						"type": "t_address"
					},
					{
						"astId": 5,
						"contract": "contracts/proposalContract.sol:ProposalContract",
						"label": "counter",
						"offset": 0,
						"slot": "1",
						"type": "t_uint256"
					},
					{
						"astId": 27,
						"contract": "contracts/proposalContract.sol:ProposalContract",
						"label": "proposal_history",
						"offset": 0,
						"slot": "2",
						"type": "t_mapping(t_uint256,t_struct(Proposal)22_storage)"
					},
					{
						"astId": 30,
						"contract": "contracts/proposalContract.sol:ProposalContract",
						"label": "voted_addresses",
						"offset": 0,
						"slot": "3",
						"type": "t_array(t_address)dyn_storage"
					}
				],
				"types": {
					"t_address": {
						"encoding": "inplace",
						"label": "address",
						"numberOfBytes": "20"
					},
					"t_array(t_address)dyn_storage": {
						"base": "t_address",
						"encoding": "dynamic_array",
						"label": "address[]",
						"numberOfBytes": "32"
					},
					"t_bool": {
						"encoding": "inplace",
						"label": "bool",
						"numberOfBytes": "1"
					},
					"t_mapping(t_uint256,t_struct(Proposal)22_storage)": {
						"encoding": "mapping",
						"key": "t_uint256",
						"label": "mapping(uint256 => struct ProposalContract.Proposal)",
						"numberOfBytes": "32",
						"value": "t_struct(Proposal)22_storage"
					},
					"t_string_storage": {
						"encoding": "bytes",
						"label": "string",
						"numberOfBytes": "32"
					},
					"t_struct(Proposal)22_storage": {
						"encoding": "inplace",
						"label": "struct ProposalContract.Proposal",
						"members": [
							{
								"astId": 7,
								"contract": "contracts/proposalContract.sol:ProposalContract",
								"label": "title",
								"offset": 0,
								"slot": "0",
								"type": "t_string_storage"
							},
							{
								"astId": 9,
								"contract": "contracts/proposalContract.sol:ProposalContract",
								"label": "description",
								"offset": 0,
								"slot": "1",
								"type": "t_string_storage"
							},
							{
								"astId": 11,
								"contract": "contracts/proposalContract.sol:ProposalContract",
								"label": "approve",
								"offset": 0,
								"slot": "2",
								"type": "t_uint256"
							},
							{
								"astId": 13,
								"contract": "contracts/proposalContract.sol:ProposalContract",
								"label": "reject",
								"offset": 0,
								"slot": "3",
								"type": "t_uint256"
							},
							{
								"astId": 15,
								"contract": "contracts/proposalContract.sol:ProposalContract",
								"label": "pass",
								"offset": 0,
								"slot": "4",
								"type": "t_uint256"
							},
							{
								"astId": 17,
								"contract": "contracts/proposalContract.sol:ProposalContract",
								"label": "total_vote_to_end",
								"offset": 0,
								"slot": "5",
								"type": "t_uint256"
							},
							{
								"astId": 19,
								"contract": "contracts/proposalContract.sol:ProposalContract",
								"label": "current_state",
								"offset": 0,
								"slot": "6",
								"type": "t_bool"
							},
							{
								"astId": 21,
								"contract": "contracts/proposalContract.sol:ProposalContract",
								"label": "is_active",
								"offset": 1,
								"slot": "6",
								"type": "t_bool"
							}
						],
						"numberOfBytes": "224"
					},
					"t_uint256": {
						"encoding": "inplace",
						"label": "uint256",
						"numberOfBytes": "32"
					}
				}
			},
			"userdoc": {
				"kind": "user",
				"methods": {},
				"version": 1
			}
		}
	}
}