{
	"contracts/proposalContract.sol": {
		"ProposalContract": {
			"abi": [
				{
					"inputs": [
						{
							"internalType": "string",
							"name": "_title",
							"type": "string"
						},
						{
							"internalType": "string",
							"name": "_description",
							"type": "string"
						},
						{
							"internalType": "uint256",
							"name": "_totalVoteToEnd",
							"type": "uint256"
						}
					],
					"name": "create",
					"outputs": [],
					"stateMutability": "nonpayable",
					"type": "function"
				}
			],
			"devdoc": {
				"kind": "dev",
				"methods": {},
				"version": 1
			},
			"evm": {
				"assembly": "    /* \"contracts/proposalContract.sol\":112:973  contract ProposalContract {... */\n  mstore(0x40, 0x80)\n  callvalue\n  dup1\n  iszero\n  tag_1\n  jumpi\n  0x00\n  dup1\n  revert\ntag_1:\n  pop\n  dataSize(sub_0)\n  dup1\n  dataOffset(sub_0)\n  0x00\n  codecopy\n  0x00\n  return\nstop\n\nsub_0: assembly {\n        /* \"contracts/proposalContract.sol\":112:973  contract ProposalContract {... */\n      mstore(0x40, 0x80)\n      callvalue\n      dup1\n      iszero\n      tag_1\n      jumpi\n      0x00\n      dup1\n      revert\n    tag_1:\n      pop\n      jumpi(tag_2, lt(calldatasize, 0x04))\n      shr(0xe0, calldataload(0x00))\n      dup1\n      0x3ca6d100\n      eq\n      tag_3\n      jumpi\n    tag_2:\n      0x00\n      dup1\n      revert\n        /* \"contracts/proposalContract.sol\":714:971  function create (string memory _title, string calldata _description, uint256 _totalVoteToEnd) external {... */\n    tag_3:\n      tag_4\n      0x04\n      dup1\n      calldatasize\n      sub\n      dup2\n      add\n      swap1\n      tag_5\n      swap2\n      swap1\n      tag_6\n      jump\t// in\n    tag_5:\n      tag_7\n      jump\t// in\n    tag_4:\n      stop\n    tag_7:\n        /* \"contracts/proposalContract.sol\":827:847  _counter.increment() */\n      tag_9\n        /* \"contracts/proposalContract.sol\":827:835  _counter */\n      0x00\n        /* \"contracts/proposalContract.sol\":827:845  _counter.increment */\n      tag_10\n        /* \"contracts/proposalContract.sol\":827:847  _counter.increment() */\n      jump\t// in\n    tag_9:\n        /* \"contracts/proposalContract.sol\":895:964  Proposal(_title, _description, 0, 0, 0, _totalVoteToEnd, false, true) */\n      mload(0x40)\n      dup1\n      0x0100\n      add\n      0x40\n      mstore\n      dup1\n        /* \"contracts/proposalContract.sol\":904:910  _title */\n      dup6\n        /* \"contracts/proposalContract.sol\":895:964  Proposal(_title, _description, 0, 0, 0, _totalVoteToEnd, false, true) */\n      dup2\n      mstore\n      0x20\n      add\n        /* \"contracts/proposalContract.sol\":912:924  _description */\n      dup5\n      dup5\n        /* \"contracts/proposalContract.sol\":895:964  Proposal(_title, _description, 0, 0, 0, _totalVoteToEnd, false, true) */\n      dup1\n      dup1\n      0x1f\n      add\n      0x20\n      dup1\n      swap2\n      div\n      mul\n      0x20\n      add\n      mload(0x40)\n      swap1\n      dup2\n      add\n      0x40\n      mstore\n      dup1\n      swap4\n      swap3\n      swap2\n      swap1\n      dup2\n      dup2\n      mstore\n      0x20\n      add\n      dup4\n      dup4\n      dup1\n      dup3\n      dup5\n      calldatacopy\n      0x00\n      dup2\n      dup5\n      add\n      mstore\n      not(0x1f)\n      0x1f\n      dup3\n      add\n      and\n      swap1\n      pop\n      dup1\n      dup4\n      add\n      swap3\n      pop\n      pop\n      pop\n      pop\n      pop\n      pop\n      pop\n      dup2\n      mstore\n      0x20\n      add\n        /* \"contracts/proposalContract.sol\":926:927  0 */\n      0x00\n        /* \"contracts/proposalContract.sol\":895:964  Proposal(_title, _description, 0, 0, 0, _totalVoteToEnd, false, true) */\n      dup2\n      mstore\n      0x20\n      add\n        /* \"contracts/proposalContract.sol\":929:930  0 */\n      0x00\n        /* \"contracts/proposalContract.sol\":895:964  Proposal(_title, _description, 0, 0, 0, _totalVoteToEnd, false, true) */\n      dup2\n      mstore\n      0x20\n      add\n        /* \"contracts/proposalContract.sol\":932:933  0 */\n      0x00\n        /* \"contracts/proposalContract.sol\":895:964  Proposal(_title, _description, 0, 0, 0, _totalVoteToEnd, false, true) */\n      dup2\n      mstore\n      0x20\n      add\n        /* \"contracts/proposalContract.sol\":935:950  _totalVoteToEnd */\n      dup3\n        /* \"contracts/proposalContract.sol\":895:964  Proposal(_title, _description, 0, 0, 0, _totalVoteToEnd, false, true) */\n      dup2\n      mstore\n      0x20\n      add\n        /* \"contracts/proposalContract.sol\":952:957  false */\n      0x00\n        /* \"contracts/proposalContract.sol\":895:964  Proposal(_title, _description, 0, 0, 0, _totalVoteToEnd, false, true) */\n      iszero\n      iszero\n      dup2\n      mstore\n      0x20\n      add\n        /* \"contracts/proposalContract.sol\":959:963  true */\n      0x01\n        /* \"contracts/proposalContract.sol\":895:964  Proposal(_title, _description, 0, 0, 0, _totalVoteToEnd, false, true) */\n      iszero\n      iszero\n      dup2\n      mstore\n      pop\n        /* \"contracts/proposalContract.sol\":857:872  proposalHistory */\n      0x01\n        /* \"contracts/proposalContract.sol\":857:892  proposalHistory[_counter.current()] */\n      0x00\n        /* \"contracts/proposalContract.sol\":873:891  _counter.current() */\n      tag_11\n        /* \"contracts/proposalContract.sol\":873:881  _counter */\n      0x00\n        /* \"contracts/proposalContract.sol\":873:889  _counter.current */\n      tag_12\n        /* \"contracts/proposalContract.sol\":873:891  _counter.current() */\n      jump\t// in\n    tag_11:\n        /* \"contracts/proposalContract.sol\":857:892  proposalHistory[_counter.current()] */\n      dup2\n      mstore\n      0x20\n      add\n      swap1\n      dup2\n      mstore\n      0x20\n      add\n      0x00\n      keccak256\n        /* \"contracts/proposalContract.sol\":857:964  proposalHistory[_counter.current()] = Proposal(_title, _description, 0, 0, 0, _totalVoteToEnd, false, true) */\n      0x00\n      dup3\n      add\n      mload\n      dup2\n      0x00\n      add\n      swap1\n      dup2\n      tag_13\n      swap2\n      swap1\n      tag_14\n      jump\t// in\n    tag_13:\n      pop\n      0x20\n      dup3\n      add\n      mload\n      dup2\n      0x01\n      add\n      swap1\n      dup2\n      tag_15\n      swap2\n      swap1\n      tag_14\n      jump\t// in\n    tag_15:\n      pop\n      0x40\n      dup3\n      add\n      mload\n      dup2\n      0x02\n      add\n      sstore\n      0x60\n      dup3\n      add\n      mload\n      dup2\n      0x03\n      add\n      sstore\n      0x80\n      dup3\n      add\n      mload\n      dup2\n      0x04\n      add\n      sstore\n      0xa0\n      dup3\n      add\n      mload\n      dup2\n      0x05\n      add\n      sstore\n      0xc0\n      dup3\n      add\n      mload\n      dup2\n      0x06\n      add\n      exp(0x0100, 0x00)\n      dup2\n      sload\n      dup2\n      0xff\n      mul\n      not\n      and\n      swap1\n      dup4\n      iszero\n      iszero\n      mul\n      or\n      swap1\n      sstore\n      pop\n      0xe0\n      dup3\n      add\n      mload\n      dup2\n      0x06\n      add\n      exp(0x0100, 0x01)\n      dup2\n      sload\n      dup2\n      0xff\n      mul\n      not\n      and\n      swap1\n      dup4\n      iszero\n      iszero\n      mul\n      or\n      swap1\n      sstore\n      pop\n      swap1\n      pop\n      pop\n        /* \"contracts/proposalContract.sol\":714:971  function create (string memory _title, string calldata _description, uint256 _totalVoteToEnd) external {... */\n      pop\n      pop\n      pop\n      pop\n      jump\t// out\n        /* \"@openzeppelin/contracts/utils/Counters.sol\":945:1068  function increment(Counter storage counter) internal {... */\n    tag_10:\n        /* \"@openzeppelin/contracts/utils/Counters.sol\":1050:1051  1 */\n      0x01\n        /* \"@openzeppelin/contracts/utils/Counters.sol\":1032:1039  counter */\n      dup2\n        /* \"@openzeppelin/contracts/utils/Counters.sol\":1032:1046  counter._value */\n      0x00\n      add\n      0x00\n        /* \"@openzeppelin/contracts/utils/Counters.sol\":1032:1051  counter._value += 1 */\n      dup3\n      dup3\n      sload\n      add\n      swap3\n      pop\n      pop\n      dup2\n      swap1\n      sstore\n      pop\n        /* \"@openzeppelin/contracts/utils/Counters.sol\":945:1068  function increment(Counter storage counter) internal {... */\n      pop\n      jump\t// out\n        /* \"@openzeppelin/contracts/utils/Counters.sol\":827:939  function current(Counter storage counter) internal view returns (uint256) {... */\n    tag_12:\n        /* \"@openzeppelin/contracts/utils/Counters.sol\":892:899  uint256 */\n      0x00\n        /* \"@openzeppelin/contracts/utils/Counters.sol\":918:925  counter */\n      dup2\n        /* \"@openzeppelin/contracts/utils/Counters.sol\":918:932  counter._value */\n      0x00\n      add\n      sload\n        /* \"@openzeppelin/contracts/utils/Counters.sol\":911:932  return counter._value */\n      swap1\n      pop\n        /* \"@openzeppelin/contracts/utils/Counters.sol\":827:939  function current(Counter storage counter) internal view returns (uint256) {... */\n      swap2\n      swap1\n      pop\n      jump\t// out\n        /* \"#utility.yul\":7:82   */\n    tag_18:\n        /* \"#utility.yul\":40:46   */\n      0x00\n        /* \"#utility.yul\":73:75   */\n      0x40\n        /* \"#utility.yul\":67:76   */\n      mload\n        /* \"#utility.yul\":57:76   */\n      swap1\n      pop\n        /* \"#utility.yul\":7:82   */\n      swap1\n      jump\t// out\n        /* \"#utility.yul\":88:205   */\n    tag_19:\n        /* \"#utility.yul\":197:198   */\n      0x00\n        /* \"#utility.yul\":194:195   */\n      dup1\n        /* \"#utility.yul\":187:199   */\n      revert\n        /* \"#utility.yul\":211:328   */\n    tag_20:\n        /* \"#utility.yul\":320:321   */\n      0x00\n        /* \"#utility.yul\":317:318   */\n      dup1\n        /* \"#utility.yul\":310:322   */\n      revert\n        /* \"#utility.yul\":334:451   */\n    tag_21:\n        /* \"#utility.yul\":443:444   */\n      0x00\n        /* \"#utility.yul\":440:441   */\n      dup1\n        /* \"#utility.yul\":433:445   */\n      revert\n        /* \"#utility.yul\":457:574   */\n    tag_22:\n        /* \"#utility.yul\":566:567   */\n      0x00\n        /* \"#utility.yul\":563:564   */\n      dup1\n        /* \"#utility.yul\":556:568   */\n      revert\n        /* \"#utility.yul\":580:682   */\n    tag_23:\n        /* \"#utility.yul\":621:627   */\n      0x00\n        /* \"#utility.yul\":672:674   */\n      0x1f\n        /* \"#utility.yul\":668:675   */\n      not\n        /* \"#utility.yul\":663:665   */\n      0x1f\n        /* \"#utility.yul\":656:661   */\n      dup4\n        /* \"#utility.yul\":652:666   */\n      add\n        /* \"#utility.yul\":648:676   */\n      and\n        /* \"#utility.yul\":638:676   */\n      swap1\n      pop\n        /* \"#utility.yul\":580:682   */\n      swap2\n      swap1\n      pop\n      jump\t// out\n        /* \"#utility.yul\":688:868   */\n    tag_24:\n        /* \"#utility.yul\":736:813   */\n      0x4e487b7100000000000000000000000000000000000000000000000000000000\n        /* \"#utility.yul\":733:734   */\n      0x00\n        /* \"#utility.yul\":726:814   */\n      mstore\n        /* \"#utility.yul\":833:837   */\n      0x41\n        /* \"#utility.yul\":830:831   */\n      0x04\n        /* \"#utility.yul\":823:838   */\n      mstore\n        /* \"#utility.yul\":857:861   */\n      0x24\n        /* \"#utility.yul\":854:855   */\n      0x00\n        /* \"#utility.yul\":847:862   */\n      revert\n        /* \"#utility.yul\":874:1155   */\n    tag_25:\n        /* \"#utility.yul\":957:984   */\n      tag_64\n        /* \"#utility.yul\":979:983   */\n      dup3\n        /* \"#utility.yul\":957:984   */\n      tag_23\n      jump\t// in\n    tag_64:\n        /* \"#utility.yul\":949:955   */\n      dup2\n        /* \"#utility.yul\":945:985   */\n      add\n        /* \"#utility.yul\":1087:1093   */\n      dup2\n        /* \"#utility.yul\":1075:1085   */\n      dup2\n        /* \"#utility.yul\":1072:1094   */\n      lt\n        /* \"#utility.yul\":1051:1069   */\n      0xffffffffffffffff\n        /* \"#utility.yul\":1039:1049   */\n      dup3\n        /* \"#utility.yul\":1036:1070   */\n      gt\n        /* \"#utility.yul\":1033:1095   */\n      or\n        /* \"#utility.yul\":1030:1118   */\n      iszero\n      tag_65\n      jumpi\n        /* \"#utility.yul\":1098:1116   */\n      tag_66\n      tag_24\n      jump\t// in\n    tag_66:\n        /* \"#utility.yul\":1030:1118   */\n    tag_65:\n        /* \"#utility.yul\":1138:1148   */\n      dup1\n        /* \"#utility.yul\":1134:1136   */\n      0x40\n        /* \"#utility.yul\":1127:1149   */\n      mstore\n        /* \"#utility.yul\":917:1155   */\n      pop\n        /* \"#utility.yul\":874:1155   */\n      pop\n      pop\n      jump\t// out\n        /* \"#utility.yul\":1161:1290   */\n    tag_26:\n        /* \"#utility.yul\":1195:1201   */\n      0x00\n        /* \"#utility.yul\":1222:1242   */\n      tag_68\n      tag_18\n      jump\t// in\n    tag_68:\n        /* \"#utility.yul\":1212:1242   */\n      swap1\n      pop\n        /* \"#utility.yul\":1251:1284   */\n      tag_69\n        /* \"#utility.yul\":1279:1283   */\n      dup3\n        /* \"#utility.yul\":1271:1277   */\n      dup3\n        /* \"#utility.yul\":1251:1284   */\n      tag_25\n      jump\t// in\n    tag_69:\n        /* \"#utility.yul\":1161:1290   */\n      swap2\n      swap1\n      pop\n      jump\t// out\n        /* \"#utility.yul\":1296:1604   */\n    tag_27:\n        /* \"#utility.yul\":1358:1362   */\n      0x00\n        /* \"#utility.yul\":1448:1466   */\n      0xffffffffffffffff\n        /* \"#utility.yul\":1440:1446   */\n      dup3\n        /* \"#utility.yul\":1437:1467   */\n      gt\n        /* \"#utility.yul\":1434:1490   */\n      iszero\n      tag_71\n      jumpi\n        /* \"#utility.yul\":1470:1488   */\n      tag_72\n      tag_24\n      jump\t// in\n    tag_72:\n        /* \"#utility.yul\":1434:1490   */\n    tag_71:\n        /* \"#utility.yul\":1508:1537   */\n      tag_73\n        /* \"#utility.yul\":1530:1536   */\n      dup3\n        /* \"#utility.yul\":1508:1537   */\n      tag_23\n      jump\t// in\n    tag_73:\n        /* \"#utility.yul\":1500:1537   */\n      swap1\n      pop\n        /* \"#utility.yul\":1592:1596   */\n      0x20\n        /* \"#utility.yul\":1586:1590   */\n      dup2\n        /* \"#utility.yul\":1582:1597   */\n      add\n        /* \"#utility.yul\":1574:1597   */\n      swap1\n      pop\n        /* \"#utility.yul\":1296:1604   */\n      swap2\n      swap1\n      pop\n      jump\t// out\n        /* \"#utility.yul\":1610:1756   */\n    tag_28:\n        /* \"#utility.yul\":1707:1713   */\n      dup3\n        /* \"#utility.yul\":1702:1705   */\n      dup2\n        /* \"#utility.yul\":1697:1700   */\n      dup4\n        /* \"#utility.yul\":1684:1714   */\n      calldatacopy\n        /* \"#utility.yul\":1748:1749   */\n      0x00\n        /* \"#utility.yul\":1739:1745   */\n      dup4\n        /* \"#utility.yul\":1734:1737   */\n      dup4\n        /* \"#utility.yul\":1730:1746   */\n      add\n        /* \"#utility.yul\":1723:1750   */\n      mstore\n        /* \"#utility.yul\":1610:1756   */\n      pop\n      pop\n      pop\n      jump\t// out\n        /* \"#utility.yul\":1762:2187   */\n    tag_29:\n        /* \"#utility.yul\":1840:1845   */\n      0x00\n        /* \"#utility.yul\":1865:1931   */\n      tag_76\n        /* \"#utility.yul\":1881:1930   */\n      tag_77\n        /* \"#utility.yul\":1923:1929   */\n      dup5\n        /* \"#utility.yul\":1881:1930   */\n      tag_27\n      jump\t// in\n    tag_77:\n        /* \"#utility.yul\":1865:1931   */\n      tag_26\n      jump\t// in\n    tag_76:\n        /* \"#utility.yul\":1856:1931   */\n      swap1\n      pop\n        /* \"#utility.yul\":1954:1960   */\n      dup3\n        /* \"#utility.yul\":1947:1952   */\n      dup2\n        /* \"#utility.yul\":1940:1961   */\n      mstore\n        /* \"#utility.yul\":1992:1996   */\n      0x20\n        /* \"#utility.yul\":1985:1990   */\n      dup2\n        /* \"#utility.yul\":1981:1997   */\n      add\n        /* \"#utility.yul\":2030:2033   */\n      dup5\n        /* \"#utility.yul\":2021:2027   */\n      dup5\n        /* \"#utility.yul\":2016:2019   */\n      dup5\n        /* \"#utility.yul\":2012:2028   */\n      add\n        /* \"#utility.yul\":2009:2034   */\n      gt\n        /* \"#utility.yul\":2006:2118   */\n      iszero\n      tag_78\n      jumpi\n        /* \"#utility.yul\":2037:2116   */\n      tag_79\n      tag_22\n      jump\t// in\n    tag_79:\n        /* \"#utility.yul\":2006:2118   */\n    tag_78:\n        /* \"#utility.yul\":2127:2181   */\n      tag_80\n        /* \"#utility.yul\":2174:2180   */\n      dup5\n        /* \"#utility.yul\":2169:2172   */\n      dup3\n        /* \"#utility.yul\":2164:2167   */\n      dup6\n        /* \"#utility.yul\":2127:2181   */\n      tag_28\n      jump\t// in\n    tag_80:\n        /* \"#utility.yul\":1846:2187   */\n      pop\n        /* \"#utility.yul\":1762:2187   */\n      swap4\n      swap3\n      pop\n      pop\n      pop\n      jump\t// out\n        /* \"#utility.yul\":2207:2547   */\n    tag_30:\n        /* \"#utility.yul\":2263:2268   */\n      0x00\n        /* \"#utility.yul\":2312:2315   */\n      dup3\n        /* \"#utility.yul\":2305:2309   */\n      0x1f\n        /* \"#utility.yul\":2297:2303   */\n      dup4\n        /* \"#utility.yul\":2293:2310   */\n      add\n        /* \"#utility.yul\":2289:2316   */\n      slt\n        /* \"#utility.yul\":2279:2401   */\n      tag_82\n      jumpi\n        /* \"#utility.yul\":2320:2399   */\n      tag_83\n      tag_21\n      jump\t// in\n    tag_83:\n        /* \"#utility.yul\":2279:2401   */\n    tag_82:\n        /* \"#utility.yul\":2437:2443   */\n      dup2\n        /* \"#utility.yul\":2424:2444   */\n      calldataload\n        /* \"#utility.yul\":2462:2541   */\n      tag_84\n        /* \"#utility.yul\":2537:2540   */\n      dup5\n        /* \"#utility.yul\":2529:2535   */\n      dup3\n        /* \"#utility.yul\":2522:2526   */\n      0x20\n        /* \"#utility.yul\":2514:2520   */\n      dup7\n        /* \"#utility.yul\":2510:2527   */\n      add\n        /* \"#utility.yul\":2462:2541   */\n      tag_29\n      jump\t// in\n    tag_84:\n        /* \"#utility.yul\":2453:2541   */\n      swap2\n      pop\n        /* \"#utility.yul\":2269:2547   */\n      pop\n        /* \"#utility.yul\":2207:2547   */\n      swap3\n      swap2\n      pop\n      pop\n      jump\t// out\n        /* \"#utility.yul\":2553:2670   */\n    tag_31:\n        /* \"#utility.yul\":2662:2663   */\n      0x00\n        /* \"#utility.yul\":2659:2660   */\n      dup1\n        /* \"#utility.yul\":2652:2664   */\n      revert\n        /* \"#utility.yul\":2676:2793   */\n    tag_32:\n        /* \"#utility.yul\":2785:2786   */\n      0x00\n        /* \"#utility.yul\":2782:2783   */\n      dup1\n        /* \"#utility.yul\":2775:2787   */\n      revert\n        /* \"#utility.yul\":2813:3366   */\n    tag_33:\n        /* \"#utility.yul\":2871:2879   */\n      0x00\n        /* \"#utility.yul\":2881:2887   */\n      dup1\n        /* \"#utility.yul\":2931:2934   */\n      dup4\n        /* \"#utility.yul\":2924:2928   */\n      0x1f\n        /* \"#utility.yul\":2916:2922   */\n      dup5\n        /* \"#utility.yul\":2912:2929   */\n      add\n        /* \"#utility.yul\":2908:2935   */\n      slt\n        /* \"#utility.yul\":2898:3020   */\n      tag_88\n      jumpi\n        /* \"#utility.yul\":2939:3018   */\n      tag_89\n      tag_21\n      jump\t// in\n    tag_89:\n        /* \"#utility.yul\":2898:3020   */\n    tag_88:\n        /* \"#utility.yul\":3052:3058   */\n      dup3\n        /* \"#utility.yul\":3039:3059   */\n      calldataload\n        /* \"#utility.yul\":3029:3059   */\n      swap1\n      pop\n        /* \"#utility.yul\":3082:3100   */\n      0xffffffffffffffff\n        /* \"#utility.yul\":3074:3080   */\n      dup2\n        /* \"#utility.yul\":3071:3101   */\n      gt\n        /* \"#utility.yul\":3068:3185   */\n      iszero\n      tag_90\n      jumpi\n        /* \"#utility.yul\":3104:3183   */\n      tag_91\n      tag_31\n      jump\t// in\n    tag_91:\n        /* \"#utility.yul\":3068:3185   */\n    tag_90:\n        /* \"#utility.yul\":3218:3222   */\n      0x20\n        /* \"#utility.yul\":3210:3216   */\n      dup4\n        /* \"#utility.yul\":3206:3223   */\n      add\n        /* \"#utility.yul\":3194:3223   */\n      swap2\n      pop\n        /* \"#utility.yul\":3272:3275   */\n      dup4\n        /* \"#utility.yul\":3264:3268   */\n      0x01\n        /* \"#utility.yul\":3256:3262   */\n      dup3\n        /* \"#utility.yul\":3252:3269   */\n      mul\n        /* \"#utility.yul\":3242:3250   */\n      dup4\n        /* \"#utility.yul\":3238:3270   */\n      add\n        /* \"#utility.yul\":3235:3276   */\n      gt\n        /* \"#utility.yul\":3232:3360   */\n      iszero\n      tag_92\n      jumpi\n        /* \"#utility.yul\":3279:3358   */\n      tag_93\n      tag_32\n      jump\t// in\n    tag_93:\n        /* \"#utility.yul\":3232:3360   */\n    tag_92:\n        /* \"#utility.yul\":2813:3366   */\n      swap3\n      pop\n      swap3\n      swap1\n      pop\n      jump\t// out\n        /* \"#utility.yul\":3372:3449   */\n    tag_34:\n        /* \"#utility.yul\":3409:3416   */\n      0x00\n        /* \"#utility.yul\":3438:3443   */\n      dup2\n        /* \"#utility.yul\":3427:3443   */\n      swap1\n      pop\n        /* \"#utility.yul\":3372:3449   */\n      swap2\n      swap1\n      pop\n      jump\t// out\n        /* \"#utility.yul\":3455:3577   */\n    tag_35:\n        /* \"#utility.yul\":3528:3552   */\n      tag_96\n        /* \"#utility.yul\":3546:3551   */\n      dup2\n        /* \"#utility.yul\":3528:3552   */\n      tag_34\n      jump\t// in\n    tag_96:\n        /* \"#utility.yul\":3521:3526   */\n      dup2\n        /* \"#utility.yul\":3518:3553   */\n      eq\n        /* \"#utility.yul\":3508:3571   */\n      tag_97\n      jumpi\n        /* \"#utility.yul\":3567:3568   */\n      0x00\n        /* \"#utility.yul\":3564:3565   */\n      dup1\n        /* \"#utility.yul\":3557:3569   */\n      revert\n        /* \"#utility.yul\":3508:3571   */\n    tag_97:\n        /* \"#utility.yul\":3455:3577   */\n      pop\n      jump\t// out\n        /* \"#utility.yul\":3583:3722   */\n    tag_36:\n        /* \"#utility.yul\":3629:3634   */\n      0x00\n        /* \"#utility.yul\":3667:3673   */\n      dup2\n        /* \"#utility.yul\":3654:3674   */\n      calldataload\n        /* \"#utility.yul\":3645:3674   */\n      swap1\n      pop\n        /* \"#utility.yul\":3683:3716   */\n      tag_99\n        /* \"#utility.yul\":3710:3715   */\n      dup2\n        /* \"#utility.yul\":3683:3716   */\n      tag_35\n      jump\t// in\n    tag_99:\n        /* \"#utility.yul\":3583:3722   */\n      swap3\n      swap2\n      pop\n      pop\n      jump\t// out\n        /* \"#utility.yul\":3728:4727   */\n    tag_6:\n        /* \"#utility.yul\":3827:3833   */\n      0x00\n        /* \"#utility.yul\":3835:3841   */\n      dup1\n        /* \"#utility.yul\":3843:3849   */\n      0x00\n        /* \"#utility.yul\":3851:3857   */\n      dup1\n        /* \"#utility.yul\":3900:3902   */\n      0x60\n        /* \"#utility.yul\":3888:3897   */\n      dup6\n        /* \"#utility.yul\":3879:3886   */\n      dup8\n        /* \"#utility.yul\":3875:3898   */\n      sub\n        /* \"#utility.yul\":3871:3903   */\n      slt\n        /* \"#utility.yul\":3868:3987   */\n      iszero\n      tag_101\n      jumpi\n        /* \"#utility.yul\":3906:3985   */\n      tag_102\n      tag_19\n      jump\t// in\n    tag_102:\n        /* \"#utility.yul\":3868:3987   */\n    tag_101:\n        /* \"#utility.yul\":4054:4055   */\n      0x00\n        /* \"#utility.yul\":4043:4052   */\n      dup6\n        /* \"#utility.yul\":4039:4056   */\n      add\n        /* \"#utility.yul\":4026:4057   */\n      calldataload\n        /* \"#utility.yul\":4084:4102   */\n      0xffffffffffffffff\n        /* \"#utility.yul\":4076:4082   */\n      dup2\n        /* \"#utility.yul\":4073:4103   */\n      gt\n        /* \"#utility.yul\":4070:4187   */\n      iszero\n      tag_103\n      jumpi\n        /* \"#utility.yul\":4106:4185   */\n      tag_104\n      tag_20\n      jump\t// in\n    tag_104:\n        /* \"#utility.yul\":4070:4187   */\n    tag_103:\n        /* \"#utility.yul\":4211:4274   */\n      tag_105\n        /* \"#utility.yul\":4266:4273   */\n      dup8\n        /* \"#utility.yul\":4257:4263   */\n      dup3\n        /* \"#utility.yul\":4246:4255   */\n      dup9\n        /* \"#utility.yul\":4242:4264   */\n      add\n        /* \"#utility.yul\":4211:4274   */\n      tag_30\n      jump\t// in\n    tag_105:\n        /* \"#utility.yul\":4201:4274   */\n      swap5\n      pop\n        /* \"#utility.yul\":3997:4284   */\n      pop\n        /* \"#utility.yul\":4351:4353   */\n      0x20\n        /* \"#utility.yul\":4340:4349   */\n      dup6\n        /* \"#utility.yul\":4336:4354   */\n      add\n        /* \"#utility.yul\":4323:4355   */\n      calldataload\n        /* \"#utility.yul\":4382:4400   */\n      0xffffffffffffffff\n        /* \"#utility.yul\":4374:4380   */\n      dup2\n        /* \"#utility.yul\":4371:4401   */\n      gt\n        /* \"#utility.yul\":4368:4485   */\n      iszero\n      tag_106\n      jumpi\n        /* \"#utility.yul\":4404:4483   */\n      tag_107\n      tag_20\n      jump\t// in\n    tag_107:\n        /* \"#utility.yul\":4368:4485   */\n    tag_106:\n        /* \"#utility.yul\":4517:4582   */\n      tag_108\n        /* \"#utility.yul\":4574:4581   */\n      dup8\n        /* \"#utility.yul\":4565:4571   */\n      dup3\n        /* \"#utility.yul\":4554:4563   */\n      dup9\n        /* \"#utility.yul\":4550:4572   */\n      add\n        /* \"#utility.yul\":4517:4582   */\n      tag_33\n      jump\t// in\n    tag_108:\n        /* \"#utility.yul\":4499:4582   */\n      swap4\n      pop\n      swap4\n      pop\n        /* \"#utility.yul\":4294:4592   */\n      pop\n        /* \"#utility.yul\":4631:4633   */\n      0x40\n        /* \"#utility.yul\":4657:4710   */\n      tag_109\n        /* \"#utility.yul\":4702:4709   */\n      dup8\n        /* \"#utility.yul\":4693:4699   */\n      dup3\n        /* \"#utility.yul\":4682:4691   */\n      dup9\n        /* \"#utility.yul\":4678:4700   */\n      add\n        /* \"#utility.yul\":4657:4710   */\n      tag_36\n      jump\t// in\n    tag_109:\n        /* \"#utility.yul\":4647:4710   */\n      swap2\n      pop\n        /* \"#utility.yul\":4602:4720   */\n      pop\n        /* \"#utility.yul\":3728:4727   */\n      swap3\n      swap6\n      swap2\n      swap5\n      pop\n      swap3\n      pop\n      jump\t// out\n        /* \"#utility.yul\":4733:4832   */\n    tag_37:\n        /* \"#utility.yul\":4785:4791   */\n      0x00\n        /* \"#utility.yul\":4819:4824   */\n      dup2\n        /* \"#utility.yul\":4813:4825   */\n      mload\n        /* \"#utility.yul\":4803:4825   */\n      swap1\n      pop\n        /* \"#utility.yul\":4733:4832   */\n      swap2\n      swap1\n      pop\n      jump\t// out\n        /* \"#utility.yul\":4838:5018   */\n    tag_38:\n        /* \"#utility.yul\":4886:4963   */\n      0x4e487b7100000000000000000000000000000000000000000000000000000000\n        /* \"#utility.yul\":4883:4884   */\n      0x00\n        /* \"#utility.yul\":4876:4964   */\n      mstore\n        /* \"#utility.yul\":4983:4987   */\n      0x22\n        /* \"#utility.yul\":4980:4981   */\n      0x04\n        /* \"#utility.yul\":4973:4988   */\n      mstore\n        /* \"#utility.yul\":5007:5011   */\n      0x24\n        /* \"#utility.yul\":5004:5005   */\n      0x00\n        /* \"#utility.yul\":4997:5012   */\n      revert\n        /* \"#utility.yul\":5024:5344   */\n    tag_39:\n        /* \"#utility.yul\":5068:5074   */\n      0x00\n        /* \"#utility.yul\":5105:5106   */\n      0x02\n        /* \"#utility.yul\":5099:5103   */\n      dup3\n        /* \"#utility.yul\":5095:5107   */\n      div\n        /* \"#utility.yul\":5085:5107   */\n      swap1\n      pop\n        /* \"#utility.yul\":5152:5153   */\n      0x01\n        /* \"#utility.yul\":5146:5150   */\n      dup3\n        /* \"#utility.yul\":5142:5154   */\n      and\n        /* \"#utility.yul\":5173:5191   */\n      dup1\n        /* \"#utility.yul\":5163:5244   */\n      tag_113\n      jumpi\n        /* \"#utility.yul\":5229:5233   */\n      0x7f\n        /* \"#utility.yul\":5221:5227   */\n      dup3\n        /* \"#utility.yul\":5217:5234   */\n      and\n        /* \"#utility.yul\":5207:5234   */\n      swap2\n      pop\n        /* \"#utility.yul\":5163:5244   */\n    tag_113:\n        /* \"#utility.yul\":5291:5293   */\n      0x20\n        /* \"#utility.yul\":5283:5289   */\n      dup3\n        /* \"#utility.yul\":5280:5294   */\n      lt\n        /* \"#utility.yul\":5260:5278   */\n      dup2\n        /* \"#utility.yul\":5257:5295   */\n      sub\n        /* \"#utility.yul\":5254:5338   */\n      tag_114\n      jumpi\n        /* \"#utility.yul\":5310:5328   */\n      tag_115\n      tag_38\n      jump\t// in\n    tag_115:\n        /* \"#utility.yul\":5254:5338   */\n    tag_114:\n        /* \"#utility.yul\":5075:5344   */\n      pop\n        /* \"#utility.yul\":5024:5344   */\n      swap2\n      swap1\n      pop\n      jump\t// out\n        /* \"#utility.yul\":5350:5491   */\n    tag_40:\n        /* \"#utility.yul\":5399:5403   */\n      0x00\n        /* \"#utility.yul\":5422:5425   */\n      dup2\n        /* \"#utility.yul\":5414:5425   */\n      swap1\n      pop\n        /* \"#utility.yul\":5445:5448   */\n      dup2\n        /* \"#utility.yul\":5442:5443   */\n      0x00\n        /* \"#utility.yul\":5435:5449   */\n      mstore\n        /* \"#utility.yul\":5479:5483   */\n      0x20\n        /* \"#utility.yul\":5476:5477   */\n      0x00\n        /* \"#utility.yul\":5466:5484   */\n      keccak256\n        /* \"#utility.yul\":5458:5484   */\n      swap1\n      pop\n        /* \"#utility.yul\":5350:5491   */\n      swap2\n      swap1\n      pop\n      jump\t// out\n        /* \"#utility.yul\":5497:5590   */\n    tag_41:\n        /* \"#utility.yul\":5534:5540   */\n      0x00\n        /* \"#utility.yul\":5581:5583   */\n      0x20\n        /* \"#utility.yul\":5576:5578   */\n      0x1f\n        /* \"#utility.yul\":5569:5574   */\n      dup4\n        /* \"#utility.yul\":5565:5579   */\n      add\n        /* \"#utility.yul\":5561:5584   */\n      div\n        /* \"#utility.yul\":5551:5584   */\n      swap1\n      pop\n        /* \"#utility.yul\":5497:5590   */\n      swap2\n      swap1\n      pop\n      jump\t// out\n        /* \"#utility.yul\":5596:5703   */\n    tag_42:\n        /* \"#utility.yul\":5640:5648   */\n      0x00\n        /* \"#utility.yul\":5690:5695   */\n      dup3\n        /* \"#utility.yul\":5684:5688   */\n      dup3\n        /* \"#utility.yul\":5680:5696   */\n      shl\n        /* \"#utility.yul\":5659:5696   */\n      swap1\n      pop\n        /* \"#utility.yul\":5596:5703   */\n      swap3\n      swap2\n      pop\n      pop\n      jump\t// out\n        /* \"#utility.yul\":5709:6102   */\n    tag_43:\n        /* \"#utility.yul\":5778:5784   */\n      0x00\n        /* \"#utility.yul\":5828:5829   */\n      0x08\n        /* \"#utility.yul\":5816:5826   */\n      dup4\n        /* \"#utility.yul\":5812:5830   */\n      mul\n        /* \"#utility.yul\":5851:5948   */\n      tag_120\n        /* \"#utility.yul\":5881:5947   */\n      0xffffffffffffffffffffffffffffffffffffffffffffffffffffffffffffffff\n        /* \"#utility.yul\":5870:5879   */\n      dup3\n        /* \"#utility.yul\":5851:5948   */\n      tag_42\n      jump\t// in\n    tag_120:\n        /* \"#utility.yul\":5969:6008   */\n      tag_121\n        /* \"#utility.yul\":5999:6007   */\n      dup7\n        /* \"#utility.yul\":5988:5997   */\n      dup4\n        /* \"#utility.yul\":5969:6008   */\n      tag_42\n      jump\t// in\n    tag_121:\n        /* \"#utility.yul\":5957:6008   */\n      swap6\n      pop\n        /* \"#utility.yul\":6041:6045   */\n      dup1\n        /* \"#utility.yul\":6037:6046   */\n      not\n        /* \"#utility.yul\":6030:6035   */\n      dup5\n        /* \"#utility.yul\":6026:6047   */\n      and\n        /* \"#utility.yul\":6017:6047   */\n      swap4\n      pop\n        /* \"#utility.yul\":6090:6094   */\n      dup1\n        /* \"#utility.yul\":6080:6088   */\n      dup7\n        /* \"#utility.yul\":6076:6095   */\n      and\n        /* \"#utility.yul\":6069:6074   */\n      dup5\n        /* \"#utility.yul\":6066:6096   */\n      or\n        /* \"#utility.yul\":6056:6096   */\n      swap3\n      pop\n        /* \"#utility.yul\":5785:6102   */\n      pop\n      pop\n        /* \"#utility.yul\":5709:6102   */\n      swap4\n      swap3\n      pop\n      pop\n      pop\n      jump\t// out\n        /* \"#utility.yul\":6108:6168   */\n    tag_44:\n        /* \"#utility.yul\":6136:6139   */\n      0x00\n        /* \"#utility.yul\":6157:6162   */\n      dup2\n        /* \"#utility.yul\":6150:6162   */\n      swap1\n      pop\n        /* \"#utility.yul\":6108:6168   */\n      swap2\n      swap1\n      pop\n      jump\t// out\n        /* \"#utility.yul\":6174:6316   */\n    tag_45:\n        /* \"#utility.yul\":6224:6233   */\n      0x00\n        /* \"#utility.yul\":6257:6310   */\n      tag_124\n        /* \"#utility.yul\":6275:6309   */\n      tag_125\n        /* \"#utility.yul\":6284:6308   */\n      tag_126\n        /* \"#utility.yul\":6302:6307   */\n      dup5\n        /* \"#utility.yul\":6284:6308   */\n      tag_34\n      jump\t// in\n    tag_126:\n        /* \"#utility.yul\":6275:6309   */\n      tag_44\n      jump\t// in\n    tag_125:\n        /* \"#utility.yul\":6257:6310   */\n      tag_34\n      jump\t// in\n    tag_124:\n        /* \"#utility.yul\":6244:6310   */\n      swap1\n      pop\n        /* \"#utility.yul\":6174:6316   */\n      swap2\n      swap1\n      pop\n      jump\t// out\n        /* \"#utility.yul\":6322:6397   */\n    tag_46:\n        /* \"#utility.yul\":6365:6368   */\n      0x00\n        /* \"#utility.yul\":6386:6391   */\n      dup2\n        /* \"#utility.yul\":6379:6391   */\n      swap1\n      pop\n        /* \"#utility.yul\":6322:6397   */\n      swap2\n      swap1\n      pop\n      jump\t// out\n        /* \"#utility.yul\":6403:6672   */\n    tag_47:\n        /* \"#utility.yul\":6513:6552   */\n      tag_129\n        /* \"#utility.yul\":6544:6551   */\n      dup4\n        /* \"#utility.yul\":6513:6552   */\n      tag_45\n      jump\t// in\n    tag_129:\n        /* \"#utility.yul\":6574:6665   */\n      tag_130\n        /* \"#utility.yul\":6623:6664   */\n      tag_131\n        /* \"#utility.yul\":6647:6663   */\n      dup3\n        /* \"#utility.yul\":6623:6664   */\n      tag_46\n      jump\t// in\n    tag_131:\n        /* \"#utility.yul\":6615:6621   */\n      dup5\n        /* \"#utility.yul\":6608:6612   */\n      dup5\n        /* \"#utility.yul\":6602:6613   */\n      sload\n        /* \"#utility.yul\":6574:6665   */\n      tag_43\n      jump\t// in\n    tag_130:\n        /* \"#utility.yul\":6568:6572   */\n      dup3\n        /* \"#utility.yul\":6561:6666   */\n      sstore\n        /* \"#utility.yul\":6479:6672   */\n      pop\n        /* \"#utility.yul\":6403:6672   */\n      pop\n      pop\n      pop\n      jump\t// out\n        /* \"#utility.yul\":6678:6751   */\n    tag_48:\n        /* \"#utility.yul\":6723:6726   */\n      0x00\n        /* \"#utility.yul\":6678:6751   */\n      swap1\n      jump\t// out\n        /* \"#utility.yul\":6757:6946   */\n    tag_49:\n        /* \"#utility.yul\":6834:6866   */\n      tag_134\n      tag_48\n      jump\t// in\n    tag_134:\n        /* \"#utility.yul\":6875:6940   */\n      tag_135\n        /* \"#utility.yul\":6933:6939   */\n      dup2\n        /* \"#utility.yul\":6925:6931   */\n      dup5\n        /* \"#utility.yul\":6919:6923   */\n      dup5\n        /* \"#utility.yul\":6875:6940   */\n      tag_47\n      jump\t// in\n    tag_135:\n        /* \"#utility.yul\":6810:6946   */\n      pop\n        /* \"#utility.yul\":6757:6946   */\n      pop\n      pop\n      jump\t// out\n        /* \"#utility.yul\":6952:7138   */\n    tag_50:\n        /* \"#utility.yul\":7012:7132   */\n    tag_137:\n        /* \"#utility.yul\":7029:7032   */\n      dup2\n        /* \"#utility.yul\":7022:7027   */\n      dup2\n        /* \"#utility.yul\":7019:7033   */\n      lt\n        /* \"#utility.yul\":7012:7132   */\n      iszero\n      tag_139\n      jumpi\n        /* \"#utility.yul\":7083:7122   */\n      tag_140\n        /* \"#utility.yul\":7120:7121   */\n      0x00\n        /* \"#utility.yul\":7113:7118   */\n      dup3\n        /* \"#utility.yul\":7083:7122   */\n      tag_49\n      jump\t// in\n    tag_140:\n        /* \"#utility.yul\":7056:7057   */\n      0x01\n        /* \"#utility.yul\":7049:7054   */\n      dup2\n        /* \"#utility.yul\":7045:7058   */\n      add\n        /* \"#utility.yul\":7036:7058   */\n      swap1\n      pop\n        /* \"#utility.yul\":7012:7132   */\n      jump(tag_137)\n    tag_139:\n        /* \"#utility.yul\":6952:7138   */\n      pop\n      pop\n      jump\t// out\n        /* \"#utility.yul\":7144:7687   */\n    tag_51:\n        /* \"#utility.yul\":7245:7247   */\n      0x1f\n        /* \"#utility.yul\":7240:7243   */\n      dup3\n        /* \"#utility.yul\":7237:7248   */\n      gt\n        /* \"#utility.yul\":7234:7680   */\n      iszero\n      tag_142\n      jumpi\n        /* \"#utility.yul\":7279:7317   */\n      tag_143\n        /* \"#utility.yul\":7311:7316   */\n      dup2\n        /* \"#utility.yul\":7279:7317   */\n      tag_40\n      jump\t// in\n    tag_143:\n        /* \"#utility.yul\":7363:7392   */\n      tag_144\n        /* \"#utility.yul\":7381:7391   */\n      dup5\n        /* \"#utility.yul\":7363:7392   */\n      tag_41\n      jump\t// in\n    tag_144:\n        /* \"#utility.yul\":7353:7361   */\n      dup2\n        /* \"#utility.yul\":7349:7393   */\n      add\n        /* \"#utility.yul\":7546:7548   */\n      0x20\n        /* \"#utility.yul\":7534:7544   */\n      dup6\n        /* \"#utility.yul\":7531:7549   */\n      lt\n        /* \"#utility.yul\":7528:7577   */\n      iszero\n      tag_145\n      jumpi\n        /* \"#utility.yul\":7567:7575   */\n      dup2\n        /* \"#utility.yul\":7552:7575   */\n      swap1\n      pop\n        /* \"#utility.yul\":7528:7577   */\n    tag_145:\n        /* \"#utility.yul\":7590:7670   */\n      tag_146\n        /* \"#utility.yul\":7646:7668   */\n      tag_147\n        /* \"#utility.yul\":7664:7667   */\n      dup6\n        /* \"#utility.yul\":7646:7668   */\n      tag_41\n      jump\t// in\n    tag_147:\n        /* \"#utility.yul\":7636:7644   */\n      dup4\n        /* \"#utility.yul\":7632:7669   */\n      add\n        /* \"#utility.yul\":7619:7630   */\n      dup3\n        /* \"#utility.yul\":7590:7670   */\n      tag_50\n      jump\t// in\n    tag_146:\n        /* \"#utility.yul\":7249:7680   */\n      pop\n      pop\n        /* \"#utility.yul\":7234:7680   */\n    tag_142:\n        /* \"#utility.yul\":7144:7687   */\n      pop\n      pop\n      pop\n      jump\t// out\n        /* \"#utility.yul\":7693:7810   */\n    tag_52:\n        /* \"#utility.yul\":7747:7755   */\n      0x00\n        /* \"#utility.yul\":7797:7802   */\n      dup3\n        /* \"#utility.yul\":7791:7795   */\n      dup3\n        /* \"#utility.yul\":7787:7803   */\n      shr\n        /* \"#utility.yul\":7766:7803   */\n      swap1\n      pop\n        /* \"#utility.yul\":7693:7810   */\n      swap3\n      swap2\n      pop\n      pop\n      jump\t// out\n        /* \"#utility.yul\":7816:7985   */\n    tag_53:\n        /* \"#utility.yul\":7860:7866   */\n      0x00\n        /* \"#utility.yul\":7893:7944   */\n      tag_150\n        /* \"#utility.yul\":7941:7942   */\n      0x00\n        /* \"#utility.yul\":7937:7943   */\n      not\n        /* \"#utility.yul\":7929:7934   */\n      dup5\n        /* \"#utility.yul\":7926:7927   */\n      0x08\n        /* \"#utility.yul\":7922:7935   */\n      mul\n        /* \"#utility.yul\":7893:7944   */\n      tag_52\n      jump\t// in\n    tag_150:\n        /* \"#utility.yul\":7889:7945   */\n      not\n        /* \"#utility.yul\":7974:7978   */\n      dup1\n        /* \"#utility.yul\":7968:7972   */\n      dup4\n        /* \"#utility.yul\":7964:7979   */\n      and\n        /* \"#utility.yul\":7954:7979   */\n      swap2\n      pop\n        /* \"#utility.yul\":7867:7985   */\n      pop\n        /* \"#utility.yul\":7816:7985   */\n      swap3\n      swap2\n      pop\n      pop\n      jump\t// out\n        /* \"#utility.yul\":7990:8285   */\n    tag_54:\n        /* \"#utility.yul\":8066:8070   */\n      0x00\n        /* \"#utility.yul\":8212:8241   */\n      tag_152\n        /* \"#utility.yul\":8237:8240   */\n      dup4\n        /* \"#utility.yul\":8231:8235   */\n      dup4\n        /* \"#utility.yul\":8212:8241   */\n      tag_53\n      jump\t// in\n    tag_152:\n        /* \"#utility.yul\":8204:8241   */\n      swap2\n      pop\n        /* \"#utility.yul\":8274:8277   */\n      dup3\n        /* \"#utility.yul\":8271:8272   */\n      0x02\n        /* \"#utility.yul\":8267:8278   */\n      mul\n        /* \"#utility.yul\":8261:8265   */\n      dup3\n        /* \"#utility.yul\":8258:8279   */\n      or\n        /* \"#utility.yul\":8250:8279   */\n      swap1\n      pop\n        /* \"#utility.yul\":7990:8285   */\n      swap3\n      swap2\n      pop\n      pop\n      jump\t// out\n        /* \"#utility.yul\":8290:9685   */\n    tag_14:\n        /* \"#utility.yul\":8407:8444   */\n      tag_154\n        /* \"#utility.yul\":8440:8443   */\n      dup3\n        /* \"#utility.yul\":8407:8444   */\n      tag_37\n      jump\t// in\n    tag_154:\n        /* \"#utility.yul\":8509:8527   */\n      0xffffffffffffffff\n        /* \"#utility.yul\":8501:8507   */\n      dup2\n        /* \"#utility.yul\":8498:8528   */\n      gt\n        /* \"#utility.yul\":8495:8551   */\n      iszero\n      tag_155\n      jumpi\n        /* \"#utility.yul\":8531:8549   */\n      tag_156\n      tag_24\n      jump\t// in\n    tag_156:\n        /* \"#utility.yul\":8495:8551   */\n    tag_155:\n        /* \"#utility.yul\":8575:8613   */\n      tag_157\n        /* \"#utility.yul\":8607:8611   */\n      dup3\n        /* \"#utility.yul\":8601:8612   */\n      sload\n        /* \"#utility.yul\":8575:8613   */\n      tag_39\n      jump\t// in\n    tag_157:\n        /* \"#utility.yul\":8660:8727   */\n      tag_158\n        /* \"#utility.yul\":8720:8726   */\n      dup3\n        /* \"#utility.yul\":8712:8718   */\n      dup3\n        /* \"#utility.yul\":8706:8710   */\n      dup6\n        /* \"#utility.yul\":8660:8727   */\n      tag_51\n      jump\t// in\n    tag_158:\n        /* \"#utility.yul\":8754:8755   */\n      0x00\n        /* \"#utility.yul\":8778:8782   */\n      0x20\n        /* \"#utility.yul\":8765:8782   */\n      swap1\n      pop\n        /* \"#utility.yul\":8810:8812   */\n      0x1f\n        /* \"#utility.yul\":8802:8808   */\n      dup4\n        /* \"#utility.yul\":8799:8813   */\n      gt\n        /* \"#utility.yul\":8827:8828   */\n      0x01\n        /* \"#utility.yul\":8822:9440   */\n      dup2\n      eq\n      tag_160\n      jumpi\n        /* \"#utility.yul\":9484:9485   */\n      0x00\n        /* \"#utility.yul\":9501:9507   */\n      dup5\n        /* \"#utility.yul\":9498:9575   */\n      iszero\n      tag_161\n      jumpi\n        /* \"#utility.yul\":9550:9559   */\n      dup3\n        /* \"#utility.yul\":9545:9548   */\n      dup8\n        /* \"#utility.yul\":9541:9560   */\n      add\n        /* \"#utility.yul\":9535:9561   */\n      mload\n        /* \"#utility.yul\":9526:9561   */\n      swap1\n      pop\n        /* \"#utility.yul\":9498:9575   */\n    tag_161:\n        /* \"#utility.yul\":9601:9668   */\n      tag_162\n        /* \"#utility.yul\":9661:9667   */\n      dup6\n        /* \"#utility.yul\":9654:9659   */\n      dup3\n        /* \"#utility.yul\":9601:9668   */\n      tag_54\n      jump\t// in\n    tag_162:\n        /* \"#utility.yul\":9595:9599   */\n      dup7\n        /* \"#utility.yul\":9588:9669   */\n      sstore\n        /* \"#utility.yul\":9457:9679   */\n      pop\n        /* \"#utility.yul\":8792:9679   */\n      jump(tag_159)\n        /* \"#utility.yul\":8822:9440   */\n    tag_160:\n        /* \"#utility.yul\":8874:8878   */\n      0x1f\n        /* \"#utility.yul\":8870:8879   */\n      not\n        /* \"#utility.yul\":8862:8868   */\n      dup5\n        /* \"#utility.yul\":8858:8880   */\n      and\n        /* \"#utility.yul\":8908:8945   */\n      tag_163\n        /* \"#utility.yul\":8940:8944   */\n      dup7\n        /* \"#utility.yul\":8908:8945   */\n      tag_40\n      jump\t// in\n    tag_163:\n        /* \"#utility.yul\":8967:8968   */\n      0x00\n        /* \"#utility.yul\":8981:9189   */\n    tag_164:\n        /* \"#utility.yul\":8995:9002   */\n      dup3\n        /* \"#utility.yul\":8992:8993   */\n      dup2\n        /* \"#utility.yul\":8989:9003   */\n      lt\n        /* \"#utility.yul\":8981:9189   */\n      iszero\n      tag_166\n      jumpi\n        /* \"#utility.yul\":9074:9083   */\n      dup5\n        /* \"#utility.yul\":9069:9072   */\n      dup10\n        /* \"#utility.yul\":9065:9084   */\n      add\n        /* \"#utility.yul\":9059:9085   */\n      mload\n        /* \"#utility.yul\":9051:9057   */\n      dup3\n        /* \"#utility.yul\":9044:9086   */\n      sstore\n        /* \"#utility.yul\":9125:9126   */\n      0x01\n        /* \"#utility.yul\":9117:9123   */\n      dup3\n        /* \"#utility.yul\":9113:9127   */\n      add\n        /* \"#utility.yul\":9103:9127   */\n      swap2\n      pop\n        /* \"#utility.yul\":9172:9174   */\n      0x20\n        /* \"#utility.yul\":9161:9170   */\n      dup6\n        /* \"#utility.yul\":9157:9175   */\n      add\n        /* \"#utility.yul\":9144:9175   */\n      swap5\n      pop\n        /* \"#utility.yul\":9018:9022   */\n      0x20\n        /* \"#utility.yul\":9015:9016   */\n      dup2\n        /* \"#utility.yul\":9011:9023   */\n      add\n        /* \"#utility.yul\":9006:9023   */\n      swap1\n      pop\n        /* \"#utility.yul\":8981:9189   */\n      jump(tag_164)\n    tag_166:\n        /* \"#utility.yul\":9217:9223   */\n      dup7\n        /* \"#utility.yul\":9208:9215   */\n      dup4\n        /* \"#utility.yul\":9205:9224   */\n      lt\n        /* \"#utility.yul\":9202:9381   */\n      iszero\n      tag_167\n      jumpi\n        /* \"#utility.yul\":9275:9284   */\n      dup5\n        /* \"#utility.yul\":9270:9273   */\n      dup10\n        /* \"#utility.yul\":9266:9285   */\n      add\n        /* \"#utility.yul\":9260:9286   */\n      mload\n        /* \"#utility.yul\":9318:9366   */\n      tag_168\n        /* \"#utility.yul\":9360:9364   */\n      0x1f\n        /* \"#utility.yul\":9352:9358   */\n      dup10\n        /* \"#utility.yul\":9348:9365   */\n      and\n        /* \"#utility.yul\":9337:9346   */\n      dup3\n        /* \"#utility.yul\":9318:9366   */\n      tag_53\n      jump\t// in\n    tag_168:\n        /* \"#utility.yul\":9310:9316   */\n      dup4\n        /* \"#utility.yul\":9303:9367   */\n      sstore\n        /* \"#utility.yul\":9225:9381   */\n      pop\n        /* \"#utility.yul\":9202:9381   */\n    tag_167:\n        /* \"#utility.yul\":9427:9428   */\n      0x01\n        /* \"#utility.yul\":9423:9424   */\n      0x02\n        /* \"#utility.yul\":9415:9421   */\n      dup9\n        /* \"#utility.yul\":9411:9425   */\n      mul\n        /* \"#utility.yul\":9407:9429   */\n      add\n        /* \"#utility.yul\":9401:9405   */\n      dup9\n        /* \"#utility.yul\":9394:9430   */\n      sstore\n        /* \"#utility.yul\":8829:9440   */\n      pop\n      pop\n      pop\n        /* \"#utility.yul\":8792:9679   */\n    tag_159:\n      pop\n        /* \"#utility.yul\":8382:9685   */\n      pop\n      pop\n      pop\n        /* \"#utility.yul\":8290:9685   */\n      pop\n      pop\n      jump\t// out\n\n    auxdata: 0xa2646970667358221220bb3c793fdc54f6bdf4ba68ecba45664d1789b00351555c0dd8c0912d27e3627c64736f6c63430008160033\n}\n",
				"bytecode": {
					"linkReferences": {},
					"object": "608060405234801561000f575f80fd5b5061071a8061001d5f395ff3fe608060405234801561000f575f80fd5b5060043610610029575f3560e01c80633ca6d1001461002d575b5f80fd5b61004760048036038101906100429190610384565b610049565b005b6100525f610187565b60405180610100016040528085815260200184848080601f0160208091040260200160405190810160405280939291908181526020018383808284375f81840152601f19601f8201169050808301925050505050505081526020015f81526020015f81526020015f81526020018281526020015f151581526020016001151581525060015f6100e05f61019b565b81526020019081526020015f205f820151815f0190816101009190610615565b5060208201518160010190816101169190610615565b5060408201518160020155606082015181600301556080820151816004015560a0820151816005015560c0820151816006015f6101000a81548160ff02191690831515021790555060e08201518160060160016101000a81548160ff02191690831515021790555090505050505050565b6001815f015f828254019250508190555050565b5f815f01549050919050565b5f604051905090565b5f80fd5b5f80fd5b5f80fd5b5f80fd5b5f601f19601f8301169050919050565b7f4e487b71000000000000000000000000000000000000000000000000000000005f52604160045260245ffd5b610206826101c0565b810181811067ffffffffffffffff82111715610225576102246101d0565b5b80604052505050565b5f6102376101a7565b905061024382826101fd565b919050565b5f67ffffffffffffffff821115610262576102616101d0565b5b61026b826101c0565b9050602081019050919050565b828183375f83830152505050565b5f61029861029384610248565b61022e565b9050828152602081018484840111156102b4576102b36101bc565b5b6102bf848285610278565b509392505050565b5f82601f8301126102db576102da6101b8565b5b81356102eb848260208601610286565b91505092915050565b5f80fd5b5f80fd5b5f8083601f840112610311576103106101b8565b5b8235905067ffffffffffffffff81111561032e5761032d6102f4565b5b60208301915083600182028301111561034a576103496102f8565b5b9250929050565b5f819050919050565b61036381610351565b811461036d575f80fd5b50565b5f8135905061037e8161035a565b92915050565b5f805f806060858703121561039c5761039b6101b0565b5b5f85013567ffffffffffffffff8111156103b9576103b86101b4565b5b6103c5878288016102c7565b945050602085013567ffffffffffffffff8111156103e6576103e56101b4565b5b6103f2878288016102fc565b9350935050604061040587828801610370565b91505092959194509250565b5f81519050919050565b7f4e487b71000000000000000000000000000000000000000000000000000000005f52602260045260245ffd5b5f600282049050600182168061045f57607f821691505b6020821081036104725761047161041b565b5b50919050565b5f819050815f5260205f209050919050565b5f6020601f8301049050919050565b5f82821b905092915050565b5f600883026104d47fffffffffffffffffffffffffffffffffffffffffffffffffffffffffffffffff82610499565b6104de8683610499565b95508019841693508086168417925050509392505050565b5f819050919050565b5f61051961051461050f84610351565b6104f6565b610351565b9050919050565b5f819050919050565b610532836104ff565b61054661053e82610520565b8484546104a5565b825550505050565b5f90565b61055a61054e565b610565818484610529565b505050565b5b818110156105885761057d5f82610552565b60018101905061056b565b5050565b601f8211156105cd5761059e81610478565b6105a78461048a565b810160208510156105b6578190505b6105ca6105c28561048a565b83018261056a565b50505b505050565b5f82821c905092915050565b5f6105ed5f19846008026105d2565b1980831691505092915050565b5f61060583836105de565b9150826002028217905092915050565b61061e82610411565b67ffffffffffffffff811115610637576106366101d0565b5b6106418254610448565b61064c82828561058c565b5f60209050601f83116001811461067d575f841561066b578287015190505b61067585826105fa565b8655506106dc565b601f19841661068b86610478565b5f5b828110156106b25784890151825560018201915060208501945060208101905061068d565b868310156106cf57848901516106cb601f8916826105de565b8355505b6001600288020188555050505b50505050505056fea2646970667358221220bb3c793fdc54f6bdf4ba68ecba45664d1789b00351555c0dd8c0912d27e3627c64736f6c63430008160033",
					"opcodes": "PUSH1 0x80 PUSH1 0x40 MSTORE CALLVALUE DUP1 ISZERO PUSH2 0xF JUMPI PUSH0 DUP1 REVERT JUMPDEST POP PUSH2 0x71A DUP1 PUSH2 0x1D PUSH0 CODECOPY PUSH0 RETURN INVALID PUSH1 0x80 PUSH1 0x40 MSTORE CALLVALUE DUP1 ISZERO PUSH2 0xF JUMPI PUSH0 DUP1 REVERT JUMPDEST POP PUSH1 0x4 CALLDATASIZE LT PUSH2 0x29 JUMPI PUSH0 CALLDATALOAD PUSH1 0xE0 SHR DUP1 PUSH4 0x3CA6D100 EQ PUSH2 0x2D JUMPI JUMPDEST PUSH0 DUP1 REVERT JUMPDEST PUSH2 0x47 PUSH1 0x4 DUP1 CALLDATASIZE SUB DUP2 ADD SWAP1 PUSH2 0x42 SWAP2 SWAP1 PUSH2 0x384 JUMP JUMPDEST PUSH2 0x49 JUMP JUMPDEST STOP JUMPDEST PUSH2 0x52 PUSH0 PUSH2 0x187 JUMP JUMPDEST PUSH1 0x40 MLOAD DUP1 PUSH2 0x100 ADD PUSH1 0x40 MSTORE DUP1 DUP6 DUP2 MSTORE PUSH1 0x20 ADD DUP5 DUP5 DUP1 DUP1 PUSH1 0x1F ADD PUSH1 0x20 DUP1 SWAP2 DIV MUL PUSH1 0x20 ADD PUSH1 0x40 MLOAD SWAP1 DUP2 ADD PUSH1 0x40 MSTORE DUP1 SWAP4 SWAP3 SWAP2 SWAP1 DUP2 DUP2 MSTORE PUSH1 0x20 ADD DUP4 DUP4 DUP1 DUP3 DUP5 CALLDATACOPY PUSH0 DUP2 DUP5 ADD MSTORE PUSH1 0x1F NOT PUSH1 0x1F DUP3 ADD AND SWAP1 POP DUP1 DUP4 ADD SWAP3 POP POP POP POP POP POP POP DUP2 MSTORE PUSH1 0x20 ADD PUSH0 DUP2 MSTORE PUSH1 0x20 ADD PUSH0 DUP2 MSTORE PUSH1 0x20 ADD PUSH0 DUP2 MSTORE PUSH1 0x20 ADD DUP3 DUP2 MSTORE PUSH1 0x20 ADD PUSH0 ISZERO ISZERO DUP2 MSTORE PUSH1 0x20 ADD PUSH1 0x1 ISZERO ISZERO DUP2 MSTORE POP PUSH1 0x1 PUSH0 PUSH2 0xE0 PUSH0 PUSH2 0x19B JUMP JUMPDEST DUP2 MSTORE PUSH1 0x20 ADD SWAP1 DUP2 MSTORE PUSH1 0x20 ADD PUSH0 KECCAK256 PUSH0 DUP3 ADD MLOAD DUP2 PUSH0 ADD SWAP1 DUP2 PUSH2 0x100 SWAP2 SWAP1 PUSH2 0x615 JUMP JUMPDEST POP PUSH1 0x20 DUP3 ADD MLOAD DUP2 PUSH1 0x1 ADD SWAP1 DUP2 PUSH2 0x116 SWAP2 SWAP1 PUSH2 0x615 JUMP JUMPDEST POP PUSH1 0x40 DUP3 ADD MLOAD DUP2 PUSH1 0x2 ADD SSTORE PUSH1 0x60 DUP3 ADD MLOAD DUP2 PUSH1 0x3 ADD SSTORE PUSH1 0x80 DUP3 ADD MLOAD DUP2 PUSH1 0x4 ADD SSTORE PUSH1 0xA0 DUP3 ADD MLOAD DUP2 PUSH1 0x5 ADD SSTORE PUSH1 0xC0 DUP3 ADD MLOAD DUP2 PUSH1 0x6 ADD PUSH0 PUSH2 0x100 EXP DUP2 SLOAD DUP2 PUSH1 0xFF MUL NOT AND SWAP1 DUP4 ISZERO ISZERO MUL OR SWAP1 SSTORE POP PUSH1 0xE0 DUP3 ADD MLOAD DUP2 PUSH1 0x6 ADD PUSH1 0x1 PUSH2 0x100 EXP DUP2 SLOAD DUP2 PUSH1 0xFF MUL NOT AND SWAP1 DUP4 ISZERO ISZERO MUL OR SWAP1 SSTORE POP SWAP1 POP POP POP POP POP POP JUMP JUMPDEST PUSH1 0x1 DUP2 PUSH0 ADD PUSH0 DUP3 DUP3 SLOAD ADD SWAP3 POP POP DUP2 SWAP1 SSTORE POP POP JUMP JUMPDEST PUSH0 DUP2 PUSH0 ADD SLOAD SWAP1 POP SWAP2 SWAP1 POP JUMP JUMPDEST PUSH0 PUSH1 0x40 MLOAD SWAP1 POP SWAP1 JUMP JUMPDEST PUSH0 DUP1 REVERT JUMPDEST PUSH0 DUP1 REVERT JUMPDEST PUSH0 DUP1 REVERT JUMPDEST PUSH0 DUP1 REVERT JUMPDEST PUSH0 PUSH1 0x1F NOT PUSH1 0x1F DUP4 ADD AND SWAP1 POP SWAP2 SWAP1 POP JUMP JUMPDEST PUSH32 0x4E487B7100000000000000000000000000000000000000000000000000000000 PUSH0 MSTORE PUSH1 0x41 PUSH1 0x4 MSTORE PUSH1 0x24 PUSH0 REVERT JUMPDEST PUSH2 0x206 DUP3 PUSH2 0x1C0 JUMP JUMPDEST DUP2 ADD DUP2 DUP2 LT PUSH8 0xFFFFFFFFFFFFFFFF DUP3 GT OR ISZERO PUSH2 0x225 JUMPI PUSH2 0x224 PUSH2 0x1D0 JUMP JUMPDEST JUMPDEST DUP1 PUSH1 0x40 MSTORE POP POP POP JUMP JUMPDEST PUSH0 PUSH2 0x237 PUSH2 0x1A7 JUMP JUMPDEST SWAP1 POP PUSH2 0x243 DUP3 DUP3 PUSH2 0x1FD JUMP JUMPDEST SWAP2 SWAP1 POP JUMP JUMPDEST PUSH0 PUSH8 0xFFFFFFFFFFFFFFFF DUP3 GT ISZERO PUSH2 0x262 JUMPI PUSH2 0x261 PUSH2 0x1D0 JUMP JUMPDEST JUMPDEST PUSH2 0x26B DUP3 PUSH2 0x1C0 JUMP JUMPDEST SWAP1 POP PUSH1 0x20 DUP2 ADD SWAP1 POP SWAP2 SWAP1 POP JUMP JUMPDEST DUP3 DUP2 DUP4 CALLDATACOPY PUSH0 DUP4 DUP4 ADD MSTORE POP POP POP JUMP JUMPDEST PUSH0 PUSH2 0x298 PUSH2 0x293 DUP5 PUSH2 0x248 JUMP JUMPDEST PUSH2 0x22E JUMP JUMPDEST SWAP1 POP DUP3 DUP2 MSTORE PUSH1 0x20 DUP2 ADD DUP5 DUP5 DUP5 ADD GT ISZERO PUSH2 0x2B4 JUMPI PUSH2 0x2B3 PUSH2 0x1BC JUMP JUMPDEST JUMPDEST PUSH2 0x2BF DUP5 DUP3 DUP6 PUSH2 0x278 JUMP JUMPDEST POP SWAP4 SWAP3 POP POP POP JUMP JUMPDEST PUSH0 DUP3 PUSH1 0x1F DUP4 ADD SLT PUSH2 0x2DB JUMPI PUSH2 0x2DA PUSH2 0x1B8 JUMP JUMPDEST JUMPDEST DUP2 CALLDATALOAD PUSH2 0x2EB DUP5 DUP3 PUSH1 0x20 DUP7 ADD PUSH2 0x286 JUMP JUMPDEST SWAP2 POP POP SWAP3 SWAP2 POP POP JUMP JUMPDEST PUSH0 DUP1 REVERT JUMPDEST PUSH0 DUP1 REVERT JUMPDEST PUSH0 DUP1 DUP4 PUSH1 0x1F DUP5 ADD SLT PUSH2 0x311 JUMPI PUSH2 0x310 PUSH2 0x1B8 JUMP JUMPDEST JUMPDEST DUP3 CALLDATALOAD SWAP1 POP PUSH8 0xFFFFFFFFFFFFFFFF DUP2 GT ISZERO PUSH2 0x32E JUMPI PUSH2 0x32D PUSH2 0x2F4 JUMP JUMPDEST JUMPDEST PUSH1 0x20 DUP4 ADD SWAP2 POP DUP4 PUSH1 0x1 DUP3 MUL DUP4 ADD GT ISZERO PUSH2 0x34A JUMPI PUSH2 0x349 PUSH2 0x2F8 JUMP JUMPDEST JUMPDEST SWAP3 POP SWAP3 SWAP1 POP JUMP JUMPDEST PUSH0 DUP2 SWAP1 POP SWAP2 SWAP1 POP JUMP JUMPDEST PUSH2 0x363 DUP2 PUSH2 0x351 JUMP JUMPDEST DUP2 EQ PUSH2 0x36D JUMPI PUSH0 DUP1 REVERT JUMPDEST POP JUMP JUMPDEST PUSH0 DUP2 CALLDATALOAD SWAP1 POP PUSH2 0x37E DUP2 PUSH2 0x35A JUMP JUMPDEST SWAP3 SWAP2 POP POP JUMP JUMPDEST PUSH0 DUP1 PUSH0 DUP1 PUSH1 0x60 DUP6 DUP8 SUB SLT ISZERO PUSH2 0x39C JUMPI PUSH2 0x39B PUSH2 0x1B0 JUMP JUMPDEST JUMPDEST PUSH0 DUP6 ADD CALLDATALOAD PUSH8 0xFFFFFFFFFFFFFFFF DUP2 GT ISZERO PUSH2 0x3B9 JUMPI PUSH2 0x3B8 PUSH2 0x1B4 JUMP JUMPDEST JUMPDEST PUSH2 0x3C5 DUP8 DUP3 DUP9 ADD PUSH2 0x2C7 JUMP JUMPDEST SWAP5 POP POP PUSH1 0x20 DUP6 ADD CALLDATALOAD PUSH8 0xFFFFFFFFFFFFFFFF DUP2 GT ISZERO PUSH2 0x3E6 JUMPI PUSH2 0x3E5 PUSH2 0x1B4 JUMP JUMPDEST JUMPDEST PUSH2 0x3F2 DUP8 DUP3 DUP9 ADD PUSH2 0x2FC JUMP JUMPDEST SWAP4 POP SWAP4 POP POP PUSH1 0x40 PUSH2 0x405 DUP8 DUP3 DUP9 ADD PUSH2 0x370 JUMP JUMPDEST SWAP2 POP POP SWAP3 SWAP6 SWAP2 SWAP5 POP SWAP3 POP JUMP JUMPDEST PUSH0 DUP2 MLOAD SWAP1 POP SWAP2 SWAP1 POP JUMP JUMPDEST PUSH32 0x4E487B7100000000000000000000000000000000000000000000000000000000 PUSH0 MSTORE PUSH1 0x22 PUSH1 0x4 MSTORE PUSH1 0x24 PUSH0 REVERT JUMPDEST PUSH0 PUSH1 0x2 DUP3 DIV SWAP1 POP PUSH1 0x1 DUP3 AND DUP1 PUSH2 0x45F JUMPI PUSH1 0x7F DUP3 AND SWAP2 POP JUMPDEST PUSH1 0x20 DUP3 LT DUP2 SUB PUSH2 0x472 JUMPI PUSH2 0x471 PUSH2 0x41B JUMP JUMPDEST JUMPDEST POP SWAP2 SWAP1 POP JUMP JUMPDEST PUSH0 DUP2 SWAP1 POP DUP2 PUSH0 MSTORE PUSH1 0x20 PUSH0 KECCAK256 SWAP1 POP SWAP2 SWAP1 POP JUMP JUMPDEST PUSH0 PUSH1 0x20 PUSH1 0x1F DUP4 ADD DIV SWAP1 POP SWAP2 SWAP1 POP JUMP JUMPDEST PUSH0 DUP3 DUP3 SHL SWAP1 POP SWAP3 SWAP2 POP POP JUMP JUMPDEST PUSH0 PUSH1 0x8 DUP4 MUL PUSH2 0x4D4 PUSH32 0xFFFFFFFFFFFFFFFFFFFFFFFFFFFFFFFFFFFFFFFFFFFFFFFFFFFFFFFFFFFFFFFF DUP3 PUSH2 0x499 JUMP JUMPDEST PUSH2 0x4DE DUP7 DUP4 PUSH2 0x499 JUMP JUMPDEST SWAP6 POP DUP1 NOT DUP5 AND SWAP4 POP DUP1 DUP7 AND DUP5 OR SWAP3 POP POP POP SWAP4 SWAP3 POP POP POP JUMP JUMPDEST PUSH0 DUP2 SWAP1 POP SWAP2 SWAP1 POP JUMP JUMPDEST PUSH0 PUSH2 0x519 PUSH2 0x514 PUSH2 0x50F DUP5 PUSH2 0x351 JUMP JUMPDEST PUSH2 0x4F6 JUMP JUMPDEST PUSH2 0x351 JUMP JUMPDEST SWAP1 POP SWAP2 SWAP1 POP JUMP JUMPDEST PUSH0 DUP2 SWAP1 POP SWAP2 SWAP1 POP JUMP JUMPDEST PUSH2 0x532 DUP4 PUSH2 0x4FF JUMP JUMPDEST PUSH2 0x546 PUSH2 0x53E DUP3 PUSH2 0x520 JUMP JUMPDEST DUP5 DUP5 SLOAD PUSH2 0x4A5 JUMP JUMPDEST DUP3 SSTORE POP POP POP POP JUMP JUMPDEST PUSH0 SWAP1 JUMP JUMPDEST PUSH2 0x55A PUSH2 0x54E JUMP JUMPDEST PUSH2 0x565 DUP2 DUP5 DUP5 PUSH2 0x529 JUMP JUMPDEST POP POP POP JUMP JUMPDEST JUMPDEST DUP2 DUP2 LT ISZERO PUSH2 0x588 JUMPI PUSH2 0x57D PUSH0 DUP3 PUSH2 0x552 JUMP JUMPDEST PUSH1 0x1 DUP2 ADD SWAP1 POP PUSH2 0x56B JUMP JUMPDEST POP POP JUMP JUMPDEST PUSH1 0x1F DUP3 GT ISZERO PUSH2 0x5CD JUMPI PUSH2 0x59E DUP2 PUSH2 0x478 JUMP JUMPDEST PUSH2 0x5A7 DUP5 PUSH2 0x48A JUMP JUMPDEST DUP2 ADD PUSH1 0x20 DUP6 LT ISZERO PUSH2 0x5B6 JUMPI DUP2 SWAP1 POP JUMPDEST PUSH2 0x5CA PUSH2 0x5C2 DUP6 PUSH2 0x48A JUMP JUMPDEST DUP4 ADD DUP3 PUSH2 0x56A JUMP JUMPDEST POP POP JUMPDEST POP POP POP JUMP JUMPDEST PUSH0 DUP3 DUP3 SHR SWAP1 POP SWAP3 SWAP2 POP POP JUMP JUMPDEST PUSH0 PUSH2 0x5ED PUSH0 NOT DUP5 PUSH1 0x8 MUL PUSH2 0x5D2 JUMP JUMPDEST NOT DUP1 DUP4 AND SWAP2 POP POP SWAP3 SWAP2 POP POP JUMP JUMPDEST PUSH0 PUSH2 0x605 DUP4 DUP4 PUSH2 0x5DE JUMP JUMPDEST SWAP2 POP DUP3 PUSH1 0x2 MUL DUP3 OR SWAP1 POP SWAP3 SWAP2 POP POP JUMP JUMPDEST PUSH2 0x61E DUP3 PUSH2 0x411 JUMP JUMPDEST PUSH8 0xFFFFFFFFFFFFFFFF DUP2 GT ISZERO PUSH2 0x637 JUMPI PUSH2 0x636 PUSH2 0x1D0 JUMP JUMPDEST JUMPDEST PUSH2 0x641 DUP3 SLOAD PUSH2 0x448 JUMP JUMPDEST PUSH2 0x64C DUP3 DUP3 DUP6 PUSH2 0x58C JUMP JUMPDEST PUSH0 PUSH1 0x20 SWAP1 POP PUSH1 0x1F DUP4 GT PUSH1 0x1 DUP2 EQ PUSH2 0x67D JUMPI PUSH0 DUP5 ISZERO PUSH2 0x66B JUMPI DUP3 DUP8 ADD MLOAD SWAP1 POP JUMPDEST PUSH2 0x675 DUP6 DUP3 PUSH2 0x5FA JUMP JUMPDEST DUP7 SSTORE POP PUSH2 0x6DC JUMP JUMPDEST PUSH1 0x1F NOT DUP5 AND PUSH2 0x68B DUP7 PUSH2 0x478 JUMP JUMPDEST PUSH0 JUMPDEST DUP3 DUP2 LT ISZERO PUSH2 0x6B2 JUMPI DUP5 DUP10 ADD MLOAD DUP3 SSTORE PUSH1 0x1 DUP3 ADD SWAP2 POP PUSH1 0x20 DUP6 ADD SWAP5 POP PUSH1 0x20 DUP2 ADD SWAP1 POP PUSH2 0x68D JUMP JUMPDEST DUP7 DUP4 LT ISZERO PUSH2 0x6CF JUMPI DUP5 DUP10 ADD MLOAD PUSH2 0x6CB PUSH1 0x1F DUP10 AND DUP3 PUSH2 0x5DE JUMP JUMPDEST DUP4 SSTORE POP JUMPDEST PUSH1 0x1 PUSH1 0x2 DUP9 MUL ADD DUP9 SSTORE POP POP POP JUMPDEST POP POP POP POP POP POP JUMP INVALID LOG2 PUSH5 0x6970667358 0x22 SLT KECCAK256 0xBB EXTCODECOPY PUSH26 0x3FDC54F6BDF4BA68ECBA45664D1789B00351555C0DD8C0912D27 0xE3 PUSH3 0x7C6473 PUSH16 0x6C634300081600330000000000000000 "
				},
				"gasEstimates": {
					"creation": {
						"codeDepositCost": "363600",
						"executionCost": "397",
						"totalCost": "363997"
					},
					"external": {
						"create(string,string,uint256)": "infinite"
					}
				},
				"methodIdentifiers": {
					"create(string,string,uint256)": "3ca6d100"
				}
			},
			"storageLayout": {
				"storage": [
					{
						"astId": 83,
						"contract": "contracts/proposalContract.sol:ProposalContract",
						"label": "_counter",
						"offset": 0,
						"slot": "0",
						"type": "t_struct(Counter)5_storage"
					},
					{
						"astId": 105,
						"contract": "contracts/proposalContract.sol:ProposalContract",
						"label": "proposalHistory",
						"offset": 0,
						"slot": "1",
						"type": "t_mapping(t_uint256,t_struct(Proposal)100_storage)"
					}
				],
				"types": {
					"t_bool": {
						"encoding": "inplace",
						"label": "bool",
						"numberOfBytes": "1"
					},
					"t_mapping(t_uint256,t_struct(Proposal)100_storage)": {
						"encoding": "mapping",
						"key": "t_uint256",
						"label": "mapping(uint256 => struct ProposalContract.Proposal)",
						"numberOfBytes": "32",
						"value": "t_struct(Proposal)100_storage"
					},
					"t_string_storage": {
						"encoding": "bytes",
						"label": "string",
						"numberOfBytes": "32"
					},
					"t_struct(Counter)5_storage": {
						"encoding": "inplace",
						"label": "struct Counters.Counter",
						"members": [
							{
								"astId": 4,
								"contract": "contracts/proposalContract.sol:ProposalContract",
								"label": "_value",
								"offset": 0,
								"slot": "0",
								"type": "t_uint256"
							}
						],
						"numberOfBytes": "32"
					},
					"t_struct(Proposal)100_storage": {
						"encoding": "inplace",
						"label": "struct ProposalContract.Proposal",
						"members": [
							{
								"astId": 85,
								"contract": "contracts/proposalContract.sol:ProposalContract",
								"label": "title",
								"offset": 0,
								"slot": "0",
								"type": "t_string_storage"
							},
							{
								"astId": 87,
								"contract": "contracts/proposalContract.sol:ProposalContract",
								"label": "description",
								"offset": 0,
								"slot": "1",
								"type": "t_string_storage"
							},
							{
								"astId": 89,
								"contract": "contracts/proposalContract.sol:ProposalContract",
								"label": "approve",
								"offset": 0,
								"slot": "2",
								"type": "t_uint256"
							},
							{
								"astId": 91,
								"contract": "contracts/proposalContract.sol:ProposalContract",
								"label": "reject",
								"offset": 0,
								"slot": "3",
								"type": "t_uint256"
							},
							{
								"astId": 93,
								"contract": "contracts/proposalContract.sol:ProposalContract",
								"label": "pass",
								"offset": 0,
								"slot": "4",
								"type": "t_uint256"
							},
							{
								"astId": 95,
								"contract": "contracts/proposalContract.sol:ProposalContract",
								"label": "totalVoteToEnd",
								"offset": 0,
								"slot": "5",
								"type": "t_uint256"
							},
							{
								"astId": 97,
								"contract": "contracts/proposalContract.sol:ProposalContract",
								"label": "currentState",
								"offset": 0,
								"slot": "6",
								"type": "t_bool"
							},
							{
								"astId": 99,
								"contract": "contracts/proposalContract.sol:ProposalContract",
								"label": "isActive",
								"offset": 1,
								"slot": "6",
								"type": "t_bool"
							}
						],
						"numberOfBytes": "224"
					},
					"t_uint256": {
						"encoding": "inplace",
						"label": "uint256",
						"numberOfBytes": "32"
					}
				}
			},
			"userdoc": {
				"kind": "user",
				"methods": {},
				"version": 1
			}
		}
	}
}